:100000000C94E2070C9449080C9449080C94490894
:100010000C9449080C9449080C9449080C9449081C
:100020000C9449080C9449080C9497280C9449089E
:100030000C9449080C9449080C9449080C944908FC
:100040000C94F7310C9449080C9449080C94490815
:100050000C9474320C942B2A0C9449080C94490883
:100060000C9449080C94882A0C9449080C9449086B
:100070000C9449080C9449080C9449080C944908BC
:100080000C94D4760C9449080C9449080C944908B3
:100090000C9449080C94490811110011000000004B
:1000A0000000000000001100021213FFFE141516DC
:1000B0001ACDAB0000004F6E6C696E652E0A000A07
:1000C000002C20636865636B207261746520257560
:1000D00020487A0025732025732C206368616E6E9A
:1000E000656C2025752C2070616E69642030782540
:1000F00058004D4143206164647265737320257814
:100100003A25783A25783A25783A25783A25783A82
:1001100025783A25780A0D00496E76616C6964206D
:10012000454550524F4D2073657474696E67732056
:1001300064657465637465642E20526577726974B2
:10014000696E6720776974682064656661756C7490
:100150002076616C7565732E0A000A0A2A2A2A2AFB
:100160002A2A2A426F6F74696E672025732A2A2A09
:100170002A2A2A2A0A0033323231313030313233DE
:100180003435373932373036313631353232323232
:100190003232323232322563206973206E6F74201E
:1001A000612076616C6964206F7074696F6E2120C4
:1001B0006820666F72206D656E750A0D005265735A
:1001C000657474696E672E2E2E0A0D00456E746577
:1001D00072696E6720444655204D6F64652E2E2E41
:1001E0000A0D00446F6E652E0A000A003A002300D3
:1001F0002025643A2025303264644220000A002E13
:1002000000456E65726779205363616E3A0A00207B
:10021000202A204E657665722D757365642073748F
:1002200061636B203E2025642062797465730A0D3A
:10023000006163746976650A0D006E6F742000209A
:10024000202A20436F6E66696775726174696F6EEC
:100250003A2025642C205553423C2D3E45544820DD
:100260006973200020202A2043757272656E742FF6
:100270004C6173742F536D616C6C657374205253B1
:1002800053493A2025642F25642F2D2D64426D0A91
:100290000D0020202A2043757272656E742F4C6108
:1002A00073742F536D616C6C657374205253534992
:1002B0003A2025642F25642F256464426D0A0D00C1
:1002C0000A0D0020202A204F70657261746573202A
:1002D0006F6E206368616E6E656C2025642077699F
:1002E000746820545820706F776572200020202A8F
:1002F000203830322E31352E34204555492D3634B4
:100300003A20253032783A253032783A2530327822
:100310003A253032783A253032783A253032783AF8
:10032000253032783A253032780A0020202A2055AC
:1003300053422045746865726E6574204D41433A9E
:1003400020253032783A253032783A253032783AE2
:10035000253032783A253032783A253032780A0022
:100360004F75747075742052533233322064656255
:10037000756720737472696E67730A0D006E6F740F
:1003800020004F7574707574207261772038303298
:100390002E31352E34206672616D65730A0D202072
:1003A0002A2057696C6C20006E6F742000646563AE
:1003B0006F6D707265737320366C6F7770616E202D
:1003C000686561646572730A0D20202A2057696C84
:1003D0006C20006E6F7420006368616E6765206C2E
:1003E000696E6B2D6C6F63616C2061646472657300
:1003F00073657320696E73696465204950206D656B
:100400007373616765730A0D20202A2057696C6C2D
:1004100020006E6F74200073656E642064617461E7
:10042000206F7665722052460A0D20202A205769D7
:100430006C6C20006E6F74200043757272656E7470
:100440006C79204A61636B6461773A0A0D20202A37
:100450002057696C6C2000526F7574696E67207448
:1004600061626C6520636C6561726564210A0D00D0
:100470004C6F63616C2072657061697220696E698E
:100480007469617465640A0D00476C6F62616C2069
:100490007265706169722072657475726E73202561
:1004A000640A0D000A0D2D2D2D2D2D2D2D2D2D0A1B
:1004B0000D0020203C6E6F6E653E00290A0D00295C
:1004C00020256C75730A0D002F257520287669612B
:1004D00020000A0D526F75746573205B2575206DC1
:1004E00061785D0A0D0020203C6E6F6E653E000A4B
:1004F0000D000A0D4E65696768626F7273205B2597
:1005000075206D61785D0A0D000A0D000A0D4164C9
:1005100064726573736573205B2575206D61785D0A
:100520000A0D000A53656C656374207472616E7302
:100530006D697420706F7765722028303D2B3364AD
:10054000426D2031353D2D31372E3264426D2920E8
:100550005B25645D3A20000A53656C65637420383E
:1005600030322E31352E34204368616E6E656C203A
:10057000696E2072616E67652031312D3236205BE5
:1005800025645D3A20004A61636B646177206E6F79
:1005900077206F7574707574732064656275672059
:1005A000737472696E67730A0D004A61636B6461EC
:1005B0007720646F6573206E6F74206F757470752B
:1005C0007420646562756720737472696E67730A5C
:1005D0000D004A61636B646177206E6F7720636101
:1005E00070747572657320726177206672616D65D3
:1005F000730A0D004A61636B64617720646F6573F1
:10060000206E6F74206361707475726520726177FB
:10061000206672616D65730A0D004A61636B6461E7
:1006200077206E6F7720706572666F726D732036FB
:100630006C6F7770616E207472616E736C61746937
:100640006F6E730A0D004A61636B64617720646F9B
:100650006573206E6F7420706572666F726D2036E0
:100660006C6F7770616E207472616E736C61746907
:100670006F6E0A0D004A61636B646177206E6F775D
:1006800020696E206E6574776F726B206D6F646584
:100690000A0D00507265737320616E79206B657965
:1006A00020746F2073746F702E0A0D002A2A2A2A74
:1006B0002A2A2A2A2A0A0D002A2A2A2A2A2A2A2A01
:1006C0002A6F6E206368616E6E656C20253264202F
:1006D0007769746820706F77657220002A2A2A2A49
:1006E0002A2A2A2A4A61636B64617720697320632E
:1006F0006F6E74696E756F75736C792062726F615D
:100700006463617374696E672A2A2A2A2A2A2A0A6C
:100710000D002A2A2A2A2A5741524E494E47205272
:100720006164696F206D6179206F766572686561BB
:100730007420696E2074686973206D6F64652A2A5D
:100740002A2A2A2A2A0A0D004A61636B64617720EB
:100750006E6F77206265686176696E672069747371
:10076000656C662E0A0D004A61636B646177206ECA
:100770006F7720696E20736E6966666572206D6F93
:1007800064650A0D004272696E67696E6720696E62
:10079000746572666163652075700A0D0042726946
:1007A0006E67696E6720696E746572666163652045
:1007B000646F776E0A0D00082008000A0D547261FC
:1007C0006E736D697420706F77657220756E6368E3
:1007D000616E6765642E0A0D000A0D5472616E73B6
:1007E0006D697420706F776572206368616E6765EC
:1007F0006420746F2025642E0A0D0020000A0D4924
:100800006E76616C696420696E7075740A0D0008FB
:100810002008000A0D4368616E6E656C20756E637A
:1008200068616E6765642E0A0D000A0D4368616E8B
:100830006E656C206368616E67656420746F202547
:10084000642E0A0D000A0D496E76616C6964206998
:100850006E7075740A0D002578003A003A3A00254A
:1008600063256325632E256364426D002A2A2A2AA4
:100870002A2A2A2A2A2A2A2A2A2A2A2A2A2A2A2AD8
:100880002A2A2A2A2A2A2A2A2A2A2A2A2A2A2A0AE8
:100890000D002A207072657373696E6720796F7519
:1008A000722063686F696365206F6E206B65796283
:1008B0006F6172642A0A0D002A204D616B652073F6
:1008C000656C656374696F6E20617420616E792058
:1008D00074696D652062792020202A0A0D002A2083
:1008E0002020202020202020202020202020202008
:1008F00020202020202020202020202020202020F8
:100900002A0A0D002A2020682C3F202020202020A9
:100910005072696E742074686973206D656E7520FD
:100920002020202020202A0A0D002A2020522020CA
:10093000202020202020526573657420287669616C
:100940002057445429202020202020202A0A0D004E
:100950002A20204420202020202020205377697442
:10096000636820746F20444655206D6F64652020B5
:1009700020202A0A0D002A20206520202020202067
:100980002020456E65726779205363616E202020B8
:1009900020202020202020202A0A0D002A20204765
:1009A000202020202020202052504C20476C6F62B5
:1009B000616C2052657061697220202020202A0A13
:1009C0000D002A20204E20202020202020205250C0
:1009D0004C204E65696768626F727320202020206A
:1009E000202020202A0A0D002A2020532020202009
:1009F00020202020456E61626C6520736E65657AEB
:100A00006572206D6F64652020202A0A0D002A205F
:100A100020642020202020202020546F67676C65F0
:100A2000205253323332206F757470757420202039
:100A30002A0A0D002A202072202020202020202099
:100A4000546F67676C6520726177206D6F646520F5
:100A50002020202020202A0A0D002A2020362020B5
:100A6000202020202020546F67676C6520366C6F33
:100A70007770616E20202020202020202A0A0D007F
:100A80002A20207020202020202020205365742040
:100A9000524620706F776572202020202020202071
:100AA00020202A0A0D002A20206320202020202038
:100AB0002020536574205246206368616E6E656C19
:100AC00020202020202020202A0A0D002A20206E0D
:100AD000202020202020202053657420746F206E59
:100AE0006574776F726B206D6F64652020202A0A11
:100AF0000D002A2020732020202020202020536554
:100B00007420746F20736E6966666572206D6F6401
:100B1000652020202A0A0D002A20206D2020202078
:100B2000202020205072696E742063757272656E89
:100B300074206D6F6465202020202A0A0D0020207B
:100B40002020202020205B4275696C742053657042
:100B500020313720323031335D2020202020200A00
:100B60000D000D2A2077696B692E697076366C61ED
:100B7000622E62657574682D686F6368736368754B
:100B80006C652E64652A0A0D000D2A2A2A2A204245
:100B900065757468204853204265726C696E2049FF
:100BA000507636204C61626F72202A2A2A0A0D0084
:100BB0000A0D2A2A2A2A2A2A2A2A2A2A2A204A6185
:100BC000636B646177204D656E75202A2A2A2A2A74
:100BD0002A2A2A2A2A0A0D00010101000201010025
:100BE00003010100040101000601010007010100E9
:100BF0000A0101000B0101000C0101000D010100BF
:100C00000E01010011010100140101001601010093
:100C100002020100010102000201020003010200C0
:100C200004010200050102001B0201000101010193
:100C3000020101010301010104010101050101019A
:100C4000010102010201020103010201000101FD93
:100C5000020101FD010101FD060101FD030101FD8C
:100C6000040101FD7261776D6F64650041746D650B
:100C70006C00000000000A004D554C54494341539C
:100C800054200042524F41444341535420004449B0
:100C90005245435445442000414C4C5F4D554C5403
:100CA0004943415354200050524F4D495343554FEF
:100CB000555320006364635F65636D3A205265633A
:100CC0006569766564205345545F45544845524EE6
:100CD00045545F5041434B45545F46494C5445523F
:100CE0003A20283078253034582920007463706900
:100CF000705F697076365F6F75747075743A206EC8
:100D0000627220636163686520656E747279207316
:100D100074616C65206D6F76696E6720746F2064F6
:100D2000656C61790A0074637069705F697076360A
:100D30005F6F75747075743A206E627220636163C0
:100D4000686520656E74727920696E636F6D706C72
:100D50006574650A0046414C4C4241434B3A20724F
:100D6000656D6F76696E672065787420686472734C
:100D700020262073657474696E672070726F746FBB
:100D80002025642025640A008112010002EF02017F
:100D900040EB03212000100102030109028D000431
:100DA00081058032080B00020202FF0B09040000DB
:100DB000010202FF0B0524001001052401000004BC
:100DC0002402000524060001070583030800010929
:100DD000040100020A00000007058102400001072B
:100DE000050202400001080B020202020110090480
:100DF0000200010202011005240010010524010374
:100E000003042402020524060203070584032000CC
:100E1000FF09040300020A00000007058502200004
:100E200001070506022000010902430002010680B5
:100E30003209040000010202FF0B05240010010525
:100E40002401000004240200052406000107058394
:100E50000308000109040100020A000000070581DF
:100E600002400001070502024000010902200001C2
:100E7000030780320904000002020C070C070583F7
:100E80000308000107058102400001090240000239
:100E90000208803209040000000206000D0524004B
:100EA000100105240600010D240F040000000018A5
:100EB0000500000009040100020A00000007058186
:100EC000024000010705020240000109028A0004F5
:100ED00082098032080B00020206000D090400009E
:100EE000000206000D052400100105240600010D76
:100EF000240F040000000018050000000904010090
:100F0000020A0000000705810240000107050202F5
:100F1000400001080B020202020110090402000154
:100F2000020201100524001001052401030304241A
:100F300002020524060203070584032000FF0904BA
:100F40000300020A000000070585022000010705D2
:100F500006022000010403090430313233343536EF
:100F60003738396162636465660041746D656C0091
:100F70004A61636B64617720364C6F5750414E2055
:100F800041646170746F7200524E4449532B446542
:100F900062756700524E444953004344432D454512
:100FA0004D004344432D45434D004344432D4543A9
:100FB0004D2B444542554700446562756720506F8C
:100FC0007274000011241FBECFEFD0E2DEBFCDBF90
:100FD00004B603FE39C014BE80919E1F90919F1FDE
:100FE000A091A01FB091A11F8A3C2CEA920722E495
:100FF000A2072CEDB207A1F410929E1F10929F1F22
:101000001092A01F1092A11F88E10FB6F894809350
:101010006000109260000FBEE0E0F0EF099520C084
:1010200080919E1F90919F1FA091A01FB091A11F22
:101030000196A11DB11D80939E1F90939F1FA093A9
:10104000A01FB093A11F0CC086EC9CEAA2E4BCEDEB
:1010500080939E1F90939F1FA093A01FB093A11FEA
:1010600012E0A0E0B1E0E6EDF7E001E00BBF02C066
:1010700007900D92AE37B107D9F71FE1AEE7B2E0A6
:1010800001C01D92AE39B107E1F70E9426090C9408
:10109000E9830C9400000895CF92DF92EF92FF92C3
:1010A0000F931F93DF93CF93CDB7DEB7A0970FB603
:1010B000F894DEBF0FBECDBF7C01FC018081918121
:1010C000803B910599F08F3C910509F447C000974A
:1010D00009F04AC080911D0690911E0665E840E027
:1010E00050E00E942A4980EB90E03AC0653809F050
:1010F00040C08E010F5F1F4FC80168E970E040E1FA
:1011000050E00E946C808EE1B8010E9459396C0158
:10111000009721F18BEB9BEB9A8B898B1C8A1B8AA6
:101120001E8A1D8A188E1F8A1A8E198E1C8E1B8E7F
:101130001E8E1D8E82E090E098A38F8F8E010F5E31
:101140001F4FC80140E050E0BA0123E00E94886EC2
:10115000C601B80140E450E00E94F8348FEC90E002
:10116000F7019183808305C0F7011182108283E02B
:1011700001C081E0A0960FB6F894DEBF0FBECDBFD0
:10118000CF91DF911F910F91FF90EF90DF90CF9063
:1011900008950E941E0D0895DF93CF93CDB7DEB75B
:1011A0002A970FB6F894DEBF0FBECDBF88E090E05F
:1011B0000E9437839A8389838A81809599819817C1
:1011C00009F43AC0DE01139680E090E0FC01E85596
:1011D000FF4FE491ED93019688309105B9F7CE0168
:1011E000039660E070E048E050E00E943D83E1EB50
:1011F000F0E0259134918AE090E0B9010E94558396
:10120000E3EBF0E0259134918CE090E0B9010E948D
:101210005583E5EBF0E064918EE090E00E94478317
:10122000E0EBF0E0E491E983E095EA8369817A817B
:1012300088E090E00E94558389812A960FB6F89441
:10124000DEBF0FBECDBFCF91DF910895EF92FF9229
:101250000F931F93DF93CF9300D0CDB7DEB7112448
:101260000E941B2B0E94272BEEE9FFE122E432E4CF
:1012700031832083EC59FF4F8DB79EB78456904041
:10128000E817F907A8F30E9491730E9479298AB19F
:10129000806A8AB98DB1806C8DB95D988EE180933A
:1012A0007C0080E880937A0080917A00806480934B
:1012B0007A0080917A0086FDFCCF80917800909131
:1012C00079000E94B54E10927A0080E068E046E016
:1012D0000E94B72A80E00E94122B00D000D08AE53D
:1012E00091E0ADB7BEB712969C938E93119786E0AE
:1012F00091E014969C938E9313970E94EF800F9029
:101300000F900F900F900E94AA4D0E94A8488AED5E
:1013100091E060E070E00E945C49779884E491E09D
:1013200060E070E00E945C4986E291E060E070E07D
:101330000E945C490FEF1FEF0E94B8480E94332BB8
:1013400080919A1F90919B1F009721F401501040AB
:1013500099F727C188E090E00E9437839A838983B8
:101360008A8180959981981769F000D088E191E091
:10137000EDB7FEB7928381830E94EF800F900F90AC
:101380000E94CC080E94D94CE0916201F091630167
:1013900009950AE610E188E0D8011D928A95E9F7DF
:1013A000C80160E070E048E050E00E941F830E94A6
:1013B000BC73ABE5B4E1F80188E001900D92815077
:1013C000E1F78AE090E00E9437838C018CE090E0A6
:1013D0000E943783BC01C8014AE650E10E94952D66
:1013E0000E94CC0890E00E94E02B8EE090E00E94EA
:1013F0002F830E946E2F8AE690E10E94AB320E94FA
:101400009C50E091B401F091B5010995E0919B01E8
:10141000F0919C010995E0912902F0912A02099529
:10142000EDB7FEB772970FB6F894FEBF0FBEEDBFD3
:10143000319682EF90E0ADB7BEB712969C938E9333
:10144000119780916A108283138280916B1084833C
:10145000158280916C108683178280916D10808731
:10146000118680916E108287138680916F10848719
:101470001586809170108687178680917110808BF9
:10148000118A0E94EF80E0909901F0909A010091FA
:10149000B2011091B301EDB7FEB772960FB6F89492
:1014A000FEBF0FBEEDBF0E948C2D2DB73EB72A5058
:1014B00030400FB6F8943EBF0FBE2DBFEDB7FEB75C
:1014C000319624ED30E0ADB7BEB712963C932E9323
:1014D0001197F382E28215830483868317828DEC51
:1014E0009BEA918780870E94EF80E091C001F09194
:1014F000C1012DB73EB7265F3F4F0FB6F8943EBFF0
:101500000FBE2DBF3097D1F00995BC0100D000D09F
:1015100081EC90E0ADB7BEB712969C938E93119775
:101520008DE790E00E94BA7FEDB7FEB774836383C6
:101530000E94EF800F900F900F900F9000D08FEBD4
:1015400090E0ADB7BEB712969C938E9311970E9410
:10155000EF800F900F9082E092E060E070E00E94D8
:101560005C4986E191E060E070E00E945C4987E3BD
:1015700091E060E070E00E945C4900D086EB90E072
:10158000EDB7FEB7928381830E94EF805F985D9AEA
:10159000779A769A0F900F900E94B8480E94332B4A
:1015A000FBCF7698D7CE809161118761877D80933C
:1015B000611108950F931F93CF93DF938C01EB017B
:1015C0008EE291E0B80146E050E00E948C800097E6
:1015D000C1F480916A10888380916B108983809117
:1015E0006C108A8380916D108B8380916E108C8338
:1015F00080916F108D83809170108E838091711017
:1016000033C0F8018081982F97709630E9F4282F25
:10161000269526952695822F90E0FC01EE0FFF1F60
:10162000E80FF91FED58FF4E8081888381818983FF
:1016300082818A83F80181818B8382818C8380916E
:101640007210281758F013C08883F80181818983AC
:1016500082818A838FEF8B838EEF8C83F801838165
:101660008D8384818E8385818F8381E001C080E0BA
:10167000DF91CF911F910F9108950F931F93CF93F7
:10168000DF938C01EB018AE690E148E050E00E9494
:101690008C80009721F4C8010E94271965C08B81B6
:1016A0008F3F31F48C818E3F19F4988192FF04C0F2
:1016B0003091721020E020C090FDFACF91FFF8CF5A
:1016C000F8019083898181838A8147C0822F90E0CD
:1016D000FC01EE0FFF1FE80FF91FED58FF4E988138
:1016E0008081981741F499818181981721F49A811A
:1016F0008281981719F02F5F231740F3203278F07A
:101700008881F8018083898181838A8182838D81A8
:1017100083838E8184838F81858380E026C0231715
:1017200099F4822F8F5F80937210822F90E0FC01DA
:10173000EE0FFF1FE80FF91FED58FF4E88818083E1
:10174000898181838A818283220F220F220F266062
:10175000F80120838B8181838C8182838D818383B7
:101760008E8184838F81858381E0DF91CF911F916A
:101770000F910895282F392FD901EEE1F1E086E08D
:1017800001900D928150E1F781E008956623C1F048
:1017900041155105A9F020E061501416150624F4F6
:1017A000FC01E60FF11D03C0FC01E20FF11DDF019A
:1017B000A40FB51F30813C93662311F02F5FECCF4F
:1017C00008952F923F924F925F926F927F928F92E5
:1017D0009F92AF92BF92CF92DF92EF92FF920F93C0
:1017E0001F93DF93CF93CDB7DEB762970FB6F89410
:1017F000DEBF0FBECDBF2C0121E7622E24E1722E89
:10180000E09076142091751498E2292E312C260C44
:10181000371C80919914853811F1863858F481303D
:1018200008F4DFC0853008F4DAC08058823008F050
:10183000D8C0D5C0893818F4873868F404C089380E
:1018400009F0CFC004C080E1A82EB12C0BC008E283
:10185000A02EB12C07C018E1A12EB12C03C0B8E016
:10186000AB2EB12C922F80E0FF24E82AF92AEA1847
:10187000FB0828E0E216F1040CF4B5C04E01089410
:10188000811C911CA9E9CA2EA4E1DA2ECA0CDB1C2A
:10189000D6019C91915011968C911197923008F03D
:1018A00083C090E0F3E0880F991FFA95E1F7029763
:1018B00040E00BC0F401E20FF31F2C0D3D1DD901D8
:1018C00012962C91129720834F5F242F30E0281717
:1018D000390784F341145104A1F46E2D6650C601FA
:1018E000089648E050E00E94C60BB6016E5F7F4F3D
:1018F000C4010E94DA0A22E0F601218308E010E028
:101900001BC031E04316510409F06FC06E2D6E50BC
:10191000C601409648EF5FEF0E94C60B86010E5F3E
:101920001F4FC801B4010E943D0B882309F077C006
:10193000C8010E94BA0B73C0809175148A8B198AF2
:101940008091761490E0A989BA898A2B9B2B800F0D
:10195000911FF301858394838091571490915814BB
:10196000800F911F9093581480935714D1011396B0
:101970001C921E9212970E94985280959095F101A8
:1019800093838283D60111968C91119790E09C01EC
:10199000E3E0220F331FEA95E1F7E21AF30AE00EC3
:1019A000F11EA20EB31E16C0282F30E0882349F086
:1019B000C90173E0880F991F7A95E1F7E81AF90ACF
:1019C00002C0EE24FF2463E0220F331F6A95E1F783
:1019D000A20EB31EB8E0EB16F1040CF053CF80E07A
:1019E00005C08FEF03C08EEF01C08DEF62960FB67A
:1019F000F894DEBF0FBECDBFCF91DF911F910F9145
:101A0000FF90EF90DF90CF90BF90AF909F908F901E
:101A10007F906F905F904F903F902F90089521E0BE
:101A2000F601218308EF1FEF87CF209177142A3327
:101A300019F40E94E10B089580E008958DED96E879
:101A40000E94BB569093701480936F1489E10E949A
:101A5000915069E871E00E9497320097B1F083E3FA
:101A6000809363148093641480919514809365141B
:101A700080919614809366148091971480936714D4
:101A8000809198148093681408C089E10E94915055
:101A9000BC0183E694E10E943D0B88E10E949150D5
:101AA000BC0189E694E10E943D0B882321F489E67C
:101AB00094E10E94BA0B8091611182FF04C081E021
:101AC00090E00E94150D8CE093E069E774E140E13D
:101AD00050E00E948C80009779F0609157147091CB
:101AE0005814625F7F4F709358146093571483E6C5
:101AF00094E141E00E94E218109258141092571499
:101B000008950F931F93DF93CF93CDB7DEB7289738
:101B10000FB6F894DEBF0FBECDBF209161112272C7
:101B2000223009F06BC08C01FC0184859585FDEDA8
:101B300086389F0709F062C0F8018081833321F461
:101B400081818333A1F43EC08F3F89F4F801818104
:101B50008F3F69F482818F3F51F483818F3F39F445
:101B600084818F3F21F485818F3F09F447C08EE146
:101B700091E0B80146E050E00E948C800097D1F4DB
:101B80008091911492E089278983809192148A83AD
:101B9000809193148B83809194148C8380919514FD
:101BA0008D83809196148E83809197148F8380917A
:101BB00098148887C801BE016F5F7F4F0E94DA0AC0
:101BC0008823E1F080915714909158140E979093C8
:101BD0005814809357148091611182FF04C080E0F3
:101BE00090E00E94150DACE0B3E0E9E7F4E180E19C
:101BF00001900D928150E1F70E9484571092581481
:101C00001092571428960FB6F894DEBF0FBECDBFC2
:101C1000CF91DF911F910F910895EF92FF921F9343
:101C2000CF93DF93382F292F162F572F80916111D3
:101C300083FF37C0CCE8D2E0CE01632F722F412F53
:101C40000E9499802E978AE990E80E94BB569D8752
:101C50008C8789E10E94915069E871E00E94973277
:101C6000009759F083E380937E0289831A821B8256
:101C700080E88C838AE98D8308C089E10E949150B5
:101C80009C01CE01B9010E943D0B84E892E00E94C4
:101C9000BA0B612F625F8EE792E070E040E00E9435
:101CA000E218DF91CF911F91FF90EF900895EF928E
:101CB000FF921F93CF93DF93382F292F162F572F83
:101CC0008091611183FF37C0C1EED0E1CE01632F57
:101CD000722F412F0E9499802E978AE990E80E94E6
:101CE000BB569D878C8789E10E94915069E871E01D
:101CF0000E949732009759F083E38093D310898331
:101D00001A821B8280E88C838AE98D8308C089E16E
:101D10000E9491509C01CE01B9010E943D0B89EDBA
:101D200090E10E94BA0B612F625F83ED90E170E059
:101D300040E00E94E218DF91CF911F91FF90EF9059
:101D4000089590916111927281E0923009F080E0E3
:101D500008956F927F928F929F92AF92BF92CF928F
:101D6000DF92EF92FF920F931F93CF93DF93E82EB2
:101D7000E7017E01F92EE7017724662427E5C22ECC
:101D800028E0D22E9AE5A92E98E0B92E8CE5882E6F
:101D900088E0982E01C07E2C188100E089817801AE
:101DA000E80EF11CE114F10481F477FC10C0E72C7B
:101DB000E394772049F500D0EDB7FEB79282818297
:101DC0000E94EF800F900F901FC0171464F06620E0
:101DD00061F000D0EDB7FEB7B282A1820E94EF8021
:101DE0000F900F9002C077247A9400D000D0EDB706
:101DF000FEB7D282C182F482E3820E94EF800F900C
:101E00000F900F900F90E72CF2E06F0E2296862D28
:101E1000803109F0C0CFDF91CF911F910F91FF90DA
:101E2000EF90DF90CF90BF90AF909F908F907F907A
:101E30006F900895CF93DF930E94712F8F7086303B
:101E400028F08F3029F46DE231E304C06BE201C069
:101E50006DE230E390E0FC01EA58FE4F24918A578E
:101E60009E4FFC018491303319F4462F60E201C08B
:101E700041E3EDB7FEB73A970FB6F894FEBF0FBE39
:101E8000EDBFADB7BEB71196CFE5D8E0D283C18321
:101E9000772767FD709513967C936E93129755275D
:101EA00047FD509515965C934E931497332727FD65
:101EB000309517963C932E931697992787FD90950A
:101EC00019969C938E9318970E94EF808DB79EB7BA
:101ED0000A960FB6F8949EBF0FBE8DBFDF91CF91CB
:101EE000089500D080EB9BE0EDB7FEB7928381832D
:101EF0000E94EF8089E89BE0EDB7FEB79283818373
:101F00000E94EF8082E69BE0EDB7FEB7928381836B
:101F10000E94EF808EE39BE0EDB7FEB79283818352
:101F20000E94EF8088E19BE0EDB7FEB7928381834A
:101F30000E94EF8082EF9AE0EDB7FEB79283818333
:101F40000E94EF808CEC9AE0EDB7FEB7928381831C
:101F50000E94EF8086EA9AE0EDB7FEB79283818314
:101F60000E94EF8080E89AE0EDB7FEB7928381830C
:101F70000E94EF808AE59AE0EDB7FEB792838183F5
:101F80000E94EF8084E39AE0EDB7FEB792838183ED
:101F90000E94EF808EE09AE0EDB7FEB792838183D6
:101FA0000E94EF8088EE99E0EDB7FEB792838183BF
:101FB0000E94EF8082EC99E0EDB7FEB792838183B7
:101FC0000E94EF808CE999E0EDB7FEB792838183A0
:101FD0000E94EF8086E799E0EDB7FEB79283818398
:101FE0000E94EF800F900F900E944B2B882359F096
:101FF00000D080E599E0EDB7FEB7928381830E941F
:10200000EF800F900F9000D08AE299E0EDB7FEB715
:10201000928381830E94EF8084E099E0EDB7FEB760
:10202000928381830E94EF808EED98E0EDB7FEB73A
:10203000928381830E94EF8088EB98E0EDB7FEB732
:10204000928381830E94EF8082E998E0EDB7FEB72A
:10205000928381830E94EF808CE698E0EDB7FEB713
:10206000928381830E94EF800F900F9008952F92AA
:102070003F924F925F926F927F928F929F92AF9218
:10208000BF92CF92DF92EF92FF920F931F93DF9355
:10209000CF93CDB7DEB7EA970FB6F894DEBF0FBE89
:1020A000CDBF082F2091300330913103213031050D
:1020B00009F044C08D3041F08E300CF04EC08830B5
:1020C00089F18A3009F029C7E0912C03EE2331F120
:1020D000F0E0E35DFC4F10828DE293E00E944E80C1
:1020E000E82E092F9C012B5030402031310520F083
:1020F00000D085E498E073C00E94E02B00D000D0AF
:10210000EDB7FEB731962AE238E0ADB7BEB712960A
:102110003C932E931197E282038357C000D083E152
:1021200098E034C080912C03882309F4F6C68150CE
:1021300080932C0300D08FE098E078C322303105E3
:1021400009F08EC08D3079F08E303CF4883009F47F
:1021500055C08A3009F0E1C606C0802F80538A300E
:1021600008F0DBC65FC0E0912C03EE23A9F1F0E09C
:10217000E35DFC4F10828DE293E00E944E808C0163
:102180008031910540F000D08DEF97E0EDB7FEB7BC
:10219000928381832AC000D08BEF97E0ADB7BEB7A2
:1021A00012969C938E9311970E94EF800F900F9040
:1021B000802F0E946E2F00D000D089ED97E0EDB700
:1021C000FEB792838183148303830E94EF800F9074
:1021D0000F900F900F900DC000D08BEB97E0ADB734
:1021E000BEB712969C938E9311970E94EF800F902A
:1021F0000F9010923103109230038FC680912C0300
:10220000882309F48AC6815080932C0300D087EB81
:1022100097E0EDB7FEB7928381830E94EF800F9025
:102220000F907BC680912C0360919A1F70919B1F29
:10223000823028F087E090E00E94C3806EC6802F35
:10224000992787FD90950E94C38080912C03E82FE9
:10225000F0E0E35DFC4F00838F5F80932C035DC64D
:102260008091611185FD92C0023509F409C60335DC
:1022700054F50D3309F463C00E339CF40B3209F4AA
:102280005EC00C323CF40A3009F447C60D3009F048
:102290002CC643C60D3209F443C0063309F025C6E7
:1022A000EEC0073409F4ADC2083434F40F33A9F199
:1022B000043409F01AC6BFC50C3409F4B0C20E3498
:1022C00009F013C66AC1083641F109369CF4033699
:1022D00009F431C104363CF4033509F466C00A350B
:1022E00009F003C6AAC2043609F405C1053609F08F
:1022F000FCC57AC4003709F434C101373CF40D360B
:1023000009F4A7C20E3609F0F0C5A3C0023709F4DC
:10231000D4C0033709F0E9C521C00E94710FFDC583
:1023200000D08DE997E0ADB7BEB712969C938E931F
:1023300011970E94EF800F900F9080E00CC000D0AA
:1023400085E897E0EDB7FEB7928381830E94EF8026
:102350000F900F9081E00E940619DFC500D087E63C
:1023600097E0ADB7BEB712969C938E9311970E94DB
:10237000EF8080916111897F809361110F900F90A0
:102380000E948C2D90E00E948F2DC7C50E94272DA2
:1023900000D088E497E0EDB7FEB7928381830E9476
:1023A000EF80809161118F7DC3C00E94712F8330B7
:1023B00068F400D082E197E0ADB7BEB712969C9367
:1023C0008E9311970E94EF800F900F900E947D30A6
:1023D00000D08CED96E0EDB7FEB7928381830E942A
:1023E000EF800F900F900E948C2D00D000D0EDB7A1
:1023F000FEB7319628EB36E0ADB7BEB712963C93E8
:102400002E931197828313820E94EF800F900F907A
:102410000F900F900E941A0F00D08CEA96E0EDB753
:10242000FEB7928381830E94EF8083E996E0ADB787
:10243000BEB712969C938E9311970E94EF800F90D7
:102440000F900E94332B8091611180628093611103
:1024500064C500D085E796E0EDB7FEB7928381832F
:102460000E94EF80809161118660809361110F90CE
:102470000F900E948C2D90E00E94E02B4EC580FFB3
:102480000FC000D086E496E0ADB7BEB712969C931D
:102490008E9311970E94EF80809161118E7F48C0CA
:1024A00000D08AE196E0EDB7FEB7928381830E9467
:1024B000EF808091611181603BC083FF0FC000D02D
:1024C00084EF95E0ADB7BEB712969C938E931197AB
:1024D0000E94EF8080916111877F2AC000D082ED39
:1024E00095E0EDB7FEB7928381830E94EF808091E3
:1024F000611188601DC084FF0FC000D08AEA95E09A
:10250000ADB7BEB712969C938E9311970E94EF8041
:10251000809161118F7E0CC000D086E895E0EDB708
:10252000FEB7928381830E94EF8080916111806168
:102530008093611174CE0E948C2D00D000D0EDB735
:10254000FEB7319627E535E0ADB7BEB712963C939E
:102550002E931197828313820E94EF8081E090E096
:1025600015C00E94712F00D000D0EDB7FEB7319694
:1025700023E235E0ADB7BEB712963C932E93119788
:10258000828313820E94EF8082E090E09093310377
:102590008093300310922C03BCC400D000D08CE098
:1025A00095E0EDB7FEB79283818384E090E0948359
:1025B00083830E94EF80F0E4EF2EFAE1FF2E0F906C
:1025C0000F900F900F9000E010E0ECE1CE2ED12C98
:1025D00079E0A72E75E0B72ED7018C918823A1F062
:1025E0000C9DC0010D9D900D1C9D900D11248F5BC5
:1025F000954E0E94A90E00D0EDB7FEB7B282A1821F
:102600000E94EF800F900F900F5F1F4F2CE130E082
:10261000E20EF31E04301105F9F600D000D082EF6F
:1026200094E0ADB7BEB712969C938E9311978AE053
:1026300090E014969C938E9313970E94EF8067EF1F
:10264000E62E6BE1F62E0F900F900F900F9000E0AA
:1026500010E081E05EE2C52ED12C4FEEA42E44E0C6
:10266000B42EF70190819923B9F00C9DC0010D9D06
:10267000900D1C9D900D11248850944E0E94A90E1F
:1026800000D0ADB7BEB71296BC92AE9211970E9421
:10269000EF800F900F9080E00F5F1F4FEEE2F0E0B1
:1026A000EE0EFF1E0A301105E1F6882369F000D016
:1026B00086EE94E0ADB7BEB712969C938E931197B9
:1026C0000E94EF800F900F9000D000D082ED94E038
:1026D000EDB7FEB7928381838AE090E09483838391
:1026E0000E94EF8003EC1DE10F900F900F900F9070
:1026F000EE24FF2481E03EE2A32EB12C28EC822EB2
:1027000024E0922E9BEB692E94E0792EBFEB4B2EAA
:10271000B4E05B2ED8019C91992309F457C0EA9C40
:102720006001EB9CD00CFA9CD00C1124C6018C5398
:10273000924E0E94A90E00D000D0EDB7FEB73196A0
:10274000ADB7BEB712969C928E921197D801519652
:102750008C91828313820E94EF800F900F900F90D4
:102760000F90C6018A52924E0E94A90EF80183A1D1
:1027700094A1A5A1B6A18835F2E09F07F0E0AF07CC
:10278000F0E0BF07B8F400D000D000D0EDB7FEB73E
:102790005282418283839483A583B6830E94EF8013
:1027A0002DB73EB72A5F3F4F0FB6F8943EBF0FBE1E
:1027B0002DBF0BC000D0ADB7BEB712967C926E9203
:1027C00011970E94EF800F900F9080E00894E11C19
:1027D000F11C025D1F4FBAE0EB16F10409F09ACF2D
:1027E000882359F000D082EB94E0EDB7FEB79283D6
:1027F00081830E94EF800F900F9000D084EA94E0D4
:1028000015C08EE10E94FB3900D000D029E834E0E9
:10281000EDB7FEB7328321839483838378C30E940C
:10282000BF380E942D3B00D080E794E0ADB7BEB723
:1028300012969C938E931197F0CCE3ECFDE11082FD
:10284000BE96BFE1EF38FB07D1F700D087E594E0F3
:10285000E0CC00D089E394E0ADB7BEB712969C936C
:102860008E9311970E94EF80809161110F900F90CD
:1028700081FD0BC000D084E394E0EDB7FEB79283F6
:1028800081830E94EF800F900F9000D087E194E049
:10289000ADB7BEB712969C938E9311970E94EF80AE
:1028A000809161110F900F9082FD0BC000D082E1EA
:1028B00094E0EDB7FEB7928381830E94EF800F9082
:1028C0000F9000D088ED93E0ADB7BEB712969C9301
:1028D0008E9311970E94EF80809161110F900F905D
:1028E00080FD0BC000D083ED93E0EDB7FEB792837F
:1028F00081830E94EF800F900F9000D08DEA93E0CB
:10290000ADB7BEB712969C938E9311970E94EF803D
:10291000809161110F900F9083FD0BC000D088EA69
:1029200093E0EDB7FEB7928381830E94EF800F9012
:102930000F9000D082E893E0ADB7BEB712969C939B
:102940008E9311970E94EF80809161110F900F90EC
:1029500084FD0BC000D08DE793E0EDB7FEB7928306
:1029600081830E94EF800F900F9000D080E693E06B
:10297000ADB7BEB712969C938E9311970E94EF80CD
:10298000EDB7FEB73C970FB6F894FEBF0FBEEDBF94
:1029900031968BE293E0ADB7BEB712969C938E93BF
:1029A000119780912E018283138280912F0184835D
:1029B0001582809130018683178280913101808752
:1029C000118680913201828713868091330184873A
:1029D00015860E94EF8000D000D0EDB7FEB731968B
:1029E0008DEE92E0ADB7BEB712969C938E93119781
:1029F00080916A108283138280916B108483158288
:102A000080916C108683178280916D10808711866B
:102A100080916E108287138680916F10848715864F
:102A2000809170108687178680917110808B118A33
:102A30000E94EF80EDB7FEB772960FB6F894FEBF16
:102A40000FBEEDBF0E948C2D00D000D0EDB7FEB7B9
:102A5000319623EC32E0ADB7BEB712963C932E937D
:102A60001197828313820E94EF800F900F900F9036
:102A70000F900E941A0F00D080EC92E0EDB7FEB7E5
:102A8000928381830E94EF800F900F908091791242
:102A9000882389F10E9457302DB73EB72850304027
:102AA0000FB6F8943EBF0FBE2DBFEDB7FEB73196FF
:102AB00022E932E0ADB7BEB712963C932E93119740
:102AC00090E08C559040938382838091751290E0C2
:102AD0008C559040958384838091791290E08C5539
:102AE0009040978386830E94EF8010927912EDB711
:102AF000FEB7389621C00E94573000D000D000D0D9
:102B0000EDB7FEB7319624E632E0ADB7BEB7129608
:102B10003C932E93119790E08C5590409383828341
:102B20008091751290E08C559040958384830E942B
:102B3000EF80EDB7FEB736960FB6F894FEBF0FBE26
:102B4000EDBF00D000D0EDB7FEB731968FE392E035
:102B5000ADB7BEB712969C938E9311978091651274
:102B6000828313820E94EF800F900F900F900F903E
:102B700080913601882359F400D08AE392E0EDB7C2
:102B8000FEB7928381830E94EF800F900F9000D058
:102B900081E392E0ADB7BEB712969C938E931197E6
:102BA0000E94EF800F900F90EEE9FFE1808191810C
:102BB000B2E482349B0789F000D000D08FE092E02D
:102BC000ADB7BEB712969C938E931197EE59FF4105
:102BD0001496FC93EE9313979AC1EC59FF4FB0E211
:102BE000EB39FB0718F399C100D081E092E0EDB713
:102BF000FEB7928381830E94EF800F900F900E9416
:102C0000B3740E948C2D8EABA2E14A2E512C4C0E37
:102C10005D1E82E2D2011D928A95E9F73E01089479
:102C2000611C711C81E1F30111928A95E9F7EE2490
:102C3000FF24C3016FAA98AFC20149AE9AAFFFEF5C
:102C40002F2EF1E03F2E48C0C6010B960E948F2D1B
:102C5000F0E5FA95F1F70E945730D4012C91982FA6
:102C600082170CF4922FF40191934F01282F3327F0
:102C700027FD3095D5018D919C911197820F931F5F
:102C8000F501819391935F010894C11CD11CF0E17F
:102C9000CF16D104C9F6E7FE14C07698C7018F7726
:102CA0009070009779F400D0ADB7BEB712963C9201
:102CB0002E9211970E94EF800F900F900E94B37494
:102CC00001C0769A0E94332B0894E11CF11CB0E0FD
:102CD000EB16B0E1FB0659F00FA918AD89AD9AAD1E
:102CE0009DAB8CAB52014301CC24DD24ADCF8EA92A
:102CF00090E00E94E02B00D08DEF91E0EDB7FEB7A1
:102D0000928381830E94EF800F900F90EE24FF2426
:102D1000E0EFCE2EE1E0DE2E7EEEA72E71E0B72EA4
:102D20006CEE662E61E0762E5AEE452E51E0552E61
:102D3000ACA9BDA92D913D91BDABACABF801808193
:102D4000220F232F221F330B3195882E992487FCC5
:102D500090942815390508F4490100D000D000D01E
:102D6000EDB7FEB73196ADB7BEB71296DC92CE92F4
:102D700011979701255F3F4F33832283992787FD62
:102D800090958C559040958384830E94EF80EDB799
:102D9000FEB736960FB6F894FEBF0FBEEDBF10C05B
:102DA00000D0ADB7BEB71296BC92AE9211970E94FA
:102DB000EF80F8018081815080838A940F900F907A
:102DC000882071F70FC000D0ADB7BEB712967C92C5
:102DD0006E9211970E94EF80F8018081815080836C
:102DE0000F900F90D8018C9118166CF300D0EDB7AE
:102DF000FEB7528241820E94EF800F900F900E9496
:102E0000B3740894E11CF11C0F5F1F4FF0E1EF1643
:102E1000F10409F08DCF00D083EE91E0ADB7BEB7DD
:102E200012969C938E9311970E94EF800F900F90B3
:102E30000E94B37472C000D08CEC91E0EDB7FEB785
:102E4000928381830E94EF800F900F900E94B37451
:102E50005F9A5D987798769880E02FEF30E742E0B0
:102E6000215030404040E1F700C000008F5F8A30C1
:102E7000A1F75F985D9A779A769A0E945A2B4DC077
:102E800000D08DEB91E0ADB7BEB712969C938E93B8
:102E900011970E94EF800F900F900E94B3745F9A79
:102EA0005D987798769880E02FEF30E742E02150E8
:102EB00030404040E1F700C000008F5F8A30A1F74A
:102EC0008091E00081608093E00080E02FEF30E7A8
:102ED00042E0215030404040E1F700C000008F5FE9
:102EE0008431A1F70E943E2B18C000D000D026E903
:102EF00031E0ADB7BEB712963C932E931197802F59
:102F0000992787FD909514969C938E9313970E9412
:102F1000EF800F900F900F900F90EA960FB6F894F5
:102F2000DEBF0FBECDBFCF91DF911F910F91FF90FC
:102F3000EF90DF90CF90BF90AF909F908F907F9059
:102F40006F905F904F903F902F900895CF93DF93B5
:102F5000EC0188819981009729F08D3C910509F059
:102F600095C08CC080919A1F90919B1F90932B03CA
:102F700080932A0380916211882321F081508093ED
:102F8000621101C0769A80916512882309F461C0AC
:102F90000E94567490E08170907020911C0330E084
:102FA0008217930721F10E945674817080931C034D
:102FB000882369F080919A1F90919B1F909327031B
:102FC000809326030E944A740E944F7408C0809127
:102FD00026039091270390939B1F80939A1F8091C3
:102FE0009A1F90919B1F90932903809328038091AF
:102FF0001D03843048F09091961F992329F0109278
:103000001D030E94B37403C08F5F80931D038091E2
:1030100028039091290390939B1F80939A1F04C0CB
:103020000E948F740E9437100E9467748823C1F732
:103030008091611184FF09C080912A0390912B0334
:1030400090939B1F80939A1F04C010929B1F109215
:103050009A1F809165128158823028F48EE193E0A6
:1030600061E070E004C08EE193E06DE770E00E94E3
:10307000E04B8DEC90E0998388830CC08EE193E067
:103080000E940B4C009709F075CF04C0198218827A
:1030900083E001C081E0DF91CF910895769885E0CB
:1030A00080936211089582E08093E9008091E800A6
:1030B000807208950E94132D08958091A411882391
:1030C00039F081508093A41182FF02C05D9801C045
:1030D0005D9A80916311882339F081508093631148
:1030E00082FF02C077980895779A0895CF93DF936F
:1030F000EC0188819981009731F021E083329207B9
:1031000009F044C033C00E945D188091651283307D
:1031100079F0843028F4813041F08230D9F40BC04A
:10312000813819F08238B1F406C00E94931C05C0A2
:103130000E94C32004C00E946722882329F082E3F2
:1031400093E061E070E00BC04F9A82E393E06FE0A0
:1031500070E005C04F9A82E393E06FE170E00E9457
:10316000E04B83E291E09983888314C082E393E08B
:103170000E940B4C009739F60E945318882351F097
:103180000E94132D882309F0BECF04C01982188233
:1031900083E001C081E0DF91CF9108958091A41177
:1031A00088608093A41190E0019782FD5D98089556
:1031B0008091631188608093631190E0019782FD94
:1031C0005D980895209136012223E1F02091651247
:1031D0002223C1F0233079F0243028F4213041F04B
:1031E000223081F40BC0213819F0223859F406C07E
:1031F0000E947F1D05C00E943E2102C00E940C2338
:10320000882319F40E94332B80E008951F93182F10
:10321000809136018117C1F080916512823079F07A
:10322000833018F4813081F405C0813819F0823878
:1032300059F405C0109336010E943D1905C0812F35
:103240000E945F221093360180E01F910895282F7D
:10325000392FD901EEE2F1E086E001900D92815024
:10326000E1F70895EEE2F1E0282F392FD90186E049
:103270000D9001928150E1F7089581E080933A0327
:10328000089584E090E0A0E0B0E88093A5119093C9
:10329000A611A093A711B093A81184E090E0A0E03C
:1032A000B0E08093B5119093B611A093B711B0938D
:1032B000B81180E190E0A0E0B0E08093B911909364
:1032C000BA11A093BB11B093BC118091B111909130
:1032D000B211A091B311B091B411823022E09207E3
:1032E00021E0A20720E0B20709F436C1833022E0D2
:1032F000920721E0A20720E0B20708F089C08C30D5
:1033000021E0920721E0A20720E0B20708F040C0C8
:103310008A3021E0920721E0A20720E0B20708F0FE
:1033200031C1853021E0920721E0A20720E0B207F9
:10333000E0F4833021E0920721E0A20720E0B20709
:1033400008F00AC1813021E0920721E0A20720E0C5
:10335000B20709F4EEC0823021E0920721E0A20713
:1033600020E0B20709F0CCC1F7C0863021E0920717
:1033700021E0A20720E0B20709F4FAC0873021E07B
:10338000920721E0A20720E0B20709F0B9C1F5C019
:103390008F3021E0920721E0A20720E0B20709F474
:1033A00030C1803121E0920721E0A20720E0B2077E
:1033B00098F48D3021E0920721E0A20720E0B207C7
:1033C00009F4EAC08E3021E0920721E0A20720E054
:1033D000B20708F0F6C0DBC0843121E0920721E09B
:1033E000A20720E0B20709F4FAC0863121E0920773
:1033F00021E0A20720E0B20709F4FEC0813121E0FC
:10340000920721E0A20720E0B20709F079C1E2C0EB
:10341000833021E0920721E0A20721E0B20709F4FE
:103420001CC1843021E0920721E0A20721E0B2070D
:1034300008F040C0843021E0920722E0A20720E09B
:10344000B20709F426C1853021E0920722E0A207E5
:1034500020E0B207E0F4823021E0920722E0A207E8
:1034600020E0B20709F40CC1833021E0920722E08A
:10347000A20720E0B20708F015C1813021E09207D1
:1034800022E0A20720E0B20709F03AC1F0C085307F
:1034900021E0920722E0A20720E0B20709F45CC015
:1034A000813021E0920721E0A20721E0B20708F471
:1034B00027C1B3C0843021E0920722E0A20721E0B7
:1034C000B207E0F4813021E0920722E0A20721E078
:1034D000B20708F041C0843021E0920721E0A20742
:1034E00021E0B20709F4BEC0853021E0920721E057
:1034F000A20721E0B20709F003C12EC0823021E00B
:10350000920721E0A2072DEFB20709F4F0C0863040
:1035100021E0920721E0A2072DEFB207E9F0803009
:1035200021E0920721E0A2072DEFB20709F0E8C0E1
:10353000CAC08CE890E0A0E0B0E08093B511909311
:10354000B611A093B711B093B8118DEB91E168ED6E
:103550007BE04CE850E032C01092BD111092BE11D9
:103560001092BF111092C01180E090E0DC01D4C035
:103570008AE095E0A0E0B0E09DC084EC99E0A0E096
:10358000B0E098C086E690E0A0E0B0E093C08FEF96
:103590009FEFAFEFB0E08EC088E090E0A0E0B0E039
:1035A0008093B5119093B611A093B711B093B81151
:1035B0008DEB91E16CE67CE048E050E00E946C808D
:1035C000D3CF80913C0390913D03A0913E03B091F5
:1035D0003F0370C088E195E0A0E0B0E06BC081E0FF
:1035E00090E0A0E0B0E020913601222309F462C00F
:1035F00080E090E0DC015EC080E090E1A0E0B0E01F
:1036000059C08AE095E0A0E0B0E08093BD119093AE
:10361000BE11A093BF11B093C0111092C1111092AE
:10362000C2111092C3111092C4118DEB91E10E944E
:1036300027198091B5119091B611A091B711B09151
:10364000B8110296A11DB11D8093B5119093B611CA
:10365000A093B711B093B81187CF80E090E0A0E0BD
:10366000BEE028C081E090E0A0E0B0E023C08091FF
:10367000531290915412A0915512B09156121AC043
:103680008091571290915812A0915912B0915A12EC
:1036900011C080915F1290916012A0916112B0915F
:1036A000621208C080915B1290915C12A0915D1231
:1036B000B0915E128093BD119093BE11A093BF1183
:1036C000B093C01151CF86E090E0A0E0B0E08093CD
:1036D000B5119093B611A093B711B093B81186E0CD
:1036E000EDEBF1E1DF011D928A95E9F73DCF1092F4
:1036F000B5111092B6111092B7111092B81134CFC3
:103700001092B5111092B6111092B7111092B81113
:1037100081E090E0A0E0B0EC8093B1119093B21101
:10372000A093B311B093B4112091B5113091B6119B
:103730004091B7115091B811DA01C9014896A11D05
:10374000B11D8093A9119093AA11A093AB11B093CE
:10375000AC11211531054105510541F41092B91103
:103760001092BA111092BB111092BC1180933B03BE
:103770000895CF93DF93EB0164E67CE047E050E0EF
:103780000E947E80009751F498818091611190335E
:1037900011F4877F01C0886080936111DF91CF9120
:1037A00008958091E800877F8093E80020913B0393
:1037B00080E01DC09091E80090FFFCCF382F305C76
:1037C0000DC0831779F0E82FF0E0EB55FE4E4081F5
:1037D0004093F1008F5F915090933B0390913B0396
:1037E000992379F79091E8009E7F9093E80090915B
:1037F0003B03992321F09091E80092FFDBCF809169
:10380000E80082FD10C0822F8F7349F48091E80098
:1038100080FFFCCF8091E8008E7F8093E80080914C
:10382000E80082FFFCCF8091E8008B7F8093E80066
:103830008091E8008F778093E80081E008952091DF
:10384000E80020FF47C020913B03222309F044C039
:1038500027E030E040E050E02093A5113093A6111E
:103860004093A7115093A81124E130E040E050E0CC
:103870002093A9113093AA114093AB115093AC112E
:103880006093AD117093AE118093AF119093B0110E
:10389000E5EAF1E181918093F10081E1E93BF807EC
:1038A000C9F78091E8008E7F8093E8008091E8005E
:1038B00080FFFCCF8091E80082FFFCCF8091E80080
:1038C0008B7F8093E8008091E8008F778093E800F9
:1038D00081E0089580E0089580E008951F93CF93DC
:1038E000DF93C9EED0E083E0888381EC60E00E9442
:1038F000012481E0888381E864E30E94012412E0CE
:10390000188380E864E30E940124EAEEF0E088E096
:10391000808310821083108284E080831082DF9184
:10392000CF911F910895FF920F931F93CF93DF9331
:1039300080915112909152128230910509F0D6C0B7
:1039400080913F01882321F00E94D30A10923F0109
:103950005F9A82E08093E9008091E80082FFC8C00E
:103960008091571490915814009709F0C1C090911C
:10397000F2009C3260F48091E8008B7F8093E80035
:103980008091E8008F778093E80021E001C020E07B
:10399000E4E6F1E18091F100819381E1E039F807FB
:1039A000C9F784EDF82EF90E80916411909165119C
:1039B000A0916611B091671181309105A105B10503
:1039C00059F08091E8008B7F8093E8008091E800B7
:1039D0008F778093E80021E08091701190917111B0
:1039E000A0917211B09173110097A105B10509F46E
:1039F0007FC0222309F07CC00E94CE1880916C11F8
:103A000090916D1184972091E8002F7E2093E8001B
:103A100025C02091F100FA9401F52091E8002B7F58
:103A20002093E8002091E8002F772093E800209170
:103A3000E80022FD04C02091E80024FFF8CF209187
:103A4000E80024FF06C08091E8008F7E8093E800A4
:103A500007C0F090F200FF2019F001970097C9F617
:103A6000C0917011D091711103E614E11AC08091D8
:103A7000F100F80181938F012197FA9491F4209736
:103A800081F08091E8008B7F8093E8008091E800CE
:103A90008F778093E8000E94D723882349F5F09020
:103AA000F200209721F78091E8008B7F8093E80057
:103AB0008091E8008F778093E80080917011909159
:103AC0007111A0917211B09173118931F5E09F07C6
:103AD000F0E0AF07F0E0BF0758F4909358148093DC
:103AE000571483E694E10E94810D02C080E001C07A
:103AF00081E0DF91CF911F910F91FF900895EF9298
:103B0000FF920F931F93DF93CF930F92CDB7DEB742
:103B1000082F7B0121E030E040E050E02093641169
:103B200030936511409366115093671124E230E0A1
:103B300040E050E020936C1130936D1140936E1172
:103B400050936F119B0140E050E02093701130932F
:103B50007111409372115093731110927811109259
:103B6000791110927A1110927B11109274111092A7
:103B70007511109276111092771110927C1110929B
:103B80007D1110927E1110927F111092801110926F
:103B9000811110928211109283111092841110924F
:103BA000851110928611109287111092881110922F
:103BB000891110928A1110928B1110928C1110920F
:103BC0008D1110928E1110928F11245D3F4F4F4F27
:103BD0005F4F209368113093691140936A1150939D
:103BE0006B1181E08093E9008091E8008F778093EA
:103BF000E80099830E9459239981882371F5E4E6AE
:103C0000F1E181918093F10081E1E039F807C9F792
:103C1000192F15C0F80181918F018093F1008091D7
:103C2000E80085FD09C08091E8008F778093E80067
:103C30000E945923882389F40894E108F108E114CB
:103C4000F10441F78091E8008F778093E8000E94AB
:103C5000D8180E94AD2391E0811190E0892F0F9038
:103C6000CF91DF911F910F91FF90EF90089565FF25
:103C700002C081E001C080E00E94102D08950F93E2
:103C80001F93DF93CF93CDB7DEB769970FB6F89444
:103C9000DEBF0FBECDBF2091B9113091BA11F9012D
:103CA000E355FE4E84819581A681B78183339105CA
:103CB000A105B10508F082E390E0AE014F5F5F4FD0
:103CC00014C0A92FB0E0BA016A0F7B1FAA0FBB1F57
:103CD00000811181A00FB11FA20FB31FA355BE4ECB
:103CE0000C91DB010C9382509F5F181654F3809166
:103CF000B1119091B211A091B311B091B411823170
:103D000041E0940741E0A40740E0B40709F47EC015
:103D1000833141E0940741E0A40740E0B40790F408
:103D20008E30E1E09E07E1E0AE07E0E0BE0741F142
:103D30008F30F1E09F07F1E0AF07F0E0BF0709F037
:103D400040C064C08B3142E0940741E0A40740E0EA
:103D5000B40749F08330E1E09E07E1E0AE07E1E01F
:103D6000BE0779F553C064857585620F731F63556F
:103D70007E4E40895189CE0101960E94B91B46C0F2
:103D800023553E4ED9016D917D918D919C91139754
:103D900060933C0370933D0380933E0390933F03F5
:103DA000611571058105910529F00E94371E82E099
:103DB00090E002C081E090E0909352128093511203
:103DC00025C085E090E0A0E0B0E88093A511909335
:103DD000A611A093A711B093A81180E190E0A0E0F4
:103DE000B0E08093A9119093AA11A093AB11B09366
:103DF000AC1181E090E0A0E0B0EC8093B111909321
:103E0000B211A093B311B093B41120C085E090E03B
:103E1000A0E0B0E88093A5119093A611A093A711FC
:103E2000B093A81180E190E0A0E0B0E08093A911E8
:103E30009093AA11A093AB11B093AC111092B11151
:103E40001092B2111092B3111092B41180E18093CC
:103E50003B0369960FB6F894DEBF0FBECDBFCF917E
:103E6000DF911F910F9108952091E800277F209303
:103E7000E800282F392FC9018D3A910510F08CEAFE
:103E800090E02091E8002F7B2093E80020E02CC0F8
:103E90003091E8004091E80046FD02C032FFF8CFC3
:103EA0003091E80032FF1AC0322F305C4091F100AF
:103EB000E22FF0E0EB55FE4E40832F5F0197231772
:103EC00011F0009799F73091E8003B7F3093E800BC
:103ED0003091E8003F773093E80006C08091E80019
:103EE0008F7B8093E80002C0009791F68091E800F4
:103EF0008E7F8093E8008091A5119091A611A091EA
:103F0000A711B091A81184309105A105B10509F45C
:103F1000AAC085309105A105B10560F482309105F4
:103F2000A105B105D1F083309105A105B10509F0D6
:103F3000F5C08FC086309105A105B10509F499C07F
:103F400086309105A105B10508F490C0883091052F
:103F5000A105B10509F0E2C0BDC082E090E0A0E09B
:103F6000B0E88093A5119093A611A093A711B093E8
:103F7000A81184E390E0A0E0B0E08093A9119093B1
:103F8000AA11A093AB11B093AC1181E090E0A0E036
:103F9000B0E08093B5119093B611A093B711B09390
:103FA000B8118093B9119093BA11A093BB11B0933B
:103FB000BC111092B1111092B2111092B311109263
:103FC000B4118093BD119093BE11A093BF11B09313
:103FD000C0111092C1111092C2111092C31110920F
:103FE000C4118093C5119093C611A093C711B093CB
:103FF000C81182E595E0A0E0B0E08093C9119093EC
:10400000CA11A093CB11B093CC1183E090E0A0E053
:10401000B0E08093CD119093CE11A093CF11B093C7
:10402000D0111092D1111092D2111092D31110927E
:10403000D4111092D5111092D6111092D71110925E
:10404000D81181E090E0909352128093511284E352
:1040500062C05F9A5D98779876988091E8008E7F2D
:104060008093E800FFCF0E9441195BC00E943F1E71
:1040700058C0109252121092511286E090E0A0E0C7
:10408000B0E88093A5119093A611A093A711B093C7
:10409000A81180E190E0A0E0B0E08093A911909396
:1040A000AA11A093AB11B093AC111092AD11109264
:1040B000AE111092AF111092B01181E090E0A0E02B
:1040C000B0E08093B1119093B211A093B311B0936B
:1040D000B41120C088E090E0A0E0B0E88093A51182
:1040E0009093A611A093A711B093A81180E190E03E
:1040F000A0E0B0E08093A9119093AA11A093AB1116
:10410000B093AC111092B1111092B2111092B31180
:104110001092B41180E180933B0303C0779880E054
:1041200008958091E80080FFFCCF8091E80082FF35
:104130000AC08091E8008B7F8093E8008091E800BE
:104140008F778093E80081E080933A0308951F936E
:10415000CF93DF93C9EED0E081E0888381E864E308
:104160000E94012412E0188380E864E30E94012485
:10417000EAEEF0E01083108284E080831082DF9109
:10418000CF911F9108951F93CF93DF9380914001AA
:10419000882321F00E94D30A109240015F9A82E0A6
:1041A0008093E9008091E80082FF64C080915714F9
:1041B00090915814009709F05DC01091F2001230F0
:1041C00050F48091E8008B7F8093E8008091E800B4
:1041D0008F778093E8008091F10080936411909133
:1041E000F1009093651197FD45C0C92FD0E0CF73C2
:1041F000D070DC2FCC2790E0C82BD92B2097D1F1A1
:1042000012500E94CE18CE01E3E6F4E12091F100B5
:10421000219301971150A9F40097A9F02091E8008B
:104220002B7F2093E8002091E8002F772093E8006F
:104230002091E80022FFFCCF1091F200112331F70A
:1042400002C0009719F78091E8008B7F8093E80007
:104250008091E8008F778093E800249785E0C9314A
:10426000D80740F4D0935814C093571483E694E1D0
:104270000E94810DDF91CF911F910895EF92FF92DF
:104280000F931F93DF93CF9300D000D00F92CDB741
:10429000DEB7E82E8B0181E08093E9009D830E94C8
:1042A00059239D81882309F052C098012C5F3F4F0C
:1042B0002093F100832F8F738093F100F92E14C0A7
:1042C000F70181917F018093F1008091E80085FDE5
:1042D00009C08091E8008F778093E8000E945923FD
:1042E0008823A9F5015010400115110549F78EEDFD
:1042F00089838DEA8A838EEB8B838FEE8C838E018C
:104300000F5F1F4F25E0E22EF12CEC0EFD1EF80191
:1043100081918F018093F1008091E80085FD09C0B3
:104320008091E8008F778093E8000E9459238823CA
:1043300071F40E151F0559F78091E8008F7780936F
:10434000E8000E94D8180E94AD2391E0811190E00E
:10435000892F0F900F900F900F900F90CF91DF91BA
:104360001F910F91FF90EF9008952091F1003091EF
:10437000F100932F80E0820F911D90934103809371
:1043800040038091E800877F8093E8008091E800F7
:104390008E7F8093E8000E94832300D000D084EBBE
:1043A0009CE0EDB7FEB792838183809140039091AA
:1043B0004103948383830E94EF80809140030F9098
:1043C0000F900F900F9080FF0DC000D087EA9CE007
:1043D000EDB7FEB7928381830E94EF800F900F901C
:1043E00081E001C080E00E94102D8091400381FF98
:1043F0000BC000D088E99CE0EDB7FEB792838183C3
:104400000E94EF800F900F908091400382FF0BC0BD
:1044100000D08EE89CE0EDB7FEB7928381830E94C6
:10442000EF800F900F908091400383FF0BC000D06E
:1044300083E89CE0EDB7FEB7928381830E94EF8012
:104440000F900F908091400384FF0BC000D088E74D
:104450009CE0EDB7FEB7928381830E94EF800F90BE
:104460000F9000D086E79CE0EDB7FEB79283818382
:104470000E94EF800F900F90089508950F931F935F
:10448000CF93DF93C9EED0E011E0188381E864E3B5
:104490000E94012402E0088380E864E30E94012472
:1044A000EAEEF0E00083108284E0808310821093B3
:1044B0003601DF91CF911F910F910895089590914A
:1044C0003601891719F07698809336010895EF9296
:1044D000FF920F931F93CF93DF9382E08093E900C5
:1044E0008091EB0080FF8EC080914101882371F0A4
:1044F0000E94D30A109241018091400380FF03C0C3
:1045000081E00E94102D82E08093E90080913601C5
:10451000882379F48091E80085FF74C08091E800D9
:104520008B7F8093E8008091E8008F778093E8008C
:1045300069C05F9A8091E80085FF66C00E945A18A2
:10454000882309F461C00E94CE1803E614E1C0E09C
:10455000D0E023C08091F100F80181938F01219672
:10456000F5E0C831DF0740F40894E108F1082FEFC7
:10457000E2162FEFF20671F78091E8008B7F8093AF
:10458000E8008091E8008F778093E8000E9459232B
:104590008823D1F5CE0DDF1D21968091F200803465
:1045A00021F480E4E82EF12CDBCF8091F20090E042
:1045B00006C02091F100F80121938F012196F5E0CA
:1045C000C831DF0728F401972FEF8F3F920789F753
:1045D000C80FD91F21968091E8008B7F8093E80057
:1045E0008091E8008F778093E80085E0C931D80793
:1045F00058F4D0935814C093571483E694E10E9462
:10460000810D02C080E001C081E0DF91CF911F9158
:104610000F91FF90EF900895EF92FF920F931F93E9
:10462000DF93CF930F92CDB7DEB7082F7B0181E0E8
:104630008093E90099830E9459239981882379F511
:10464000192F1AC0F80181918F018093F100809198
:10465000E80085FD0EC08091E8008E7F8093E80021
:104660008091E8008F778093E8000E945923882387
:10467000B1F40894E108F108E114F10419F780910C
:10468000E8008E7F8093E8008091E8008F77809328
:10469000E8000E94D8180E94AD2391E0811190E0BB
:1046A000892F0F90CF91DF911F910F91FF90EF9085
:1046B00008958AEF90E02BEF3091E10032FF03C0C4
:1046C0002093E10001973091E80035FD14C030914E
:1046D000D80037FF12C03091E00030FD0EC030919D
:1046E000EB0030FF0CC03091EB0035FD0AC00097A5
:1046F00019F78AE0089580E0089581E0089582E046
:10470000089583E008958AEF90E02BEF3091E10067
:1047100032FF03C02093E10001973091E80030FDA3
:1047200014C03091D80037FF12C03091E00030FD46
:104730000EC03091EB0030FF0CC03091EB0035FD26
:104740000AC0009719F78AE0089580E0089581E093
:10475000089582E0089583E008958AEF90E02BEFBA
:104760003091E10032FF03C02093E10001973091C6
:10477000E80030FD14C03091D80037FF12C03091EE
:10478000E00030FD0EC03091EB0030FF0CC03091E6
:10479000EB0035FD0AC0009719F78AE0089580E024
:1047A000089581E0089582E0089583E008958AEFF6
:1047B00090E02BEF3091E10032FF03C02093E10045
:1047C00001973091E80032FD14C03091D80037FFD6
:1047D00012C03091E00030FD0EC03091EB0030FF90
:1047E0000CC03091EB0035FD0AC0009719F78AE044
:1047F000089580E0089581E0089582E0089583E0BF
:104800000895EBEEF0E09081916090838093EC004E
:10481000EDEEF0E080818270682B608380818260A1
:1048200080838091EE00881F8827881F08959091CB
:10483000F40080E090FD06C08F5F873011F0969500
:10484000F9CF80E00895FB018093E900842F04C034
:1048500091919093F10081509091E80095FF02C0F2
:104860008823B1F70895FB018093E900842F04C0E9
:104870009091F100919381509091E80095FF02C0D2
:104880008823B1F708958093E900EBEEF0E0808192
:104890008062808308958091D8008F7B8093D800B8
:1048A0008091D90081FF08C01092E9008091EB004F
:1048B00080FF04C080E0089580E008951092E90030
:1048C00080E060E30E9401240895CF92DF92EF928E
:1048D000FF920F931F93DF93CF930F92CDB7DEB765
:1048E0000E9472756C018091F1008091F10000913D
:1048F000F1002091F100C114D10409F480C010E04E
:10490000922F80E0082B192BD6010D900020E9F79B
:10491000AC19BD09FA2EFF0C8F2D90E0801791077E
:1049200040F43F2D3F7321E009F020E02093420343
:104930008C018091E800877F8093E8000E948323A8
:10494000882309F045C0F092F10083E08093F100E4
:104950000250104029F48091E8008E7F8093E80097
:1049600092E023C099830E9483239981882331F0A8
:104970008091EB0080628093EB001EC0F6016F0116
:10498000903469F081918093F1001092F1006F01F1
:10499000025010409E5F0115110589F701C090E09B
:1049A0008091E8008E7F8093E8000115110521F0C9
:1049B0008091E80082FFD6CF8091E80082FD15C08B
:1049C00080914203813079F40E948323882331F05F
:1049D0008091EB0080628093EB0011C08091E80031
:1049E0008E7F8093E8000E94D7238091E8008B7F20
:1049F0008093E8008091E8008F778093E8000F9023
:104A0000CF91DF911F910F91FF90EF90DF90CF90AA
:104A10000895CF92DF92FF920F931F93DF93CF936E
:104A200000D00F92CDB7DEB7F82E0E94B1758C0181
:104A3000009721F48F2D0E946524A6C08091F1007B
:104A40008091F1008091F100C82EDD242091F100C9
:104A5000922F80E0C82AD92AC8010E947580019649
:104A6000F82EFF0C8F2D90E08C159D0540F43F2D06
:104A70003F7321E009F020E0209342036C01809114
:104A8000E800877F8093E8000E948323882309F051
:104A90005FC0C114D10409F473C0F092F100960113
:104AA0002150304009F46EC083E08093F100215022
:104AB000304049F492E08091E8008E7F8093E800D6
:104AC00020E030E032C092E030C02A833B839983FB
:104AD0000E9483232A813B819981882331F0809130
:104AE000EB0080628093EB0027C09034A1F0F801C6
:104AF0000F5F1F4FE491E093F100892F8F5F21300A
:104B0000310559F01092F100225030409E5F21157E
:104B1000310559F705C090E003C0982F20E030E040
:104B20008091E8008E7F8093E8002115310521F007
:104B30008091E80082FFC9CF8091E80082FD15C016
:104B400080914203813079F40E948323882331F0DD
:104B50008091EB0080628093EB0016C08091E800AA
:104B60008E7F8093E8000E94D7238091E8008B7F9E
:104B70008093E8008091E8008F778093E80004C07C
:104B800090E099CF91E097CF0F900F900F90CF9139
:104B9000DF911F910F91FF90DF90CF9008950F93B9
:104BA0001F93DF93CF930F92CDB7DEB78091F100C3
:104BB000809343036091F1006630F9F0673068F448
:104BC000613009F413C1613008F47BC1633009F42A
:104BD00045C1653009F0B9C1CFC0693009F4ECC0F6
:104BE0006A3020F4683009F0B0C1B9C06A3009F405
:104BF0008EC16B3009F0A9C18DC1803809F0A5C103
:104C0000109242036091F1008091F100823059F0DE
:104C1000833001F1813021F50E941875809366126E
:104C20000E9415750AC0862F69830E944075809383
:104C300066126981862F0E941A759093681280937C
:104C400067128091F1008091F1001091F1000091C4
:104C5000F1001BC0662321F0862F0E94092577C131
:104C60009091F1009091F1001091F1000091F1000C
:104C70000E945F75882349F48091EB0080628093E5
:104C8000EB008091E800877F67C08091E800877F14
:104C90008093E80080916612811710F0002349F09C
:104CA0008F7321F481E0809342032DC01092420360
:104CB0002AC01093661227C00E948323882311F410
:104CC00021E418C08091EB0080628093EB0023C048
:104CD0002150A1F0E0916712F0916812CF01019686
:104CE0009093681280936712E491E093F100315041
:104CF0003093661230916612332351F78091E800A9
:104D00008E7F8093E80080916612882321F0809145
:104D1000E80082FFD1CF8091E80082FD15C080912C
:104D20004203813079F40E948323882331F08091FB
:104D3000EB0080628093EB000AC18091E8008E7FD7
:104D40008093E8000E94D7238091E8008B7F8093B6
:104D5000E8008091E8008F778093E800F8C0803801
:104D600009F0F3C08091E800877F8093E80080918C
:104D700065128093F100E1CF882309F0E6C090919D
:104D8000E3008091F1008F779078892B8093E30086
:104D90008091E800877F8093E8008091E8008E7F13
:104DA0008093E8008091E80080FFFCCF8091E300D1
:104DB00080688093E300CBC0882309F0C6C090913F
:104DC000F1008091E800877F8093E800909365125E
:104DD0008091E8008E7F8093E8008091E80080FF5A
:104DE000FCCF809165120E94C175B1C0833008F07C
:104DF000ACC0882309F4ABC0813009F4A8C080910D
:104E0000F1009091F100882309F0A1C0E091F10038
:104E1000EF77E093E9008091EB0080FF98C0EE23EC
:104E2000B1F08091EB0080618093EB0081E090E035
:104E30000E2E02C0880F991F0A94E2F78093EA00B1
:104E40001092EA008091EB0088608093EB00109252
:104E5000E900F0E0EC5BFC4F108227C0833008F0E3
:104E600074C0813009F473C0823009F070C0809141
:104E7000F1009091F100882309F069C0E091F10000
:104E8000EF7709F464C0E093E9008091EB0080FFC4
:104E900015C08091EB0080628093EB001092E900D6
:104EA000F0E0EC5BFC4F81E080838091E800877F3D
:104EB0008093E8008091E8008E7F4ECF1092E90049
:104EC00046C0982F9058933008F03FC09091F10061
:104ED0009091F100E091F100813811F0823841F0B9
:104EE0008091E800877F8093E8001092F1000CC069
:104EF0008091E800877F8093E800EF77F0E0EC5B3B
:104F0000FC4F80818093F1001092F10016CF813820
:104F1000E1F41DC08130D9F46091F1008091F1007D
:104F20008091F1000E94D276882389F08091E80078
:104F3000877F8093E8008091E8008E7F8093E8006F
:104F40008091E80080FFFCCFFDCE0E945976109240
:104F5000E9008091E80083FF05C08091EB0080624A
:104F60008093EB008091E800877F8093E800809138
:104F7000E8008B7F8093E8008091E8008F77809332
:104F8000E8008091E8008E7F8093E8008091E8003F
:104F90008F778093E8000F90CF91DF911F910F9151
:104FA0000895789483B7817F846083BF83B78160DD
:104FB00083BF889583B78E7F83BF08958EE089BDB8
:104FC00009B400FEFDCF8091D8008F7D8093D8007A
:104FD0008091D80081608093D8008091E200886041
:104FE0008093E2000E944B248091E0008E7F8093AA
:104FF000E00008951F93CF93DF93EC01162F6238E2
:1050000079F51092E9008091E80083FF02C00E94C8
:10501000CF2580913A038823F9F083E08093E9005B
:105020008091E80085FF18C081E08093F100109224
:10503000F1001092F1001092F1001092F100109224
:10504000F1001092F1001092F1008091E8008F774A
:105050008093E80010923A0384E491E00E947F4933
:1050600088819981009731F021E08C30920709F016
:1050700055C051C08091D70081608093D700809146
:10508000D7008F7B8093D7008091D7008068809372
:10509000D70078948091D8008F768093D800809143
:1050A000D80080698093D8008091D8008F7B80934E
:1050B000D8008091D80081608093D800789484E4EF
:1050C00091E00E947F498091D90080FF09C08091C2
:1050D0006912882329F481E0809369120E94DE27F7
:1050E00080914B0390914C0390FF10C080914B0333
:1050F00090914C039E7F90934C0380934B0381E0EF
:105100008093EA001092EA00109265128CE091E020
:105110009983888307C01F3229F4D5CF198218825A
:1051200083E001C081E0DF91CF911F9108951F922C
:105130000F920FB60F920BB60F9211242F933F933D
:105140004F935F936F937F938F939F93AF93BF938F
:10515000EF93FF9384E491E06FE240E050E00E941F
:105160002A498091DA0080FF31C08091D80080FF09
:105170002DC08EEF8093DA008091D90080FF19C096
:1051800081E08093691280914B0390914C0382607F
:1051900090934C0380934B038091E200886080934E
:1051A000E2000E94DE278091E0008E7F8093E00085
:1051B0000DC0109269121092651280914B0390916C
:1051C0004C03846090934C0380934B038091E100E7
:1051D00082FF07C08091E20082FF03C08BEF8093C3
:1051E000E1008091E10080FF1FC08091E20080FF1C
:1051F0001BC08EEF8093E1008091E200806180937C
:10520000E2008FEE8093E1008091D800806280936D
:10521000D80080914B0390914C03806290934C0393
:1052200080934B030E94D1278091E10084FF1AC034
:105230008091E20084FF16C08091D8008F7D80931A
:10524000D8008FEE8093E1008091E2008F7E809302
:10525000E20080914B0390914C03806490934C0347
:1052600080934B038091E10085FF1AC08091E2009A
:1052700085FF16C08091E2008F7E8093E2008FED63
:105280008093E1008091E2008F7D8093E200809125
:105290004B0390914C03806890934C0380934B0395
:1052A0008091E10083FF12C08091E20083FF0EC075
:1052B00087EF8093E1000E944B2480914B039091F3
:1052C0004C03916090934C0380934B03FF91EF91BB
:1052D000BF91AF919F918F917F916F915F914F910E
:1052E0003F912F910F900BBE0F900FBE0F901F900C
:1052F0001895F8941092B60016BC89EF87BD82E02D
:1053000084BD94E095BD95B395BB80936E00789471
:10531000089520914D0330914E0380914D0390915B
:105320004E0328173907A9F7C901089520916E1275
:1053300030916F12409170125091711280916E12E3
:1053400090916F12A0917012B091711228173907C5
:105350004A075B0759F7B901CA01089560936E12B5
:1053600070936F1280937012909371120895CF937F
:10537000DF93EC010E948929C80FD91F0E94892957
:105380008C1B9D0B97FDFACFDF91CF910895843050
:10539000910548F00397880F991F880F991F9695DC
:1053A00087950197F1F70895CF93DF93EC0184EE91
:1053B00093E005C00E94C729219787EE93E02097CC
:1053C000C9F7DF91CF910895AFB7F89420914D03BD
:1053D00030914E03280F391F30934E0320934D0315
:1053E00020914F03FC01E20FF11D20916A123091D0
:1053F0006B1240916C1250916D1216C0ED57F04037
:1054000060916E1270916F12809170129091711272
:105410006F5F7F4F8F4F9F4F60936E1270936F122D
:105420008093701290937112722F632F942F852F97
:105430002F5F3F4F4F4F5F4FED37F105F8F67093F9
:105440006A1260936B1290936C1280936D12E093CA
:105450004F03AFBF08951F920F920FB60F920BB676
:105460000F9211242F933F934F935F936F937F93EA
:105470008F939F93AF93BF93EF93FF9380914D03CF
:1054800090914E03019690934E0380934D0380912B
:105490004F038F5F80934F0380914F038D37F8F058
:1054A00010924F0380916E1290916F12A091701222
:1054B000B09171120196A11DB11D80936E1290934F
:1054C0006F12A0937012B0937112809150038F5F8E
:1054D00080935003882319F481E0809378120E940E
:1054E000234C009711F00E94234BFF91EF91BF9145
:1054F000AF919F918F917F916F915F914F913F916C
:105500002F910F900BBE0F900FBE0F901F9018950C
:105510001F920F920FB60F920BB60F9211242F937A
:105520003F934F935F936F937F938F939F93AF932B
:10553000BF93EF93FF938091CE00E0917212F091B0
:105540007312309709F00995FF91EF91BF91AF91D8
:105550009F918F917F916F915F914F913F912F918B
:105560000F900BBE0F900FBE0F901F9018958823C1
:1055700069F41092CD006093CC0088E98093C90053
:105580004093CA00109273121092721208958823E9
:1055900031F48091C80085FFFCCF6093CE00089560
:1055A0001F93182F8A3031F4809151036DE00E94CF
:1055B000C72A02C08D3029F080915103612F0E94CB
:1055C000C72A80E090E01F910895882321F470930A
:1055D0007312609372120895EF92FF921F93CF930C
:1055E000DF93182FE62EE7017E01F72EE7010CC0AE
:1055F0008A3021F4812F6DE00E94C72A69916D30B5
:1056000019F0812F0E94C72A8881882389F7DF91AA
:10561000CF911F91FF90EF900895682F80E00E9436
:10562000C72A0895809351038CE491E090939B1FC7
:1056300080939A1F089584B7877F84BF88E10FB64F
:10564000F89480936000109260000FBE08952FE0E0
:1056500088E190E00FB6F894A895809360000FBEA3
:10566000209360000895A895089588E10FB6F894F6
:1056700080936000109260000FBE0895F89428E0B7
:1056800088E190E00FB6F894A895809360000FBE73
:1056900020936000FFCF80E090EFA1E0B0E0ABBFCF
:1056A000FC012791369181E09FEF2F3F390709F4E4
:1056B00080E008958091E00081608093E000F8949C
:1056C0008AEC9CEAA2E4BCED80939E1F90939F1FFE
:1056D000A093A01FB093A11F80E0EFEFFCE73197EC
:1056E000F1F700C000008F5F8038B9F78AEC9CEAC0
:1056F000A2E4BCED80939E1F90939F1FA093A01FD8
:10570000B093A11F0E943E2B08958091811290E0DA
:10571000FC01EE0FFF1F9695982F88279795879588
:10572000E80FF91FEE57FD4E1082089580917A120E
:1057300090E008951C990BC081E06FE140E00E9469
:105740004B31813039F021E030E0813129F020E027
:1057500030E002C021E030E0C90108951C9911C079
:1057600081E06FE140E00E944B31982F81518230FF
:1057700050F09F3141F0913041F081E0923031F4AE
:1057800002C081E0089580E0089580E00895CF93FD
:10579000DF93C0E1D7E20E94AE2B882311F421975A
:1057A000D1F7DF91CF9108951C9909C0282F80313E
:1057B00008F02FE085E06FE040E00E94623108953C
:1057C000DF93CF930F92CDB7DEB789830E94C72BAB
:1057D00029812093D30388E06FE140E00E94623189
:1057E0000F90CF91DF910895AF92BF92DF92EF9229
:1057F000FF920F931F93CF93DF937C01162F072FF8
:1058000080910D1390910E13A0910F13B09110136E
:105810000196A11DB11D80930D1390930E13A093BB
:105820000F13B093101342E0D42ED60ED7FC1CC039
:10583000C2E5D3E0CE01B701412F502F0E949980DD
:10584000C701612F702F40E050E00E94954E6D2DF2
:1058500070E0FB01E05BFC4F91838083CE010E94EE
:105860000D0E20E030E002C02FEF3FEFC901DF91C5
:10587000CF911F910F91FF90EF90DF90BF90AF906D
:10588000089581E06FE140E00E944B3108950F934D
:105890001F93182F883049F0863039F0893029F06D
:1058A000863119F0893109F046C01C9947C00E9421
:1058B000C72B0E94412C082F181709F442C018303A
:1058C00069F483B12C988DE090E00197F1F782E0C4
:1058D0006FE140E023E00E94623122C0193139F4C7
:1058E000863199F482E06FE140E029E008C016318A
:1058F00061F4893151F482E06FE140E026E00E94DA
:105900006231E3E0F0E03197F1F782E06FE140E0EF
:10591000212F0E946231083019F4E9E6F1E002C05B
:10592000E3E0F0E03197F1F70E94412C811749F054
:1059300023E430E008C022E430E005C024E430E095
:1059400002C020E430E0C9011F910F91089581E069
:10595000809304131C9B05C02C9881EC9DE001975B
:10596000F1F786E10E94472C0E94C72B0895809191
:105970000413882311F40E94A72C81E090E008957D
:1059800080910413882349F00E94AE2B0E94C72BFC
:1059900086E00E94472C1092041380E090E0089566
:1059A0000F931F93DF93CF930F92CDB7DEB7809104
:1059B0000413882341F01C992AC00E94AE2B88232F
:1059C00031F110E003C00E94B72C11E08FB789833A
:1059D000F8940E94C72B88E060E847E021E00E942D
:1059E000623189E191E00197F1F700E004C081E0C4
:1059F0000E941531082F07FFFACF89818FBF11232D
:105A000011F00E94C02C21E030E006FD02C020E031
:105A100030E0C9010F90CF91DF911F910F91089550
:105A20008093D40308950E94412C8250813130F438
:105A3000E82FF0E0E858FE4F8081089581E0089556
:105A4000282F8EE260E245E00E94623108952F988F
:105A500027988EE06CE00E9430318CE260EF44E0E9
:105A600022E00E9462318CE26EE041E025E00E947B
:105A700062318FE260E80E94303186E00E94153189
:105A8000682F8DE20E94303189E06FE040E023E032
:105A90000E94623184E00E941531682F606884E0C2
:105AA0000E94303185E060E847E021E00E946231E9
:105AB0000895CF93DF93CDEFD3E0CE010197F1F7B7
:105AC0000E94F7301092821210928112109280126E
:105AD0002D982C9881EC9DE00197F1F72D9A82E0AA
