:100000000C941D090C9484090C9484090C948409A3
:100010000C9484090C9484090C9484090C9484092C
:100020000C9484090C9484090C94466E0C948409F5
:100030000C9484090C9484090C9484090C9484090C
:100040000C94A6770C9484090C9484090C9484096C
:100050000C9423780C94DA6F0C9484090C94840922
:100060000C9484090C9437700C9484090C948409C2
:100070000C9484090C9484090C9484090C948409CC
:100080000C94FDBD0C9484090C9484090C9484098F
:100090000C9484090C9484093C0108004401080074
:1000A0004C010800540108005C010E006A010E00BA
:1000B00078010E0086010E0094010E00A2010E00D0
:1000C000B0010E00BE010E00CC010E00DA010E00E0
:1000D000E8010E00F6010E0004020E0012020E00EE
:1000E00020020E002E020D003B020D0048020D0002
:1000F00055020D0062020E0070020E007E020E001C
:100100008C020E009A020E00A8020E00B6020E002B
:10011000C4020E00D2020E00E0020E00EE020E003B
:10012000FC020E000A030E0018030E0026030E0048
:1001300034030E0042030E0050030D002B06010293
:10014000010101002B060102010103002B0601023F
:10015000010108002B060102010109012B0601041F
:100160000181F2060102010101002B060104018157
:10017000F2060102010102002B0601040181F206D0
:100180000102010103002B0601040181F2060102B4
:10019000010104002B0601040181F20601020101A4
:1001A00005002B0601040181F2060102010106008F
:1001B0002B0601040181F2060102010107002B0652
:1001C00001040181F2060102010108002B0601046D
:1001D0000181F2060102010109002B0601040181DF
:1001E000F206010201010A002B0601040181F20658
:1001F000010201010B002B0601040181F20601023C
:1002000001010C002B0601040181F206010201022A
:1002100001002B0601040181F20601020102020025
:100220002B0601040181F2060102010203002B06E4
:1002300001040181F20601020103012B0601040100
:1002400081F20601020104012B0601040181F2067C
:1002500001020105012B0601040181F206010201E0
:1002600006012B0601040181F206010201080100CA
:100270002B0601040181F2060102010802002B068F
:1002800001040181F2060102010803002B060104AA
:100290000181F2060102010804002B06010401811C
:1002A000F2060102010805002B0601040181F20695
:1002B0000102010806002B0601040181F206010279
:1002C000010807002B0601040181F2060102010862
:1002D00008002B0601040181F20601020108090051
:1002E0002B0601040181F206010201080A002B0617
:1002F00001040181F206010201080B002B06010432
:100300000181F206010201080C002B0601040181A3
:10031000F206010201080D002B0601040181F2061C
:10032000010201080E002B0601040181F206010200
:1003300001080F002B0601040181F20601020108E9
:1003400010002B0601040181F206010201081100D0
:100350002B0601040181F2060102010901111100BD
:100360001100000000000000000000110002121344
:10037000FFFE1415161ACDAB0000004F6E6C696EAF
:10038000652E0A000A002C20636865636B20726189
:10039000746520257520487A0025732025732C204C
:1003A0006368616E6E656C2025752C2070616E69C6
:1003B000642030782558004D4143206164647265A3
:1003C00073732025783A25783A25783A25783A25A6
:1003D000783A25783A25783A25780A0D00496E76DC
:1003E000616C696420454550524F4D2073657474AB
:1003F000696E67732064657465637465642E20524A
:100400006577726974696E672077697468206465BE
:100410006661756C742076616C7565732E0A000ACE
:100420000A2A2A2A2A2A2A2A426F6F74696E6720AA
:1004300025732A2A2A2A2A2A2A0A003332323131FB
:100440003030313233343537393237303631363176
:1004500035323232323232323232322563206973EF
:10046000206E6F7420612076616C6964206F7074F7
:10047000696F6E21206820666F72206D656E750A47
:100480000D00526573657474696E672E2E2E0A0D09
:1004900000456E746572696E6720444655204D6F45
:1004A00064652E2E2E0A0D00446F6E652E0A000A1A
:1004B000003A0023002025643A202530326464424B
:1004C00020000A002E00456E657267792053636133
:1004D0006E3A0A0020202A204E657665722D7573CB
:1004E000656420737461636B203E2025642062790B
:1004F0007465730A0D006163746976650A0D006E98
:100500006F74200020202A20436F6E666967757221
:100510006174696F6E3A2025642C205553423C2D3E
:100520003E455448206973200020202A20437572DC
:1005300072656E742F4C6173742F536D616C6C65B2
:10054000737420525353493A2025642F25642F2D6C
:100550002D64426D0A0D0020202A204375727265B9
:100560006E742F4C6173742F536D616C6C65737472
:1005700020525353493A2025642F25642F25646463
:10058000426D0A0D000A0D0020202A204F7065726E
:1005900061746573206F6E206368616E6E656C2098
:1005A0002564207769746820545820706F776572CD
:1005B000200020202A203830322E31352E3420459C
:1005C00055492D36343A20253032783A2530327864
:1005D0003A253032783A253032783A253032783A36
:1005E000253032783A253032783A253032780A0090
:1005F00020202A205553422045746865726E657428
:10060000204D41433A20253032783A253032783A2D
:10061000253032783A253032783A253032783A250A
:100620003032780A004F757470757420525332332B
:100630003220646562756720737472696E67730A2D
:100640000D006E6F7420004F7574707574207261A8
:1006500077203830322E31352E34206672616D6548
:10066000730A0D20202A2057696C6C20006E6F746D
:1006700020006465636F6D707265737320366C6FF4
:100680007770616E20686561646572730A0D202061
:100690002A2057696C6C20006E6F742000636861BB
:1006A0006E6765206C696E6B2D6C6F63616C206189
:1006B000646472657373657320696E736964652021
:1006C0004950206D657373616765730A0D20202A98
:1006D0002057696C6C20006E6F74200073656E6427
:1006E0002064617461206F7665722052460A0D2085
:1006F000202A2057696C6C20006E6F7420004375AF
:100700007272656E746C79204A61636B6461773ACA
:100710000A0D20202A2057696C6C2000526F7574D6
:10072000696E67207461626C6520636C65617265D7
:1007300064210A0D004C6F63616C20726570616901
:100740007220696E697469617465640A0D00476C92
:100750006F62616C20726570616972207265747578
:10076000726E732025640A0D000A0D2D2D2D2D2D7E
:100770002D2D2D2D0A0D0020203C6E6F6E653E0044
:10078000290A0D002920256C75730A0D002F257587
:10079000202876696120000A0D526F7574657320F8
:1007A0005B2575206D61785D0A0D0020203C6E6F21
:1007B0006E653E000A0D000A0D4E65696768626F3E
:1007C0007273205B2575206D61785D0A0D000A0D3E
:1007D000000A0D416464726573736573205B25754F
:1007E000206D61785D0A0D000A53656C65637420A5
:1007F0007472616E736D697420706F7765722028F2
:10080000303D2B3364426D2031353D2D31372E3252
:1008100064426D29205B25645D3A20000A53656CB3
:10082000656374203830322E31352E3420436861B0
:100830006E6E656C20696E2072616E676520313165
:100840002D3236205B25645D3A20004A61636B647B
:100850006177206E6F77206F757470757473206484
:100860006562756720737472696E67730A0D004A5A
:1008700061636B64617720646F6573206E6F7420B1
:100880006F75747075742064656275672073747217
:10089000696E67730A0D004A61636B646177206E4D
:1008A0006F77206361707475726573207261772051
:1008B0006672616D65730A0D004A61636B646177EE
:1008C00020646F6573206E6F74206361707475723D
:1008D0006520726177206672616D65730A0D004A4A
:1008E00061636B646177206E6F7720706572666FED
:1008F000726D7320366C6F7770616E207472616EEA
:10090000736C6174696F6E730A0D004A61636B6486
:10091000617720646F6573206E6F742070657266F6
:100920006F726D20366C6F7770616E207472616EBD
:10093000736C6174696F6E0A0D004A61636B646168
:1009400077206E6F7720696E206E6574776F726B9B
:10095000206D6F64650A0D00507265737320616EBF
:1009600079206B657920746F2073746F702E0A0D77
:10097000002A2A2A2A2A2A2A2A2A0A0D002A2A2A68
:100980002A2A2A2A2A2A6F6E206368616E6E656C95
:1009900020253264207769746820706F7765722033
:1009A000002A2A2A2A2A2A2A2A4A61636B64617742
:1009B00020697320636F6E74696E756F75736C79DF
:1009C0002062726F616463617374696E672A2A2A98
:1009D0002A2A2A2A0A0D002A2A2A2A2A5741524E4E
:1009E000494E4720526164696F206D6179206F76AE
:1009F00065726865617420696E2074686973206D22
:100A00006F64652A2A2A2A2A2A2A0A0D004A616363
:100A10006B646177206E6F77206265686176696EBE
:100A20006720697473656C662E0A0D004A61636BFA
:100A3000646177206E6F7720696E20736E696666D9
:100A40006572206D6F64650A0D004272696E676998
:100A50006E6720696E746572666163652075700AE1
:100A60000D004272696E67696E6720696E74657207
:100A70006661636520646F776E0A0D0008200800C8
:100A80000A0D5472616E736D697420706F776572B0
:100A900020756E6368616E6765642E0A0D000A0D2D
:100AA0005472616E736D697420706F776572206324
:100AB00068616E67656420746F2025642E0A0D00DE
:100AC00020000A0D496E76616C696420696E70754C
:100AD000740A0D00082008000A0D4368616E6E65F7
:100AE0006C20756E6368616E6765642E0A0D000A7E
:100AF0000D4368616E6E656C206368616E67656446
:100B000020746F2025642E0A0D000A0D496E76614F
:100B10006C696420696E7075740A0D002578003A5E
:100B2000003A3A002563256325632E256364426DF0
:100B3000002A2A2A2A2A2A2A2A2A2A2A2A2A2A2A3F
:100B40002A2A2A2A2A2A2A2A2A2A2A2A2A2A2A2A05
:100B50002A2A2A2A0A0D002A207072657373696E88
:100B60006720796F75722063686F696365206F6EA7
:100B7000206B6579626F6172642A0A0D002A204D2C
:100B8000616B652073656C656374696F6E20617459
:100B900020616E792074696D652062792020202A99
:100BA0000A0D002A20202020202020202020202084
:100BB0002020202020202020202020202020202035
:100BC00020202020202A0A0D002A2020682C3F20E7
:100BD00020202020205072696E7420746869732070
:100BE0006D656E75202020202020202A0A0D002A05
:100BF0002020522020202020202020526573657460
:100C00002028766961205744542920202020202064
:100C1000202A0A0D002A20204420202020202020E5
:100C20002053776974636820746F20444655206DA3
:100C30006F6465202020202A0A0D002A20206520CC
:100C400020202020202020456E6572677920536384
:100C5000616E20202020202020202020202A0A0D24
:100C6000002A202047202020202020202052504CE5
:100C700020476C6F62616C20526570616972202040
:100C80002020202A0A0D002A20204E20202020206B
:100C900020202052504C204E65696768626F727345
:100CA0002020202020202020202A0A0D002A202079
:100CB000532020202020202020456E61626C65207A
:100CC000736E65657A6572206D6F64652020202AD9
:100CD0000A0D002A202064202020202020202054DB
:100CE0006F67676C65205253323332206F757470B2
:100CF00075742020202A0A0D002A2020722020202E
:100D00002020202020546F67676C65207261772057
:100D10006D6F6465202020202020202A0A0D002AE3
:100D20002020362020202020202020546F67676C50
:100D30006520366C6F7770616E2020202020202087
:100D4000202A0A0D002A2020702020202020202088
:100D50002053657420524620706F776572202020E2
:100D6000202020202020202A0A0D002A2020632075
:100D700020202020202020536574205246206368C4
:100D8000616E6E656C20202020202020202A0A0D14
:100D9000002A20206E20202020202020205365744F
:100DA00020746F206E6574776F726B206D6F646551
:100DB0002020202A0A0D002A202073202020202015
:100DC00020202053657420746F20736E69666665F9
:100DD00072206D6F64652020202A0A0D002A2020D1
:100DE0006D20202020202020205072696E74206306
:100DF000757272656E74206D6F6465202020202AE4
:100E00000A0D0020202020202020205B4275696CE4
:100E1000742053657020313620323031335D20200C
:100E2000202020200A0D000A0D2A2A2A2A2A2A2AEE
:100E30002A2A2A2A204A61636B646177204D656EF5
:100E400075202A2A2A2A2A2A2A2A2A2A0A0D000151
:100E5000010100020101000301010004010100067B
:100E6000010100070101000A0101000B0101000C52
:100E70000101000D0101000E01010011010100142A
:100E8000010100160101000202010001010200023D
:100E90000102000301020004010200050102001B1F
:100EA000020100010101010201010103010101042C
:100EB0000101010501010101010201020102010319
:100EC000010201000101FD020101FD010101FD0618
:100ED0000101FD030101FD040101FD7261776D6FE8
:100EE00064650041746D656C00000000000A004DEF
:100EF000554C544943415354200042524F414443BE
:100F00004153542000444952454354454420004134
:100F10004C4C5F4D554C5449434153542000505262
:100F20004F4D495343554F555320006364635F65EC
:100F3000636D3A2052656365697665642053455454
:100F40005F45544845524E45545F5041434B4554CC
:100F50005F46494C5445523A202830782530345861
:100F600029200074637069705F697076365F6F75F1
:100F7000747075743A206E627220636163686520D4
:100F8000656E747279207374616C65206D6F76691B
:100F90006E6720746F2064656C61790A00746370F9
:100FA00069705F697076365F6F75747075743A201A
:100FB0006E627220636163686520656E7472792069
:100FC000696E636F6D706C6574650A0046414C4CC8
:100FD0004241434B3A2072656D6F76696E672065BA
:100FE0007874206864727320262073657474696E47
:100FF000672070726F746F2025642025640A008159
:1010000012010002EF020140EB0321200010010257
:10101000030109028D000481058032080B000202E1
:1010200002FF0B09040000010202FF0B052400105F
:101030000105240100000424020005240600010724
:1010400005830308000109040100020A00000007EB
:1010500005810240000107050202400001080B0261
:10106000020202011009040200010202011005241B
:1010700000100105240103030424020205240602D2
:1010800003070584032000FF09040300020A00008F
:10109000000705850220000107050602200001095E
:1010A000024300020106803209040000010202FF2F
:1010B0000B05240010010524010000042402000592
:1010C000240600010705830308000109040100024A
:1010D0000A000000070581024000010705020240E6
:1010E0000001090220000103078032090400000208
:1010F000020C070C07058303080001070581024065
:1011000000010902400002020880320904000000C8
:101110000206000D052400100105240600010D241F
:101120000F0400000000180500000009040100027F
:101130000A00000007058102400001070502024085
:10114000000109028A000482098032080B000202B1
:1011500006000D09040000000206000D0524001021
:101160000105240600010D240F04000000001805ED
:1011700000000009040100020A00000007058102C6
:1011800040000107050202400001080B02020202B2
:1011900001100904020001020201100524001001DF
:1011A00005240103030424020205240602030705A3
:1011B00084032000FF09040300020A000000070561
:1011C000850220000107050602200001040309042E
:1011D00030313233343536373839616263646566AD
:1011E0000041746D656C004A61636B646177203601
:1011F0004C6F5750414E2041646170746F720052C1
:101200004E4449532B446562756700524E4449531E
:10121000004344432D45454D004344432D45434D34
:10122000004344432D45434D2B444542554700441C
:101230006562756720506F72740011241FBECFEF76
:10124000D0E2DEBFCDBF04B603FE39C014BE80912C
:101250002A5590912B55A0912C55B0912D558A3C33
:101260002CEA920722E4A2072CEDB207A1F4109217
:101270002A5510922B5510922C5510922D5588E11D
:101280000FB6F89480936000109260000FBEE0E00B
:10129000F0EF099520C080912A5590912B55A0918F
:1012A0002C55B0912D550196A11DB11D80932A5545
:1012B00090932B55A0932C55B0932D550CC086ECD4
:1012C0009CEAA2E4BCED80932A5590932B55A09301
:1012D0002C55B0932D5517E3A0E0B1E2E2E7F5E914
:1012E00001E00BBF02C007900D92A43CB107D9F7F3
:1012F00015E5A4ECB7E301C01D92AA32B107E1F7EE
:101300000E94D94E0C94B7CA0C940000CF93DF937F
:10131000EC0188819981009721F08F349105F9F4CF
:101320000FC080E091E20E9482C784EC97E364ECF6
:1013300079E00E94A60A8FE490E09983888313C025
:1013400084EC97E30E94D10A009769F084EC97E35C
:101350000E94B10A80E291E20E9482C7ECCF19821A
:10136000188283E001C081E0DF91CF9108958091E0
:10137000CC379091CD37009729F41092CF37109247
:10138000CE3708950E94386FE091CC37F091CD3779
:101390002281338140815181240F351F281B390B55
:1013A0000CC04281538160817181460F571F481BD9
:1013B000590B4217530708F49A010480F581E02D78
:1013C000309779F7280F391F3093CF372093CE37D6
:1013D000089584E791E20E943C910895CF92DF92B4
:1013E000EF92FF920F931F93CF93DF937C01FC0149
:1013F00080819181009729F08A35910509F06EC0AE
:101400000BC01092CD371092CC378AE590E0F701EF
:101410009183808381E066C0673849F5CA01E09115
:10142000CC37F091CD3703C00480F581E02D3097A3
:1014300041F32681378128173907B1F3E093CC3780
:10144000F093CD370FC016962D913C911797281722
:10145000390739F414962D913C91159735832483DF
:10146000DF01FD01A481B581109769F7CECF623805
:1014700061F6C091CC37D091CD3700E010E02BC0A1
:10148000CE010E9426920097F1F08E819F8168E83C
:10149000AE010E94E7900097A1F41F821E828C810A
:1014A0009D810115110521F0F8019583848304C005
:1014B0009093CD378093CC371D821C820E94B70950
:1014C000D8CF0E94E9098E019C818D81C92EE60149
:1014D0006E01D82EE601209799F697CFF701118279
:1014E000108283E0DF91CF911F910F91FF90EF90D9
:1014F000DF90CF900895CF93DF93EC010E94E9092C
:101500008E819F81009769F0E091CC37F091CD37C3
:1015100006C0EC17FD07A9F00480F581E02D309797
:10152000C1F780919B3B90919C3B9F838E838091E0
:10153000CC379091CD379D838C83D093CD37C0939A
:10154000CC370E94B709DF91CF910895CF93DF93F5
:10155000EC010E940692CE010E947B0ADF91CF919E
:101560000895CF93DF93EC010E941292CE010E9466
:101570007B0ADF91CF910895CF93DF93EC010E9416
:101580001C92CE010E947B0ADF91CF910895FC014D
:1015900080819181860F971F918380830E94B70974
:1015A000089521E030E0FC0186819781009711F0D9
:1015B00020E030E0C9010895FC012281338180815F
:1015C0009181280F391FC9010895FC018081918103
:1015D000089521E030E08091CC379091CD3700978D
:1015E00011F420E030E0C90108958091CC3790914A
:1015F000CD37009729F02091CE373091CF3702C0F8
:1016000020E030E0C9010895CF93DF93EC01E09131
:10161000CC37F091CD378E179F0741F48C819D8197
:101620009093CD378093CC3714C0FC01309731F0C4
:10163000848195818C179D07C1F707C01D821C828C
:101640001F821E82DF91CF9108958C819D819583A9
:1016500084830E94B709F2CFEF92FF920F931F93FA
:10166000DF93CF93CDB7DEB7C65ED1400FB6F89407
:10167000DEBF0FBECDBF9091A44F891709F04EC0B9
:101680008091FF4E81FF4AC04091D0375091D137B1
:10169000CA01A1E0BAE420E10D90FC010192CF0162
:1016A0002150D1F78091214A9091224ADA01539634
:1016B0009C938E9352976091DF497091E04983E04B
:1016C000E82EF12CEC0EFD1E8091044F9091054FF9
:1016D000A7019E012F5F3F4F04EE11E00E94970C7F
:1016E000E091D037F091D137882339F0138A128AEC
:1016F00080E111928A95E9F711C049815A81CF01A1
:10170000B7010E9417A0E091D037F091D13780E166
:10171000DF011D928A95E9F7138A128ACA51DE4FBA
:101720000FB6F894DEBF0FBECDBFCF91DF911F91F2
:101730000F91FF90EF90089580E090E00E94E1C942
:10174000AB01BC014F3F8FEF58078FEF68078FE762
:10175000780740F44F5F5F4F6F4F7F4F80E090E01E
:101760000E94EDC980E008950E94386F2091D8450D
:101770003091D945821B930B6AE070E00E9489C4C6
:1017800080E090E0089580E090E00E94E1C9089533
:10179000E0E0F1E220E030E0A90108C0B291A291BE
:1017A00092918291282739274A275B2785E5E233E2
:1017B000F807A0F7B901CA010895CF93DF93EC01B0
:1017C000862F288139812115310531F091E02833A8
:1017D000390709F040C03BC00E94386F9093D9454B
:1017E0008093D84580E090E060E070E040E050E019
:1017F0000E94CA9D9093D1378093D03720E031EA80
:10180000FC01318B208B0E949C0B0E94C80B0E9414
:10181000A6C60E94A1C66093D0457093D14580931F
:10182000D2459093D3450E94A1C66093D44570934E
:10183000D5458093D6459093D7450E94E04B8F3F86
:1018400051F088E391E09983888381E007C0BA0171
:101850000E942C0BF6CF1982188283E0DF91CF9182
:1018600008952091D0453091D1454091D245509175
:10187000D3452F5F3F4F4F4F5F4F2093D04530935D
:10188000D1454093D2455093D345B901CA0108953B
:101890002091D4453091D5454091D6455091D745BA
:1018A0002F5F3F4F4F4F5F4F2093D4453093D54527
:1018B0004093D6455093D745B901CA010895609128
:1018C000DE377091DF378091E0379091E1370895EE
:1018D0006091D2377091D3378091D4379091D537BA
:1018E00008956091D6377091D7378091D83790910D
:1018F000D93708956091DA377091DB378091DC3702
:101900009091DD3708958091DA379091DB37A0917F
:10191000DC37B091DD370196A11DB11D8093DA3718
:101920009093DB37A093DC37B093DD3708952F9287
:101930003F924F925F926F927F928F929F92AF925F
:10194000BF92CF92DF92EF92FF920F931F93DF939C
:10195000CF9300D000D000D0CDB7DEB75C017B01C3
:101960002A01190138018091DE379091DF37A0916B
:10197000E037B091E1370196A11DB11D8093DE37AC
:101980009093DF37A093E037B093E13700D000D0D9
:1019900000D024E831E2EDB7FEB7328321838383A0
:1019A0009483A583B6830E9450C78DB79EB70696D1
:1019B0000FB6F8949EBF0FBE8DBF95EEE91691E06D
:1019C000F90608F0CDC01A821982C501B7014E018F
:1019D0000894811C911CA4010E949B19882351F436
:1019E000C501B701A4019E012D5F3F4F0E94EA1976
:1019F0008823C1F085E991E20E9482C78091D637A1
:101A00009091D737A091D837B091D9370196A11DC1
:101A1000B11D8093D6379093D737A093D837B09322
:101A2000D9379EC08B819C81AD81BE818330910569
:101A3000A105B10551F582E390E00E94BFC4192FC2
:101A4000C82ED92EE82FF92F82E3DF011D928A9547
:101A5000E9F783E0F601808380ED91E20E9482C77E
:101A6000C501B701A4012C2D312F0E94B30E992777
:101A700087FD9095A92FB92F8B839C83AD83BE835F
:101A80000097A105B10569F543C08091D2379091C7
:101A9000D337A091D437B091D5370196A11DB11D90
:101AA0008093D2379093D337A093D437B093D53760
:101AB00000D000D0EDB7FEB7319689EF91E2ADB717
:101AC000BEB712969C938E931197809100008283EB
:101AD00013820E9450C70F900F900F900F9081E0DB
:101AE00042C08091D6379091D737A091D837B09126
:101AF000D9370196A11DB11D8093D6379093D73762
:101B0000A093D837B093D937C6010E948D2128C041
:101B1000C6010E944215F60180818330B1F483E250
:101B200092E20E9482C78C2D912FB201A1019501F2
:101B3000870173010E947D0F992787FD9095A92F3A
:101B4000B92F8B839C83AD83BE83C6010E948D21F8
:101B50008B819C81AD81BE810097A105B10511F0FB
:101B60008FEF01C080E026960FB6F894DEBF0FBE5F
:101B7000CDBFCF91DF911F910F91FF90EF90DF903C
:101B8000CF90BF90AF909F908F907F906F905F901D
:101B90004F903F902F9008954F925F926F927F9257
:101BA0008F929F92AF92BF92CF92DF92EF92FF926D
:101BB0000F931F93DF93CF9300D0CDB7DEB75C01B7
:101BC0006B012A01A90198013701FA82E9828C018F
:101BD0000F5F1F4FCB014E010894811C911CB40173
:101BE0000E940120F50146895789208D318DC6015B
:101BF000B4010E941E1F87FDA0C0F50142895389D0
:101C000024893589C601B4010E941E1F87FD95C035
:101C100089819A819301281B390BC601B40140E3E5
:101C20000E943D1D87FD89C0C501B601A301940135
:101C30000E940B1487FD81C0E980FA80C601B401BF
:101C400042E003E010E020E030E00E94F91D87FD53
:101C500074C089819A8101979A83898397FD6DC0A9
:101C60008C0D9D1DF5012189FC012083C601B40165
:101C700044E021E030E00E943D1D87FD5EC0C601CA
:101C8000B40142E004EE11E020E030E00E94F91DD2
:101C900087FD53C0F5010585168527853089C60166
:101CA000B40142E00E94F91D87FD47C089819A81F5
:101CB0009701281B390BC601B40140E30E943D1D6A
:101CC00087FD3BC0F501008110E020E030E0C60157
:101CD0004E010894811C911CB40142E00E94F91D40
:101CE00087FD2BC089819A819301281B390BC6017E
:101CF000B40140E30E943D1D87FD1FC069817A81C8
:101D0000A301461B570BF20151834083F5018189E2
:101D100080FF05C06C0D7D1DC5010E9411156981F4
:101D20007A81161617065CF46C0D7D1DF201408158
:101D30005181C6010E9403C702C08FEF01C080E03D
:101D40000F900F90CF91DF911F910F91FF90EF9027
:101D5000DF90CF90BF90AF909F908F907F906F90CB
:101D60005F904F9008956F927F928F929F92AF9263
:101D7000BF92CF92DF92EF92FF920F931F93DF9368
:101D8000CF93CDB7DEB727970FB6F894DEBF0FBE5F
:101D9000CDBF6C015B017A0149018E010E5F1F4FBF
:101DA00098010E94CF1987FD92C084E0682E712CA3
:101DB0006C0E7D1EC601B501A70193010E94EA19B0
:101DC00087FD85C08C819D81AE81BF81F4018587AF
:101DD0009687A787B08BC601B501A70193010E9422
:101DE000EA1987FD74C0C601B501A7019E012F5FE6
:101DF0003F4F0E947A1987FD6AC08981843009F0BB
:101E000066C08A819B818130910509F060C0D7014D
:101E1000ED91FC911197EC0DFD1D8081F401818BFA
:101E20008D919C911197019611969C938E93818927
:101E300080FD02C081FD4BC0C601B501A7019E0116
:101E40002C5F3F4F0E94EA1987FD41C08C819D8124
:101E5000AE81BF8183309105A105B105C1F5C601F1
:101E6000B501A70194010E9403118F3F81F18330D6
:101E700061F1C601B501A7019E012E5F3F4F0E948F
:101E8000CF1987FD24C094012E5E3F4F84010C5E64
:101E90001F4FC601B501A7010E94E31A87FD17C0B5
:101EA00094012A5E3F4F8401085E1F4FC601B501B1
:101EB000A7010E94E31A87FD0AC094012F5F3F4FDC
:101EC000C601B501A7010E94331C80E001C08FEF5D
:101ED00027960FB6F894DEBF0FBECDBFCF91DF912E
:101EE0001F910F91FF90EF90DF90CF90BF90AF9038
:101EF0009F908F907F906F9008952F923F924F9276
:101F00005F926F927F928F929F92AF92BF92CF9289
:101F1000DF92EF92FF920F931F93CF93DF93EC0129
:101F20004B013A01290189898370898B0E94A02184
:101F3000FC0180819181A281B3818A8B9B8BAC8BC8
:101F4000BD8BCE01B401A30192010E94CC0D882368
:101F500079F029843A841A86198681E08F8318865D
:101F6000CE01B401A30192010E94CC0D3A862986CC
:101F700080E0DF91CF911F910F91FF90EF90DF9064
:101F8000CF90BF90AF909F908F907F906F905F9019
:101F90004F903F902F9008954F925F926F927F9253
:101FA0008F929F92AF92BF92CF92DF92EF92FF9269
:101FB0000F931F93DF93CF93CDB7DEB7C859D040AF
:101FC0000FB6F894DEBF0FBECDBF3C012B015A0106
:101FD0008E010F5F1F4F80E4F80111928A95E9F797
:101FE0000E94A821F801282F392FD90180E10D90F6
:101FF00001928150E1F78E010F5F1F4F91E4892E0E
:10200000912C8C0E9D1EF80196E380818927819387
:10201000E815F905D1F781E4E82EF12CEC0EFD1E50
:10202000C7010E944132C7016E010894C11CD11C36
:10203000B60140E450E00E946B32C701B301A20137
:102040000E946B32C701B5010E94333380E4F60170
:1020500011928A95E9F70E94A821F601282F392FBD
:10206000D90180E10D9001928150E1F79CE5F801E2
:102070008081892781938F01E815F905C1F78E01C9
:102080000F5B1F4FC8010E944132C801BE016F5F44
:102090007F4F40E450E00E946B32C801B50140E13F
:1020A00050E00E946B32C801B5010E943333C8561C
:1020B000DF4F0FB6F894DEBF0FBECDBFCF91DF91DB
:1020C0001F910F91FF90EF90DF90CF90BF90AF9056
:1020D0009F908F907F906F905F904F900895EF92B8
:1020E000FF920F931F93CF93DF93EC018B017A0143
:1020F000FA0180819181A281B3810196A11DB11D58
:1021000080839183A283B383898982FF2FC0CE010C
:1021100001960E944D218CE492E20E9482C7898937
:1021200080FF06C081E0898B8FE592E20E9482C722
:1021300088EA8A8380E090E00E9429219A87898733
:102140000097A1F0FC0111830083E985FA8581E401
:102150008283E985FA85E70188819981AA81BB811B
:1021600083839483A583B68380E001C08FEFDF91E2
:10217000CF911F910F91FF90EF9008958F929F92B2
:10218000AF92BF92CF92DF92EF92FF920F931F9385
:10219000DF93CF93CDB7DEB7C55FD0400FB6F894CD
:1021A000DEBF0FBECDBF6B014A0159017801198214
:1021B0001A821B821C828E010B5F1F4FB8010E9486
:1021C0001B3BC401B501A701980186017E0108945B
:1021D000E11CF11CCC24C3940E94CC3A80E0CB508B
:1021E000DF4F0FB6F894DEBF0FBECDBFCF91DF91AA
:1021F0001F910F91FF90EF90DF90CF90BF90AF9025
:102200009F908F9008952F923F924F925F926F927E
:102210007F928F929F92AF92BF92CF92DF92EF9276
:10222000FF920F931F93DF93CF93CDB7DEB7CA50C2
:10223000D1400FB6F894DEBF0FBECDBF2C014B01CD
:102240003A017901B2E0CB2ED12CCC0EDD1E9E01DD
:102250002F5F3F4F86010E947A1987FDB0C28981A6
:10226000843009F0ACC2C201B401A30196010E94FE
:10227000CF1987FDA4C29701265E3F4F8701045EF8
:102280001F4FC201B401A3010E94E31A87FD97C248
:102290009701225E3F4FC201B401A3010E94EA19D7
:1022A00087FD8DC297012E5D3F4FC201B401A3018E
:1022B0000E94EA1987FD83C297012A5D3F4F87017B
:1022C000085D1F4FC201B401A3010E94E31A87FDFC
:1022D00076C29701265D3F4F8701045D1F4FC20103
:1022E000B401A3010E94E31A87FD69C29701225D30
:1022F0003F4F8701005D1F4FC201B401A3010E943F
:10230000E31A87FD5CC2D70151968C91519781FFEA
:1023100073C2C201B401A3019E012F5F3F4F86012A
:102320000E947A1987FD4BC28981843009F047C227
:10233000F301808191819401281B390BC9012A8105
:102340003B812817390709F03AC256C2D7015A967D
:102350000D911C915B970E94A021FC01C080D1804F
:102360000E94A021DC0112964D915C911397C80147
:10237000B6010E94EDC6009761F0C70168E775E2FB
:102380004EED55E40E946F1087FD19C282E792E27C
:102390002AC0F70100A511A50E94A321DC010D9020
:1023A0000020E9F71197A81BB90B0A171B0781F446
:1023B000D70196960D911C9197970E94A321BC017D
:1023C000F70140A551A5C8010E94EDC6009771F024
:1023D000C7016AE675E24AEE55E40E946F1087FD78
:1023E000EEC185E992E20E9482C7EBC1D701519606
:1023F0008C91519780FD03C086EB92E280C1F7017A
:1024000084A595A58C30910569F532A523A5DE013B
:102410001696A901852F942FFC018CE001900D9256
:102420008150E1F7E32FF22F8CE0DF011D928A95B6
:10243000E9F78E010A5E1F4FC201B401A8010E9494
:10244000CC0FCE010696B8014CE050E00E94EDC6DC
:10245000009741F082EE92E20E9482C78EE093E202
:102460000E9482C70E94B40B00D000D000D027E4A5
:1024700033E2EDB7FEB732832183A4E6AA2EB12C56
:10248000C12CD12CA60195010E949DC4ADB7BEB749
:1024900013962D933D934D935C9316970E9450C7CE
:1024A00084E793E2EDB7FEB792838183F70182A1BF
:1024B00093A1A4A1B5A1EDB7FEB783839483A583AF
:1024C000B6830E9450C7D70192968D919D910D9031
:1024D000BC91A02DC95FDE4F88839983AA83BB83FB
:1024E000C750D140EDB7FEB736960FB6F894FEBF91
:1024F0000FBEEDBF0E94B40B00D000D000D02BE87F
:1025000033E2ADB7BEB712963C932E931197A60156
:1025100095010E949DC4C95FDE4F88819981AA817F
:10252000BB81C750D140821B930BA40BB50BEDB7F9
:10253000FEB783839483A583B6830E9450C7D701D7
:1025400092960D911C919397EDB7FEB736960FB604
:10255000F894FEBF0FBEEDBF0E94B40B00D000D0B8
:102560002DB63EB60894211C311C20EB33E2ADB7EA
:10257000BEB712963C932E931197A60195010E9427
:102580009DC4021B130B17FF03C0109501951F4F2D
:10259000F101138302830E9450C7D70192960D91D7
:1025A0001C9193970F900F900F900F900E94B40B77
:1025B00000D000D0CDB6DEB60894C11CD11C2CEDE5
:1025C00033E2EDB7FEB73283218324E630E040E00A
:1025D00050E00E949DC4021B130B17FF03C010950F
:1025E00001951F4F81E090E00739110514F480E058
:1025F00090E0D60113969C938E9312970E9450C739
:102600000F900F900F900F90F701868D978DA0A1DE
:10261000B1A10097A105B10521F489E194E20E94DE
:1026200082C7D7015E96AD90BD90CD90DC9091971A
:102630000E94C30BA616B706C806D90621F08EE481
:1026400094E20E9482C7F70102A113A10E94B40B79
:10265000061B170B17FF03C0109501951F4F063976
:10266000110524F482EA94E20E9482C70E94C30BFF
:102670006F3FFFEF7F07FFEF8F07FFE79F0720F018
:1026800085EF94E20E9482C7D7015E96AD90BD901F
:10269000CD90DC9091970E94C30BA616B706C80692
:1026A000D906F9F4F70102A113A10E94B40B24E6A4
:1026B00030E040E050E00E949DC4021B130B17FF66
:1026C00003C0109501951F4F0739110554F40E945E
:1026D000C30B6F3FFFEF7F07FFEF8F07FFE79F07FA
:1026E00030F0C7016CE575E246EE55E41BC0D7013A
:1026F00051968C91519781FD0AC08DE295E20E941E
:1027000082C7C70161EA75E24EEE55E40BC0F701DE
:1027100080A991A98830910551F0C70164E975E25B
:102720004AED55E40E946F1087FF4BC048C0D701A7
:102730005E964D915D916D917C919197CE0106963B
:102740000E949A21F70142A153A164A175A1CE0173
:102750000A960E949A21DE011E96F70136A527A54A
:10276000832F922FFC0188E001900D928150E1F7B8
:102770000E94AB21D3010D911C917201E00EF11E5C
:102780001A821B821C821D82F6E1CF2ED12CCC0E28
:10279000DD1EB6010E941B3BA401401B510BC7016B
:1027A000B70196018E010A5F1F4FE2E0EE2EF12C79
:1027B000EC0EFD1ECC240E94CC3A80E003C08FEFCB
:1027C00001C083E0C65FDE4F0FB6F894DEBF0FBED8
:1027D000CDBFCF91DF911F910F91FF90EF90DF90D0
:1027E000CF90BF90AF909F908F907F906F905F90B1
:1027F0004F903F902F900895F701048D158D0E9402
:10280000A021DC0112968D919C911397081719074E
:1028100009F49CCDB2CD8F929F92AF92BF92CF928E
:10282000DF92EF92FF920F931F93DF93CF93CDB779
:10283000DEB760970FB6F894DEBF0FBECDBF7C0148
:102840005B014A0169010E94A021FC018081918104
:10285000A281B381F701828F938FA48FB58F0E94DD
:10286000C30BF701668F778F80A391A30E94B40BEF
:1028700024E630E040E050E00E949DC4F70122A32E
:1028800033A344A355A3818981FF50C0468D578D42
:1028900060A171A1CE0101960E949A21F70142A187
:1028A00053A164A175A1CE0105960E949A21F7015A
:1028B00006A517A50E94310CAB01BC01C8010E94FE
:1028C0009A21F70106A517A50E94480CAB01BC018F
:1028D000C8010E949A21DE011996F70136A527A5A5
:1028E000832F922FFC0188E001900D928150E1F737
:1028F0000E94AB21F601408151819501240F351FC3
:102900008401041B150BBE016F5F7F4FA9010E945C
:10291000BE10F601808191819401281B390BC501FD
:10292000B60144E00E943D1D87FD67C0F60180802E
:102930009180F70146A557A520A931A9C501B60187
:102940000E941E1F87FD59C0F70142A553A524A56B
:1029500035A5C501B6010E941E1F87FD4EC0F601B8
:102960008081918102968A0D9B1DF70193A782A712
:1029700046A157A120A531A5C501B6010E941E1F81
:1029800087FD3BC0F70102A113A124A135A1C50118
:10299000B60142E00E94F91D87FD2FC0F701068DA8
:1029A000178D20A131A1C501B60142E00E94F91D99
:1029B00087FD23C0F701428D538D248D358DC501D0
:1029C000B6010E941E1F87FD18C0F601808191810B
:1029D0009401281B390BC501B60140E30E943D1D3F
:1029E00087FD0BC0F601808191819401281B390B72
:1029F000C501B60144E00E943D1D80E060960FB61F
:102A0000F894DEBF0FBECDBFCF91DF911F910F9124
:102A1000FF90EF90DF90CF90BF90AF909F908F90FE
:102A20000895EF92FF920F931F93DF93CF93CDB74B
:102A3000DEB760970FB6F894DEBF0FBECDBF8C0136
:102A4000CB01BA017E010894E11CF11CA7010E9490
:102A5000CC0FF80132A523A5832F922FDC01F701BB
:102A60008CE001900D928150E1F760960FB6F894DA
:102A7000DEBF0FBECDBFCF91DF911F910F91FF90B1
:102A8000EF9008954F925F927F928F929F92AF92B4
:102A9000BF92CF92DF92EF92FF920F931F93DF933B
:102AA000CF93CDB7DEB727970FB6F894DEBF0FBE32
:102AB000CDBF8C01FC018781882309F0BCC08181D6
:102AC000813A29F1823A20F4803A09F0B9C006C06F
:102AD000833AD1F1883A09F0B3C0B0C0F801E1847B
:102AE000F284CC24DD240FC00894C11CD11CC70182
:102AF0000E941B17009721F4F80180818823C9F0F8
:102B0000F701E780F084E114F10471F794C0F80153
:102B1000E184F284CC24DD2413C00894C11CD11CB0
:102B2000C7010E94B017009741F4F8018081882303
:102B300021F482E08783C0867EC0F701E780F084BD
:102B4000E114F10451F777C0F801C184D2847724ED
:102B500088249924EE24FF242E010894411C511C42
:102B600044C07394D201F60187E001900D92815028
:102B7000E1F7C2010E941B175C01009731F4F801D4
:102B80008081882349F582E029C0E114F10441F4F1
:102B900080E090E0B5010E94FF207C014C0105C05F
:102BA000C401B5010E94FF204C019B81F601828186
:102BB000981741F0F8018081882311F483E00EC05A
:102BC00087E00BC0F501808187FF0CC0F801808190
:102BD000882311F484E002C081E1F8018783F801C1
:102BE000708607C0F601C780D084C114D10409F0F3
:102BF000B8CFF80187818823D9F4C184D2845701E2
:102C0000882413C08394F50180819181B6010E94CC
:102C10008118882321F0F8018783808609C0F60196
:102C2000C780D084F501A280B380C114D10451F7CC
:102C3000C7010E941A2182EAF801828380E001C064
:102C40008FEF27960FB6F894DEBF0FBECDBFCF91A2
:102C5000DF911F910F91FF90EF90DF90CF90BF9089
:102C6000AF909F908F907F905F904F900895FC0160
:102C70008091E4379091E537009759F4F093E53768
:102C8000E093E437F093E737E093E637178616864C
:102C90000895A091E637B091E7371F96FC93EE9325
:102CA0001E9717861686F093E737E093E637089568
:102CB000AF92BF92CF92DF92EF92FF920F931F934A
:102CC000DF93CF9300D0CDB7DEB76C0159014A83B3
:102CD00069830E944221FC0180E1DF011D928A95F7
:102CE000E9F74A816981309709F444C01187008768
:102CF000F586E486138612866083A114B10491F1EF
:102D0000403471F0413438F4443051F04630F9F039
:102D1000423041F511C0443478F0443419F517C0FD
:102D2000D5010D900020E9F71197AA19BB09B783C7
:102D3000A683B582A48216C0D5010D911D912D9157
:102D40003C91139704831583268337830BC0D501E9
:102D500012968D919C911397978386838D919C9168
:102D600095838483D282C1824383CF010E94371628
:102D700080E001C08FEF0F900F90CF91DF911F91F6
:102D80000F91FF90EF90DF90CF90BF90AF9008959C
:102D9000CF92DF92EF92FF920F931F93CF93DF9327
:102DA0006C018B01EA01790161157105E1F0209751
:102DB000D1F00E944221FC010097A9F0D282C18289
:102DC00011870087D387C287E114F10419F0F586D3
:102DD000E48602C080E8808385E08383CF010E947F
:102DE000371680E001C08FEFDF91CF911F910F91D7
:102DF000FF90EF90DF90CF9008958091E43790910D
:102E0000E5379093E3378093E237089581E020918E
:102E1000E2373091E3372115310509F080E008955C
:102E2000E091E237F091E337868597859093E33719
:102E30008093E23708950F931F93CF93DF93EC01B4
:102E40000E94FD1651C0818192810E94AD208C01AB
:102E5000E091E237F091E33782859385009751F551
:102E600088819981DC0112962D913C91139702176C
:102E7000130731F4618172810E94B1200097D9F16A
:102E800088819981A80141505040FC012281338101
:102E90002F5F3F4F2417350768F0E091E237F0913C
:102EA000E33761817281402F41500E94C520009715
:102EB00009F440C0E091E237F091E33782859385D1
:102EC000009781F088819981DC0112962D913C91C7
:102ED00013970217130730F4618172810E94B120A9
:102EE000009749F00E941017E091E237F091E33724
:102EF000309709F0A8CF8091E2379091E33700979F
:102F000029F480E88A83E0E0F0E024C0DC01189630
:102F1000ED91FC911997309779F0A881B9816D9165
:102F20007C911197600F711F12964C91401B09956F
:102F30008F3F11F481E8E6CFE091E237F091E3377B
:102F400024813581468157812B833C834D835E8369
:102F500083818A83CF01DF91CF911F910F910895D3
:102F6000EF92FF920F931F93CF93DF93EC010E9498
:102F7000FD168AC061817281888199810E94B12089
:102F80008C01E091E237F091E337818192810E94D8
:102F9000AD207C018091E2379091E337DC011A96F5
:102FA000ED91FC911B973097F1F417FD0CC00115C2
:102FB000110509F067C0E881F981228133812E155E
:102FC0003F0508F05FC0FC016181728188819981B1
:102FD00040E00E94D720E881F981808191810097AB
:102FE00009F059C084C0101611060CF44BC001152D
:102FF000110561F4A881B9816D917C9111976E0DD5
:103000007F1D12964C9112974E1903C060E070E03C
:1030100040E009958C010097A9F1E091E237F09129
:10302000E33761817281DC0112964C914E0D8881EB
:1030300099810E94D720E881F98120813181211571
:10304000310509F454C02E0D3F1DF80160817181D6
:1030500042815381C9010E94FAC6E881F9818281C7
:103060009381D80112962D913C911397820F931F53
:10307000938382838D919C910E9459C5C8010E94BF
:10308000A82009C00E941017E091E237F091E337C1
:10309000309709F06FCF8091E2379091E337009736
:1030A00019F482E88A8323C0DC011896ED91FC9123
:1030B0001997309769F0A881B9816D917C9111972A
:1030C0006E0D7F1D12964C914E1909958F3F79F028
:1030D000E091E237F091E3372481358146815781D1
:1030E0002B833C834D835E8383818A8302C0E0E02F
:1030F000F0E0CF01DF91CF911F910F91FF90EF9002
:103100000895CF92DF92EF92FF920F931F93DF9378
:10311000CF9300D0CDB7DEB77C018B01FC01C48416
:10312000D584C114D104D1F0FB01A081B181FC018F
:1031300081819281FC01828193816D917C911197B3
:10314000680F791F12964C91481BF8010381148176
:1031500025813681C701F601099549C0FB018281AD
:10316000863071F0873028F4823091F18430E1F5B7
:1031700007C0803429F08034B8F18434A8F528C021
:10318000F701808186FF06C084819581009711F048
:103190000E9459C5F80145815681F701468357833E
:1031A000F8018581968149835A830E94BFC4F70143
:1031B0009583848349815A810097C1F0F801638126
:1031C00074810E94FAC6F7018081806480830AC0FE
:1031D000F80183819481A581B681F7018483958369
:1031E000A683B78380E003C083E001C08FEF0F9018
:1031F0000F90CF91DF911F910F91FF90EF90DF9093
:10320000CF900895FA01408151814617570700F584
:10321000840F951FDC018C91853448F4803478F458
:103220008130C0F0873058F08033A1F408C0803A74
:1032300088F0843A20F0982F955A933058F4D901A9
:103240008C938081918101969183808380E00895A1
:103250008FEF08958FEF08950F931F93CF93DF9310
:10326000DA01E9012D913C91119726173707E0F516
:10327000AC01420F531FFA01408147FD0AC0488349
:1032800019828D919C911197019611969C938E9322
:1032900027C04F772F5F3F4F11963C932E934330BB
:1032A00008F5198218821AC02D913C91119741504E
:1032B00026173707C8F4280F391FF9012081188114
:1032C00000E0F801E20FF11DF983E8832D913C91B4
:1032D00011972F5F3F4F11963C932E93442321F774
:1032E00080E003C081E001C08FEFDF91CF911F919B
:1032F0000F910895CF92DF92EF92FF920F931F9359
:10330000CF93DF93EC017B016A010E9402198F3F8A
:1033100041F0CE01B701A60198010E942C1980E06E
:1033200001C08FEFDF91CF911F910F91FF90EF9030
:10333000DF90CF900895CF92DF92EF92FF920F939C
:103340001F93DF93CF9300D00F92CDB7DEB76B0101
:103350007A019E012F5F3F4F8E010E5F1F4F0E942B
:103360007A1987FD0DC08981803351F4F70180817E
:103370009181C81AD90A8A819B818C159D0511F00B
:103380008FEF01C080E00F900F900F90CF91DF91F1
:103390001F910F91FF90EF90DF90CF9008950F93C2
:1033A0001F93DF93CF930F92CDB7DEB789019E01B4
:1033B0002F5F3F4F0E947A1987FD03C089818033B8
:1033C00011F08FEF01C080E00F90CF91DF911F913E
:1033D0000F9108958F929F92AF92BF92CF92DF92FA
:1033E000EF92FF920F931F93DF93CF9300D00F9232
:1033F000CDB7DEB76C014B017A0159019E012F5FF9
:103400003F4F8E010E5F1F4F0E947A1987FD58C0F3
:103410008981823009F054C08A819B81009709F428
:103420004FC0D7012D913C9111970197820F931FA7
:103430008815990508F044C02C0D3D1DF9018081C7
:1034400087FF03C06FEF70E002C060E070E070E0E3
:1034500080E090E021E031E0A9010E946AC4D5013A
:103460006D937D938D939C9313971FC0D701ED911E
:10347000FC91EC0DFD1D2081F50180819181A281DF
:10348000B381BA2FA92F982F8827820F911DA11DD4
:10349000B11D80839183A283B383D7018D919C91C9
:1034A0001197019611969C938E938A819B819C0122
:1034B000215030403B832A830097C1F680E001C051
:1034C0008FEF0F900F900F90CF91DF911F910F9181
:1034D000FF90EF90DF90CF90BF90AF909F908F9034
:1034E00008958F929F92AF92BF92CF92DF92EF9208
:1034F000FF920F931F93DF93CF9300D00F92CDB71E
:10350000DEB74C016B017A0159019E012F5F3F4FDD
:103510008E010E5F1F4F0E947A1987FD43C089817B
:10352000823409F03FC06A817B8161157105D1F158
:10353000CB010197D7012D913C911197820F931FD9
:103540008C159D0578F5F501108211821282138287
:1035500024C0D701ED91FC91E80DF91D808190E028
:10356000A0E0B0E0F5012081318142815381542FE8
:10357000432F322F2227822B932BA42BB52B808312
:103580009183A283B383D7018D919C91119701966A
:1035900011969C938E936150704061157105C9F628
:1035A00080E001C08FEF0F900F900F90CF91DF91CF
:1035B0001F910F91FF90EF90DF90CF90BF90AF9051
:1035C0009F908F9008956F927F928F929F92AF926B
:1035D000BF92CF92DF92EF92FF920F931F93DF93F0
:1035E000CF930F92CDB7DEB74C015B017A01390161
:1035F00068019E012F5F3F4F0E947A1987FD22C00C
:1036000089818430F9F4F70120813181C901019762
:10361000F60140815181840F951F8A159B0590F416
:10362000820E931EF30191828082F7018081918145
:10363000F60120813181820F931FF70191838083EE
:1036400080E001C08FEF0F90CF91DF911F910F911C
:10365000FF90EF90DF90CF90BF90AF909F908F90B2
:103660007F906F900895CF93DF93FA0110821182BB
:1036700012821382A82FB92F80E01AC0ED01208199
:1036800031814281538197E0220F331F441F551F20
:103690009A95D1F79D919F77290F311D411D511D9D
:1036A00020833183428353838F5F988197FF02C0C9
:1036B000861720F3DF91CF9108958F929F92AF925A
:1036C000BF92CF92DF92EF92FF920F931F93DF93FF
:1036D000CF9300D00F92CDB7DEB75C016B017A01BA
:1036E00049019E012F5F3F4F8E010E5F1F4F0E94C9
:1036F0007A1987FD23C08981863001F58A819B81F3
:103700000097E1F0F70120813181280F391FC2169F
:10371000D306A0F0F40193838283F70120813181E5
:103720002A0D3B1DF40131832083F7012081318173
:10373000280F391F3183208380E001C08FEF0F9065
:103740000F900F90CF91DF911F910F91FF90EF900D
:10375000DF90CF90BF90AF909F908F900895CF92C1
:10376000DF92EF92FF920F931F93DF93CF9300D0DE
:103770000F92CDB7DEB76B017A019E012F5F3F4FED
:103780008E010E5F1F4F0E947A1987FD1BC0298191
:103790008A819B81253019F4009719F013C0009796
:1037A00089F0F701808191812A813B81820F931FEB
:1037B0009C01215030402C153D0520F491838083DD
:1037C00080E001C08FEF0F900F900F90CF91DF91AD
:1037D0001F910F91FF90EF90DF90CF9008950F937E
:1037E0001F93CF93DF93F9019801EA01A881B98172
:1037F000A617B70790F5A80FB91FAC91A083E88171
:10380000F981E80FF91FE081E63021F1E73038F463
:10381000E43091F0E530B0F4E230F9F40AC0E43479
:1038200028F4E13490F4E034C1F406C0E434A9F49F
:1038300011C00E94EA190BC089010E5F1F4F0E9440
:10384000E31A05C00E94AF1B02C00E94711A880FC4
:10385000880B04C00E945D1BFACF8FEFDF91CF91E0
:103860001F910F9108954F925F926F927F928F9266
:103870009F92AF92BF92CF92DF92EF92FF920F93FF
:103880001F93DF93CF9300D000D000D0CDB7DEB729
:103890004C016B017A0139012E010894411C511C25
:1038A00082010E947A1987FD88C0F7018081918189
:1038B0009601281B390BC90129813A81281739073C
:1038C00009F07BC093012E5F3F4FC401B601A701F1
:1038D0000E94EA1987FD71C08E010D5F1F4FC40160
:1038E000B601A70198010E94EA1987FD66C08B8185
:1038F000F3018683C401B601A70198010E94EA1969
:1039000087FD5BC08B81F3018783F7018081918103
:10391000F30193878287C401B601A7010E949B1916
:1039200087FD4BC0F30111861086AA24BB24C20177
:10393000542C492E38C0C401B601A701252D342DC1
:103940000E94CF1987FD39C0F301808591850097CA
:1039500049F480E090E00E9429215C01F301918705
:10396000808704C0C5010E9429215C01A114B10413
:1039700011F10E949D209C01F50191838083C40177
:10398000B601A7010E945D1B87FD17C095012E5F40
:103990003F4F85010D5F1F4FC401B601A7010E9473
:1039A000EF1B87FD0AC0F701808191818C159D0571
:1039B00010F280E003C082E001C08FEF26960FB6C0
:1039C000F894DEBF0FBECDBFCF91DF911F910F9155
:1039D000FF90EF90DF90CF90BF90AF909F908F902F
:1039E0007F906F905F904F900895FB014F3F51057E
:1039F000E1F0D8F0208131812350304031832083A1
:103A000037FD37C0280F391F62E8D9016C93A081B8
:103A1000B181A80FB91F11965C9311970190F081A5
:103A2000E02DE80FF91F428322C020813181403808
:103A3000510590F0225030403183208337FD19C06A
:103A4000280F391F61E8D9016C930190F081E02DB6
:103A5000E80FF91F41830BC0215030403183208390
:103A600037FD09C0820F931F4F77FC01408380E030
:103A700008958FEF08958FEF0895FF920F931F938E
:103A8000CF93DF938C01EB01F42EA9010E94F51C6A
:103A900087FD0DC08881998101979983888397FD5F
:103AA00006C0080F191FF801F08280E001C08FEFF7
:103AB000DF91CF911F910F91FF900895603020E02A
:103AC000720720E0820720E19207B8F4603020E01E
:103AD000720720E2820720E0920788F4603020E439
:103AE000720720E0820720E0920758F460387105E1
:103AF0008105910540F082E0089585E0089584E015
:103B0000089583E0089581E00895EF92FF920F9366
:103B10001F93CF93DF937B018C01EA010E945E1D0E
:103B200091E09883A82FA1502A2F332727FD3095A5
:103B3000B90143E0660F771F4A95E1F7621B730BEB
:103B400090E0FC01E21BF30B3197EC0FFD1FC80F57
:103B5000D91F21978E2D8F7714C0AA2369F0A80151
:103B60009701062E04C056954795379527950A94D8
:103B7000D2F72068208301C08883A150675070402D
:103B80003196A7FFEACF80E0DF91CF911F910F918F
:103B9000FF90EF900895CF92DF92EF92FF920F93F4
:103BA0001F93CF93DF937C018B01E901FB012081FF
:103BB00031812C1B3D0B3183208337FD10C0280F32
:103BC000391FC901BA01AE010E94FAC6C701B80186
:103BD00046E09E010E943D1D880F880B01C08FEFBB
:103BE000DF91CF911F910F91FF90EF90DF90CF90D9
:103BF00008957F928F929F92AF92BF92CF92DF9261
:103C0000EF92FF920F931F93CF93DF935C01FB0121
:103C1000F42E80809180C801D9019C01AD01205013
:103C2000304040405F4F203060E0360760E046079C
:103C300062E05607E8F49C01AD01205030484F4F38
:103C40005F4F203060E0360761E0460760E05607CE
:103C500090F49C01AD0120583F4F4F4F5F4F2F3FD5
:103C600031054105510551F048F062E070E008C0AF
:103C700064E070E005C063E070E002C061E070E005
:103C80009401261B370B3183208337FD3DC0E62E80
:103C9000EA94CE2CDD24C7FCD094002711270C1900
:103CA0001D0953E0CC0CDD1C5A95E1F7762E761AEF
:103CB000C081D181CA0DDB1DC60FD71FC00FD11F18
:103CC00021979C01AD010C2C04C056954795379562
:103CD00027950A94D2F72883EA940F5F1F4F28EFA5
:103CE0003FEFC20ED31E272D2E0D27FFE1CF80817F
:103CF00091819401281B390BC501BF014F2D0E94F2
:103D00003D1D880F880B01C08FEFDF91CF911F9170
:103D10000F91FF90EF90DF90CF90BF90AF909F906A
:103D20008F907F9008957F928F929F92AF92BF92D3
:103D3000CF92DF92EF92FF920F931F93CF93DF9377
:103D40005C01FB01F42E80809180D901C801807054
:103D50009070A0700097A105B105A9F4D901C80120
:103D600080709070B0700097A105B10579F4D90109
:103D7000C8018070A070B0700097A105B10549F02E
:103D800042E050E008C044E050E005C043E050E0AD
:103D900002C041E050E0C401841B950B91838083F5
:103DA00097FD3DC0E42EEA94CE2CDD24C7FCD094D0
:103DB000662777276C197D09A3E0CC0CDD1CAA953A
:103DC000E1F7742E741AC081D181CA0DDB1DC40FB6
:103DD000D51FC60FD71F2197D901C8010C2C04C0CD
:103DE000B695A795979587950A94D2F78883EA9414
:103DF0006F5F7F4F88EF9FEFC80ED91E872D8E0D06
:103E000087FFE1CF808191819401281B390BC50187
:103E1000BF014F2D0E943D1D880F880B01C08FEF01
:103E2000DF91CF911F910F91FF90EF90DF90CF9096
:103E3000BF90AF909F908F907F900895CF92DF9228
:103E4000EF92FF920F931F93CF93DF937C018B012F
:103E5000E901FB01208131812C1B3D0B3183208343
:103E600037FD10C0280F391FC901BA01AE010E94E9
:103E7000FAC6C701B80144E09E010E943D1D880FAB
:103E8000880B01C08FEFDF91CF911F910F91FF90B1
:103E9000EF90DF90CF900895DA010D900020E9F7C0
:103EA0009D0121503040241B350B0E941E1F089598
:103EB000AF92BF92CF92DF92EF92FF920F931F9338
:103EC000CF93DF937C01EB016A01A880B980DA010E
:103ED00012964C911297443480F4413400F54430EA
:103EE000B1F0453020F4423009F065C018C04530CB
:103EF00021F1463009F05FC02BC0413809F43FC0C2
:103F0000423809F44BC0403809F055C02DC0F601C5
:103F100043815481258136810E941E1F0BC0D6012A
:103F200013960D911D912D913C911697C701BE01DD
:103F30000E94F91D87FD59C03EC0C50102979983B3
:103F4000888397FD52C08E0D9F1D25E030E030C064
:103F5000D60113964D915C91149715962D913C9135
:103F600016970E94CB1DE6CFC501029799838883DF
:103F700097FD3BC08E0D9F1D20E830E019C0C501A4
:103F800002979983888397FD30C08E0D9F1D21E88D
:103F900030E0DC0111963C932E930DC0C5010297D1
:103FA0009983888397FD21C08E0D9F1D22E830E004
:103FB000FC0131832083D601ED91FC914081518138
:103FC00022813381C701BE010E94CB1D87FD0DC038
:103FD000888199819501281B390BC701BE0140E3F7
:103FE0000E943D1D880F880B01C08FEFDF91CF919C
:103FF0001F910F91FF90EF90DF90CF90BF90AF9007
:1040000008958F929F92AF92BF92CF92DF92EF92DC
:10401000FF920F931F93CF93DF934C016B01BA0173
:104020005801F8018681882391F027C0E901209783
:1040300029F02F81388528173907C1F7C401B60147
:10404000AE010E94581F87FD6AC0CE0102C080E009
:1040500090E0F501C085D1858C179D0741F7F601E9
:10406000808191819701281B390BC401B60140E37F
:104070000E943D1D87FD53C01FC0F6014081518144
:10408000F80182859385480F591F421B530BF60197
:104090005183408357FD43C0F80182859385480DC5
:1040A000591DF901E81BF90B9B01280F391FCA01A3
:1040B000B901AF010E94FAC6F501078110E020E0C6
:1040C00030E0C401B60142E00E94F91D87FD27C01F
:1040D000F501068110E020E030E0C401B60142E0C5
:1040E0000E94F91D87FD1BC0F50102811381248107
:1040F0003581C401B60142E00E94F91D87FD0FC061
:10410000F601808191819701281B390BC401B6010A
:10411000F50141810E943D1D880F880B01C08FEF82
:10412000DF91CF911F910F91FF90EF90DF90CF9093
:10413000BF90AF909F908F90089584E090E00E9490
:10414000BFC4FC01009711F013821282CF010895C1
:10415000009711F00E9459C50895FC018281938156
:104160000895FC01DB01808191816D917C91119713
:104170002281338112964D915C9113972417350754
:1041800008F4A9010E94EDC60895FC018081918187
:10419000DB016D917C91119722813381E0E05E2FEC
:1041A0002417350708F4A9010E94EDC608950F935E
:1041B0001F93CF93DF93EC018B01FB0182819381ED
:1041C0009B838A83442311F0842F90E00E94BFC414
:1041D00088839983288139812115310551F0F801AF
:1041E000608171814A815B81C9010E94FAC680E0C9
:1041F00001C08FEFDF91CF911F910F9108950F9321
:104200001F93CF93DF93EC018B0184E090E00E9439
:10421000BFC4FC01009741F0138212821183008316
:10422000209711F09B838A83CF01DF91CF911F915B
:104230000F9108950F931F9307C0FC010281138112
:104240000E9459C5802F912F0097B9F71F910F91A8
:104250000895CF93DF93EC0189E090E00E94BFC402
:10426000FC01009731F010861782209711F0988793
:104270008F83CF01DF91CF91089587E090E00E9476
:10428000BFC4089580E190E00E94BFC4FC01009784
:1042900011F017861686CF010895CF92DF92EF9224
:1042A000FF920F931F93CF93DF938C01FC01C08586
:1042B000D185FF2427C0F394F8018181883AC1F0A9
:1042C0009081913A89F4823A79F48681882319F0B1
:1042D0008781F81648F48A81823831F0E881F981C3
:1042E000808191810E9459C5888199810E94A8206E
:1042F000DF80E884CE010E9459C5CD2CE6016E0115
:10430000DE2CE6012097B9F6DF91CF911F910F9136
:10431000FF90EF90DF90CF900895CF93DF93EC0163
:1043200001960E944D21CE010E9459C5DF91CF9187
:1043300008950895FC017083618352834383089537
:1043400082EB95E208958091B9259091BA25089560
:104350008BEB95E208958BEC95E208952F923F92B6
:104360004F925F926F927F928F929F92AF92BF9285
:10437000CF92DF92EF92FF920F931F93DF93CF9331
:10438000CDB7DEB7CE55D0400FB6F894DEBF0FBE26
:10439000CDBF6F969FAF8EAF6F97DC016D907D9014
:1043A0008D909C90139765966CAE7DAE8EAE9FAE51
:1043B000659714966D907D908D909C9017976D8663
:1043C0007E868F86988A18966D907D908D909C90B1
:1043D0001B97698A7A8A8B8A9C8A1C966D907D903D
:1043E0008D909C901F9761966CAE7DAE8EAE9FAE09
:1043F0006197DB016D907D908D909C906D8A7E8A97
:104400008F8A988E65968CAD9DADAEADBFAD65972C
:1044100088589B45A549B842860D971DA81DB91D12
:104420002D853E854F85588920953095409550952E
:1044300061966CAC7DAC8EAC9FAC61972621372128
:1044400048215921E988FA880B891C898D849E842A
:10445000AF84B888E820F9200A211B212E293F29A2
:10446000402B512B820F931FA41FB51F9C01AD0140
:10447000E7E0220F331F441F551FEA95D1F73C0197
:104480004D0109E196948794779467940A95D1F742
:10449000622A732A842A952AAD84BE84CF84D88860
:1044A0006A0C7B1C8C1C9D1CDB011496CD90DD904E
:1044B000ED90FC901797C98EDA8EEB8EFC8E61968C
:1044C0008CAD9DADAEADBFAD61978A5A9844A843FF
:1044D000B7418C0D9D1DAE1DBF1DA40193012095FC
:1044E000309540955095A988BA88CB88DC882A21D8
:1044F0003B214C215D21ED84FE840F851889E62047
:10450000F720082119212E293F29402B512B820FFA
:10451000931FA41FB51F9C01AD011CE0220F331F88
:10452000441F551F1A95D1F71C012D01F4E1569433
:10453000479437942794FA95D1F7222A332A442AAC
:10454000552A260C371C481C591CDB011896CD90A7
:10455000DD90ED90FC901B97CD8EDE8EEF8EF8A255
:1045600089899A89AB89BC8985529F48AF4DBB4DDB
:104570008C0D9D1DAE1DBF1DA20191012095309592
:1045800040955095AD84BE84CF84D8882A213B21A4
:104590004C215D2182017101E620F72008211921BB
:1045A0002E293F29402B512B820F931FA41FB51F8B
:1045B0009C01AD01E1E1220F331F441F551FEA9515
:1045C000D1F75C016D010FE0D694C794B794A7941E
:1045D0000A95D1F7A22AB32AC42AD52AA20CB31C61
:1045E000C41CD51CDB011C96ED90FD900D911C9117
:1045F0001F97E9A2FAA20BA31CA38D859E85AF8508
:10460000B88982519143A244BE438E0D9F1DA01FC5
:10461000B11FA60195012095309540955095262112
:1046200037214821592186017501E220F320042118
:1046300015212E293F29402B512B820F931FA41F98
:10464000B51F9C01AD0116E1220F331F441F551FFA
:104650001A95D1F77C018D01FAE016950795F7942C
:10466000E794FA95D1F7E22AF32A042B152BEA0CEA
:10467000FB1C0C1D1D1DE982FA820B831C83DB01D0
:1046800050960D911D912D913C9153970DA31EA312
:104690002FA338A7D901C8018155904FA348BA402C
:1046A000860D971DA81DB91D29813A814B815C811A
:1046B0002095309540955095222133214421552154
:1046C000E980FA800B811C81EA20FB200C211D214E
:1046D0002E293F29402B512B820F931FA41FB51F5A
:1046E0009C01AD01E7E0220F331F441F551FEA95DF
:1046F000D1F73C014D0109E1969487947794679432
:104700000A95D1F7622A732A842A952AE980FA80C9
:104710000B811C816E0C7F1C801E911E6D827E821F
:104720008F829886DB0154960D911D912D913C91BD
:10473000579709A71AA72BA73CA7D901C801865DDF
:104740009943A847B84B820D931DA41DB51DA40124
:10475000930120953095409550952A213B214C217D
:104760005D218401730169807A808B809C80E620C2
:10477000F720082119212E293F29402B512B820F88
:10478000931FA41FB51F9C01AD011CE0220F331F16
:10479000441F551F1A95D1F77C018D01F4E1169540
:1047A0000795F794E794FA95D1F7E22AF32A042BB8
:1047B000152B2D813E814F815885E20EF31E041F7B
:1047C000151FE986FA860B871C87DB0158968D91A9
:1047D0009D910D90BC91A02D8DA79EA7AFA7B8ABC2
:1047E0008D5E994BAF4CB7458A0D9B1DAC1DBD1D11
:1047F000A8019701209530954095509526213721A5
:10480000482159216D807E808F809884E620F72092
:10481000082119212E293F29402B512B820F931F4C
:10482000A41FB51F9C01AD01E1E1220F331F441FFE
:10483000551FEA95D1F73C014D010FE096948794FE
:10484000779467940A95D1F7622A732A842A952A65
:10485000A984BA84CB84DC846A0C7B1C8C1C9D1CD0
:10486000DB015C96CD90DD90ED90FC905F97C9AA3E
:10487000DAAAEBAAFCAAD701C6018F5F9A46A94B18
:10488000B240A980BA80CB80DC808A0D9B1DAC1D14
:10489000BD1DA40193012095309540955095CD8084
:1048A000DE80EF80F8842C213D214E215F21E984B8
:1048B000FA840B851C85E620F720082119212E2972
:1048C0003F29402B512B820F931FA41FB51F9C0122
:1048D000AD0116E1220F331F441F551F1A95D1F762
:1048E0005C016D01FAE0D694C794B794A794FA9549
:1048F000D1F7A22AB32AC42AD52AA60CB71CC81CF1
:10490000D91CDB019096ED90FD900D911C91939731
:10491000EDAAFEAA0FAB18AFD801C701885297467F
:10492000AF47B649ED80FE800F8118858E0D9F1D23
:10493000A01FB11FA6019501209530954095509577
:10494000E984FA840B851C852E213F2140235123C5
:1049500086017501E620F720082119212E293F291B
:10496000402B512B820F931FA41FB51F9C01AD013B
:10497000E7E0220F331F441F551FEA95D1F71C01B2
:104980002D0109E156944794379427940A95D1F75D
:10499000222A332A442A552A2A0C3B1C4C1C5D1C13
:1049A000DB0194960D911D912D913C91979709AF44
:1049B0001AAF2BAF3CAFD901C80181559840AB4B22
:1049C000B447E984FA840B851C858E0D9F1DA01FBA
:1049D000B11FA20191012095309540955095262157
:1049E00037214821592182017101EA20FB200C2145
:1049F0001D212E293F29402B512B820F931FA41FCD
:104A0000B51F9C01AD011CE0220F331F441F551F31
:104A10001A95D1F77C018D01F4E116950795F7946D
:104A2000E794FA95D1F7E22AF32A042B152BE20C2E
:104A3000F31C041D151DE982FA820B831C83DB0124
:104A400098960D911D912D913C919B9709871A87FE
:104A50002B873C87D901C8018F54944AA040B040AD
:104A6000860D971DA81DB91D29813A814B815C8156
:104A700020953095409550952A213B214C215D2170
:104A8000E980FA800B811C81E220F32004211521AA
:104A90002E293F29402B512B820F931FA41FB51F96
:104AA0009C01AD01E1E1220F331F441F551FEA9520
:104AB000D1F73C014D010FE0969487947794679469
:104AC0000A95D1F7622A732A842A952AE980FA8006
:104AD0000B811C816E0C7F1C801E911E6D827E825C
:104AE0008F829886DB019C960D911D912D913C91B2
:104AF0009F9721960CAF1DAF2EAF3FAF2197D901E5
:104B0000C80182549842A34AB6478A0D9B1DAC1D2A
:104B1000BD1DA4019301209530954095509522210B
:104B20003321442155218401730169807A808B806F
:104B30009C80E620F720082119212E293F29402BAF
:104B4000512B820F931FA41FB51F9C01AD0116E1CD
:104B5000220F331F441F551F1A95D1F73C014D01F9
:104B6000AAE09694879477946794AA95D1F7622ADD
:104B7000732A842A952AAD80BE80CF80D8846A0C9F
:104B80007B1C8C1C9D1CDB01D096CD90DD90ED90A4
:104B9000FC90D3972596CCAEDDAEEEAEFFAE25975A
:104BA000D701C6018E5D9E4EAF46B449820D931D5E
:104BB000A41DB51DA40193012095309540955095F5
:104BC000A980BA80CB80DC802A213B214C215D2149
:104BD000ED80FE800F811885E620F720082119213D
:104BE0002E293F29402B512B820F931FA41FB51F45
:104BF0009C01AD01F7E0220F331F441F551FFA95AA
:104C0000D1F7E9E1B695A79597958795EA95D1F7FC
:104C1000822B932BA42BB52B860D971DA81DB91D98
:104C2000FB01C4A8D5A8E6A8F7A82996CCAEDDAEAE
:104C3000EEAEFFAE2997A70196012D563E48474696
:104C40005240A980BA80CB80DC802A0D3B1D4C1DD0
:104C50005D1D5C016D01A094B094C094D094ED8072
:104C6000FE800F811885AE20BF20C022D1227C019A
:104C70008D01E620F72008211921AE28BF28C02A7F
:104C8000D12A2A0D3B1D4C1D5D1D79018A016CE066
:104C9000EE0CFF1C001F111F6A95D1F759016A0124
:104CA00074E1D694C794B794A7947A95D1F7AE28B7
:104CB000BF28C02AD12AA80EB91ECA1EDB1EA9828F
:104CC000BA82CB82DC82A094B094C094D0946996CE
:104CD000ACAEBDAECEAEDFAE6997C0ACD1ACE2AC8F
:104CE000F3AC2D96CCAEDDAEEEAEFFAE2D97A701A8
:104CF000960122573C4B46485945AD80BE80CF8037
:104D0000D8842A0D3B1D4C1D5D1D6996ACACBDAC15
:104D1000CEACDFAC6997A620B720C820D920E980A7
:104D2000FA800B811C81E822F9220A231B23AE287A
:104D3000BF28C02AD12A2A0D3B1D4C1D5D1D7901BB
:104D40008A0161E1EE0CFF1C001F111F6A95D1F76B
:104D500019012A017FE056944794379427947A9555
:104D6000D1F72E283F28402A512AC980DA80EB80CB
:104D7000FC802C0C3D1C4E1C5F1C82017101E094D8
:104D8000F094009510956D96ECAEFDAE0EAF1FAF92
:104D90006D9704AD15AD26AD37AD0D831E832F8302
:104DA0003887A90198012F5D374F4B44564B260D8C
:104DB000371D481D591D6D96ACACBDACCEACDFACFB
:104DC0006D97A822B922CA22DB22E980FA800B81E2
:104DD0001C81E220F32004211521AE28BF28C02A1F
:104DE000D12A2A0D3B1D4C1D5D1D79018A0166E10A
:104DF000EE0CFF1C001F111F6A95D1F739014A0103
:104E00002AE096948794779467942A95D1F76E2830
:104E10007F28802A912A620C731C841C951C298D82
:104E20003A8D4B8D5C8D2E593A4D414E5940280F8D
:104E3000391F4A1F5B1F89819A81AB81BC81862102
:104E40009721A821B9216996ECACFDAC0EAD1FAD40
:104E50006997E220F320042115218E299F29A02B98
:104E6000B12B280F391F4A1F5B1FDA01C90115E05A
:104E7000880F991FAA1FBB1F1A95D1F759016A0104
:104E8000FBE1D694C794B794A794FA95D1F7A82AD2
:104E9000B92ACA2ADB2AA60CB71CC81CD91C8DA5A6
:104EA0009EA5AFA5B8A9805C9C44AF4BBF43E980E9
:104EB000FA800B811C818E0D9F1DA01FB11FA601C2
:104EC000950122213321442155216D96ECACFDAC96
:104ED0000EAD1FAD6D97E620F720082119212E2970
:104EE0003F29402B512B820F931FA41FB51F9C01FC
:104EF000AD01E9E0220F331F441F551FEA95D1F79A
:104F00007C018D0177E116950795F794E7947A95E2
:104F1000D1F7E22AF32A042B152BEA0CFB1C0C1DFB
:104F20001D1DE982FA820B831C8321968CAD9DADF9
:104F3000AEADBFAD21978F5A954AA14AB94D820DAA
:104F4000931DA41DB51DA8019701262137214821D5
:104F5000592184017301E094F09400951095EA20A2
:104F6000FB200C211D212E293F29402B512B820F84
:104F7000931FA41FB51F9C01AD016EE0220F331FCC
:104F8000441F551F6A95D1F71C012D0102E156946B
:104F90004794379427940A95D1F7222A332A442A32
:104FA000552A09811A812B813C81200E311E421E17
:104FB000531E8D899E89AF89B88D86559843A94423
:104FC000B641860D971DA81DB91DA20191012A2188
:104FD0003B214C215D2186017501E094F094009500
:104FE000109569807A808B809C80E620F7200821CC
:104FF00019212E293F29402B512B820F931FA41FCB
:10500000B51F9C01AD0114E1220F331F441F551F32
:105010001A95D1F73C014D01FCE096948794779462
:105020006794FA95D1F7622A732A842A952A620C2A
:10503000731C841C951C89A59AA5ABA5BCA5835A95
:105040009F4EA04DB9428A0D9B1DAC1DBD1D2981EF
:105050003A814B815C812621372148215921E98001
:10506000FA800B811C81E094F09400951095E22069
:10507000F320042115212E293F29402B512B820F8B
:10508000931FA41FB51F9C01AD01E5E0220F331F44
:10509000441F551FEA95D1F75C016D017BE1D69461
:1050A000C794B794A7947A95D1F7A22AB32AC42AB1
:1050B000D52AA60CB71CC81CD91C89859A85AB8536
:1050C000BC858D5A9B4EAB4BBD4FE980FA800B815E
:1050D0001C818E0D9F1DA01FB11FA60195012221CD
:1050E00033214421552182017101E094F09400950F
:1050F0001095E620F720082119212E293F29402B61
:10510000512B820F931FA41FB51F9C01AD0169E0B5
:10511000220F331F441F551F6A95D1F77C018D0163
:1051200087E116950795F794E7948A95D1F7E22AD7
:10513000F32A042B152BEA0CFB1C0C1D1D1DE98208
:10514000FA820B831C838D819E81AF81B8858F5736
:105150009941AE45B742820D931DA41DB51DA8010E
:105160009701262137214821592184017301E094B8
:10517000F09400951095EA20FB200C211D212E298A
:105180003F29402B512B820F931FA41FB51F9C0159
:10519000AD011EE0220F331F441F551F1A95D1F792
:1051A0001C012D01F2E15694479437942794FA9507
:1051B000D1F7222A332A442A552A09811A812B81C0
:1051C0003C81200E311E421E531E8DA19EA1AFA117
:1051D000B8A588539440AC42B841860D971DA81DD0
:1051E000B91DA20191012A213B214C215D2186019B
:1051F0007501E094F0940095109569807A808B8019
:105200009C80E620F720082119212E293F29402BD8
:10521000512B820F931FA41FB51F9C01AD01E4E128
:10522000220F331F441F551FEA95D1F73C014D0152
:105230007CE096948794779467947A95D1F7622A64
:10524000732A842A952A620C731C841C951C89ADD0
:105250009AADABADBCAD8A519243AE41BE4D8A0D05
:105260009B1DAC1DBD1D29813A814B815C8126218E
:10527000372148215921E980FA800B811C81E09473
:10528000F09400951095E220F320042115212E2999
:105290003F29402B512B820F931FA41FB51F9C0148
:1052A000AD0165E0220F331F441F551F6A95D1F7EA
:1052B0005C016D010BE1D694C794B794A7940A954D
:1052C000D1F7A22AB32AC42AD52AA60CB71CC81C17
:1052D000D91C2D968CAD9DADAEADBFAD2D978A522C
:1052E000984FA84CBC43E980FA800B811C818E0D3D
:1052F0009F1DA01FB11FA60195012221332144212A
:10530000552182017101E094F09400951095E620FA
:10531000F720082119212E293F29402B512B820FDC
:10532000931FA41FB51F9C01AD0119E0220F331F6D
:10533000441F551F1A95D1F77C018D01F7E1169591
:105340000795F794E794FA95D1F7E22AF32A042B0C
:10535000152BEA0CFB1C0C1D1D1DE982FA820B8328
:105360001C8389A19AA1ABA1BCA18957924FAA42E3
:10537000BB40820D931DA41DB51DA80197012621D8
:1053800037214821592184017301E094F09400955C
:105390001095EA20FB200C211D212E293F29402BAE
:1053A000512B820F931FA41FB51F9C01AD01EEE08E
:1053B000220F331F441F551FEA95D1F71C012D0101
:1053C00072E156944794379427947A95D1F7222A1C
:1053D000332A442A552A09811A812B813C81200EC7
:1053E000311E421E531E8DA99EA9AFA9B8AD83518F
:1053F0009B4EA54ABA4B860D971DA81DB91DA2014B
:1054000091012A213B214C215D2186017501E09407
:10541000F0940095109569807A808B809C80E620BE
:10542000F720082119212E293F29402B512B820FCB
:10543000931FA41FB51F9C01AD0164E1220F331F10
:10544000441F551F6A95D1F73C014D010CE096941D
:105450008794779467940A95D1F7622A732A842AED
:10546000952A620C731C841C951C29968CAD9DADED
:10547000AEADBFAD29978B5F9641AC41B6458A0D65
:105480009B1DAC1DBD1D29813A814B815C8126216C
:10549000372148215921E980FA800B811C81E09451
:1054A000F09400951095E220F320042115212E2977
:1054B0003F29402B512B820F931FA41FB51F9C0126
:1054C000AD0115E0220F331F441F551F1A95D1F768
:1054D0005C016D01FBE1D694C794B794A794FA954B
:1054E000D1F7A22AB32AC42AD52AA60CB71CC81CF5
:1054F000D91C8D8D9E8DAF8DB8A188509C45A04143
:10550000B340E980FA800B811C818E0D9F1DA01F86
:10551000B11FA60195012221332144215521820189
:105520007101E094F09400951095E620F720082191
:1055300019212E293F29402B512B820F931FA41F85
:10554000B51F9C01AD01E9E0220F331F441F551F19
:10555000EA95D1F77C018D0177E116950795F794CF
:10556000E7947A95D1F7E22AF32A042B152BEA0C5B
:10557000FB1C0C1D1D1DE982FA820B831C8389A96B
:105580009AA9ABA9BCA987529D4FA049B849820DE1
:10559000931DA41DB51DA80197012621372148217F
:1055A000592184017301E094F09400951095EA204C
:1055B000FB200C211D212E293F29402B512B820F2E
:1055C000931FA41FB51F9C01AD016EE0220F331F76
:1055D000441F551F6A95D1F71C012D0102E1569415
:1055E0004794379427940A95D1F7222A332A442ADC
:1055F000552A09811A812B813C81200E311E421EC1
:10560000531E25962CAD3DAD4EAD5FAD259726576B
:10561000334B454D5247260D371D481D591DD201AC
:10562000C1018A219B21AC21BD2186017501E09435
:10563000F0940095109569807A808B809C80E6209C
:10564000F720082119218E299F29A02BB12B280F83
:10565000391F4A1F5B1FDA01C90114E1880F991F26
:10566000AA1FBB1F1A95D1F7FCE0569547953795B1
:105670002795FA95D1F7282B392B4A2B5B2B220D36
:10568000331D441D551D89A59AA5ABA5BCA58E5BF0
:10569000964CA540B0408A0D9B1DAC1DBD1D8401DC
:1056A0007301E224F32404251525E226F3260427BA
:1056B00015278E0D9F1DA01FB11F7C018D01E4E0F9
:1056C000EE0CFF1C001F111FEA95D1F73C014D01A4
:1056D0007CE196948794779467947A95D1F76E28B5
:1056E0007F28802A912A620E731E841E951E8DA922
:1056F0009EA9AFA9B8AD8F579940AE48B847A980C9
:10570000BA80CB80DC808A0D9B1DAC1DBD1D79014C
:105710008A01E224F32404251525E624F72408252C
:1057200019258E0D9F1DA01FB11F7C018D016BE0FF
:10573000EE0CFF1C001F111F6A95D1F75C016D0173
:1057400085E1D694C794B794A7948A95D1F7AE28EB
:10575000BF28C02AD12AA60CB71CC81CD91C219668
:105760008CAD9DADAEADBFAD21978E5D9E49A2467D
:10577000B249820D931DA41DB51D84017301E2265B
:10578000F32604271527EA24FB240C251D258E0D5E
:105790009F1DA01FB11F2C011D012A0C3B1C4C1C7E
:1057A0005D1C2D968CAD9DADAEADBFAD2D97845FCC
:1057B000974CAA41B240820F931FA41FB51FA601A8
:1057C00095012625372548255925222533254425A9
:1057D0005525820F931FA41FB51F9C01AD0117E132
:1057E000220F331F441F551F1A95D1F7F9E0B695C4
:1057F000A79597958795FA95D1F7822B932BA42B94
:10580000B52B820D931DA41DB51D298D3A8D4B8D91
:105810005C8D2C5B354141445B45260D371D481D91
:10582000591D82017101EA24FB240C251D25E8265F
:10583000F9260A271B272E0D3F1D401F511F7901F6
:105840008A01E4E0EE0CFF1C001F111FEA95D1F75E
:1058500039014A017CE196948794779467947A950C
:10586000D1F76E287F28802A912A680E791E8A1E19
:105870009B1E2DA13EA14FA158A527553043414263
:10588000544B2A0D3B1D4C1D5D1D7C018D01E224F6
:10589000F32404251525E624F724082519252E0DC3
:1058A0003F1D401F511F79018A016BE0EE0CFF1C68
:1058B000001F111F6A95D1F759016A0125E1D6949D
:1058C000C794B794A7942A95D1F7AE28BF28C02AC9
:1058D000D12AA60CB71CC81CD91C29A93AA94BA9C6
:1058E0005CA9205A344B44445940220D331D441DB9
:1058F000551D84017301E826F9260A271B27EA248F
:10590000FB240C251D252E0D3F1D401F511F290175
:105910001A012A0C3B1C4C1C5D1C29853A854B85C1
:105920005C852059334440445144280F391F4A1F95
:105930005B1FD601C50186259725A825B925822597
:105940009325A425B525280F391F4A1F5B1F790110
:105950008A01A7E1EE0CFF1C001F111FAA95D1F7C9
:10596000DA01C901F9E0B695A79597958795FA955B
:10597000D1F78E299F29A02BB12B820D931DA41D39
:10598000B51D29962CAD3DAD4EAD5FAD29972A537F
:1059900031484446574D260D371D481D591D82017B
:1059A0007101EA24FB240C251D25E826F9260A2787
:1059B0001B272E0D3F1D401F511F79018A01E4E076
:1059C000EE0CFF1C001F111FEA95D1F739014A01A7
:1059D0007CE196948794779467947A95D1F76E28B2
:1059E0007F28802A912A680E791E8A1E9B1E2D8987
:1059F0003E894F89588D2650384D4E4555412A0DC8
:105A00003B1D4C1D5D1D7C018D01E224F32404250A
:105A10001525E624F724082519252E0D3F1D401FC6
:105A2000511F79018A016BE0EE0CFF1C001F111F52
:105A30006A95D1F759016A0125E1D694C794B794C4
:105A4000A7942A95D1F7AE28BF28C02AD12AA60C40
:105A5000B71CC81CD91C29A13AA14BA15CA12B578A
:105A60003F4C40415B42220D331D441D551D8401B6
:105A70007301E826F9260A271B27EA24FB240C25B4
:105A80001D252E0D3F1D401F511F29011A012A0CF3
:105A90003B1C4C1C5D1C2DA53EA54FA558A92B5F9A
:105AA000324E47475B4F280F391F4A1F5B1FD601F5
:105AB000C50186259725A825B92582259325A425E6
:105AC000B525280F391F4A1F5B1F79018A01A7E1FD
:105AD000EE0CFF1C001F111FAA95D1F7DA01C901B6
