:100000000C9471020C9490020C9490020C94900247
:100010000C9490020C9490020C94CE290C949002B3
:100020000C9490020C9490020C9490020C94900208
:100030000C9490020C9490020C9490020C949002F8
:100040000C9490020C9490020C9490020C949002E8
:100050000C944B2A0C9425240C9490020C9490023E
:100060000C9490020C9449720C9490020C9490029F
:100070000C9490020C9490020C9490020C949002B8
:100080000C94F9720C9490020C9490020C949002CF
:100090000C9478720C9490020C9490020C94900240
:1000A0000C9490020C9490020C9490020C94900288
:1000B0000C9490020C9490020C9490020C94900278
:1000C0000C9490020C9490020C949002740108001D
:1000D0007C010800840108008C01080094010E00D6
:1000E000A2010E00B0010E00BE010E00CC010E00F8
:1000F000DA010E00E8010E00F6010E0004020E0007
:1001000012020E0020020E002E020E003C020E0013
:100110004A020E0058020E0066020E0074020D0024
:1001200081020D008E020D009B020D00A8020E0040
:10013000B6020E00C4020E00D2020E00E0020E0053
:10014000EE020E00FC020E000A030E0018030E0061
:1001500026030E0034030E0042030E0050030E006F
:100160005E030E006C030E007A030E0088030E007F
:1001700096030D002B060102010101002B0601026E
:10018000010103002B060102010108002B060102F8
:10019000010109012B0601040181F206010201019E
:1001A00001002B0601040181F20601020101020097
:1001B0002B0601040181F2060102010103002B0656
:1001C00001040181F2060102010104002B06010471
:1001D0000181F2060102010105002B0601040181E3
:1001E000F2060102010106002B0601040181F2065C
:1001F0000102010107002B0601040181F206010240
:10020000010108002B0601040181F206010201012F
:1002100009002B0601040181F206010201010A0016
:100220002B0601040181F206010201010B002B06DD
:1002300001040181F206010201010C002B060104F8
:100240000181F2060102010201002B060104018175
:10025000F2060102010202002B0601040181F206EE
:100260000102010203002B0601040181F2060102D2
:10027000010204002B0601040181F20601020103C0
:10028000012B0601040181F20601020104012B0683
:1002900001040181F20601020105012B060104019E
:1002A00081F20601020106012B0601040181F2061A
:1002B0000102010801002B0601040181F20601027E
:1002C000010802002B0601040181F2060102010867
:1002D00003002B0601040181F2060102010804005B
:1002E0002B0601040181F2060102010805002B061C
:1002F00001040181F2060102010806002B06010437
:100300000181F2060102010807002B0601040181A8
:10031000F2060102010808002B0601040181F20621
:100320000102010809002B0601040181F206010205
:1003300001080A002B0601040181F20601020108EE
:100340000B002B0601040181F206010201080C00DA
:100350002B0601040181F206010201080D002B06A3
:1003600001040181F206010201080E002B060104BE
:100370000181F206010201080F002B060104018130
:10038000F2060102010810002B0601040181F206A9
:100390000102010811002B0601040181F20601028D
:1003A00001090153797374656D206F6E6C696E6518
:1003B0002E0A000A2A2A2A2A2A2A2A2A424F4F5477
:1003C000494E4720434F4E54494B492A2A2A2A2A4C
:1003D0002A2A2A2A0A00526F7574696E6720456EB0
:1003E00061626C65640A000A002C20636865636BB7
:1003F000207261746520257520487A0025732025B8
:10040000732C206368616E6E656C202575004D410C
:100410004320616464726573732025783A25783AC5
:1004200025783A25783A25783A25783A25783A2574
:10043000780A0025303278003A002578003A003AF0
:100440003A0074637069705F697076365F6F7574B7
:100450007075743A206E627220636163686520650E
:100460006E747279207374616C65206D6F76696E3D
:100470006720746F2064656C61790A007463706929
:10048000705F697076365F6F75747075743A206E40
:10049000627220636163686520656E747279206999
:1004A0006E636F6D706C6574650A0074637069705B
:1004B0005F697076365F6F75747075743A20446545
:1004C0007374696E6174696F6E206F66662D6C69F6
:1004D0006E6B20627574206E6F20726F7574650A82
:1004E000000011241FBECFEFD1E2DEBFCDBF15E06B
:1004F000A0E0B2E0E0E4F9EF00E00BBF02C007903B
:100500000D92AA31B107D9F714E1AAE1B5E001C013
:100510001D92A635B107E1F70E94D4230C949E7C6E
:100520000C940000EF92FF920F931F93DF93CF93F1
:10053000CDB7DEB7C65ED1400FB6F894DEBF0FBEB2
:10054000CDBF9091FD10891709F04EC080916010C9
:1005500081FF4AC040911A0550911B05CA01A8E7C6
:10056000BFE020E10D90FC010192CF012150D1F7B5
:100570008091980F9091990FDA0153969C938E93E6
:1005800052976091600F7091610F83E0E82EF12C1B
:10059000EC0EFD1E8091651090916610A7019E01E2
:1005A0002F5F3F4F04EE11E00E944F03E0911A05C8
:1005B000F0911B05882339F0138A128A80E1119289
:1005C0008A95E9F711C049815A81CF01B7010E948C
:1005D0007858E0911A05F0911B0580E1DF011D922A
:1005E0008A95E9F7138A128ACA51DE4F0FB6F8943A
:1005F000DEBF0FBECDBFCF91DF911F910F91FF9056
:10060000EF900895CF93DF93EC01862F28813981F5
:100610002115310529F091E02833390731F521C042
:10062000259A269A279A2F982E9A2D9A80E090E064
:1006300060E070E040E050E00E94DD5590931B05C3
:1006400080931A0520E031EAFC01318B208B0E9457
:100650009D208F3F51F088E391E09983888381E06A
:1006600007C0BA010E949202F6CF1982188283E075
:10067000DF91CF9108958091240590912505A09157
:100680002605B09127050196A11DB11D8093240573
:1006900090932505A0932605B093270508954F92C2
:1006A0005F926F927F928F929F92AF92BF92CF9202
:1006B000DF92EF92FF920F931F93DF93CF9300D0BF
:1006C00000D000D0CDB7DEB75C017B013A01290133
:1006D00048018091280590912905A0912A05B091A3
:1006E0002B050196A11DB11D809328059093290526
:1006F000A0932A05B0932B0500D000D000D022E2B1
:1007000032E0EDB7FEB73283218383839483A583E0
:10071000B6830E942A798DB79EB706960FB6F894D5
:100720009EBF0FBE8DBF95EEE91691E0F90608F069
:10073000C6C01A821982C501B7018E010F5F1F4F13
:10074000A8010E94CA09882351F4C501B701A80174
:100750009E012D5F3F4F0E94190A8823C1F083E359
:1007600092E00E945C798091200590912105A091F2
:100770002205B09123050196A11DB11D809320058E
:1007800090932105A0932205B093230598C08B81F7
:100790009C81AD81BE810097A105B10531F58DE049
:1007A00090E00E944D776C01E82FF92F8DE0DF017A
:1007B0001D928A95E9F7F60110828EE692E00E947A
:1007C0005C79C501B701A80196010E94E804992748
:1007D00087FD9095A92FB92F8B839C83AD83BE8312
:1007E0000097A105B10569F543C080911C05909162
:1007F0001D05A0911E05B0911F050196A11DB11DFB
:1008000080931C0590931D05A0931E05B0931F05B2
:1008100000D000D0EDB7FEB7319687E992E0ADB7D2
:10082000BEB712969C938E9311978091000082839D
:1008300013820E942A790F900F900F900F9081E001
:1008400041C08091200590912105A0912205B09191
:1008500023050196A11DB11D8093200590932105CC
:10086000A0932205B0932305C6010E94E61027C07D
:10087000C6010E947B05F60180818823A9F481ECE2
:1008800092E00E945C79C601B301A2019501870143
:1008900074010E944205992787FD9095A92FB92FD1
:1008A0008B839C83AD83BE83C6010E94E6108B813F
:1008B0009C81AD81BE810097A105B10511F08FEF3C
:1008C00001C080E026960FB6F894DEBF0FBECDBF04
:1008D000CF91DF911F910F91FF90EF90DF90CF901C
:1008E000BF90AF909F908F907F906F905F904F9050
:1008F00008954F925F926F927F928F929F92AF92E4
:10090000BF92CF92DF92EF92FF920F931F93DF93EC
:10091000CF9300D0CDB7DEB73C016B012A01A9010E
:1009200098015701FA82E9828C010F5F1F4FCB01BA
:100930004E010894811C911CB4010E94530FC60102
:10094000B4014AEE52E026E030E00E947C0E87FDC2
:1009500029C0F301008110E020E030E0C601B401BD
:1009600042E00E94E20D87FD1DC089819A819501B8
:10097000281B390BC601B40140E30E946C0D87FDB2
:1009800011C069817A81A501461B570BF201518381
:1009900040831616170644F46C0D7D1DC6010E9497
:1009A0000A7902C08FEF01C080E00F900F90CF91C5
:1009B000DF911F910F91FF90EF90DF90CF90BF904C
:1009C000AF909F908F907F906F905F904F90089521
:1009D0008F929F92AF92BF92CF92DF92EF92FF924F
:1009E0000F931F93DF93CF9300D000D0CDB7DEB726
:1009F0006C015B014A0179019E012F5F3F4F8E011F
:100A00000D5F1F4F0E94120B87FD2AC0F7018781DF
:100A10008823A1F48B819C818630910551F46981F2
:100A20007A818AEE92E046E050E00E94F4780097E6
:100A300029F085E0F701878310860FC097012F5FAB
:100A40003F4FC601B501A4010E94620C87FD08C09A
:100A5000823029F485E0F701878380E002C08111AC
:100A60008FEF0F900F900F900F90CF91DF911F910C
:100A70000F91FF90EF90DF90CF90BF90AF909F903D
:100A80008F9008954F925F926F927F928F929F9274
:100A9000AF92BF92CF92DF92EF92FF920F931F938C
:100AA000CF93DF93EC014B013A0129010E947904B5
:100AB000882379F081E08F831886CE01B401A301E9
:100AC00092010E9479048F3F21F40E943B038FEF33
:100AD00001C080E0DF91CF911F910F91FF90EF90C7
:100AE000DF90CF90BF90AF909F908F907F906F904E
:100AF0005F904F9008954F925F927F928F929F9256
:100B0000AF92BF92CF92DF92EF92FF920F931F931B
:100B1000DF93CF93CDB7DEB727970FB6F894DEBF3C
:100B20000FBECDBF8C01FC018781882309F0BCC0BA
:100B30008181813A29F1823A20F4803A09F0B9C0E2
:100B400006C0833AD1F1883A09F0B3C0B0C0F801C9
:100B5000E184F284CC24DD240FC00894C11CD11C94
:100B6000C7010E944A07009721F4F8018081882379
:100B7000C9F0F701E780F084E114F10471F794C043
:100B8000F801E184F284CC24DD2413C00894C11C54
:100B9000D11CC7010E94DF07009741F4F801808152
:100BA000882321F482E08783C0867EC0F701E78036
:100BB000F084E114F10451F777C0F801C184D284C4
:100BC000772488249924EE24FF242E010894411CC4
:100BD000511C44C07394D201F60187E001900D923C
:100BE0008150E1F7C2010E944A075C01009731F48D
:100BF000F8018081882349F582E029C0E114F104DD
:100C000041F480E090E0B5010E945D107C014C0150
:100C100005C0C401B5010E945D104C019B81F60125
:100C20008281981741F0F8018081882311F483E0D4
:100C30000EC087E00BC0F501808187FF0CC0F80172
:100C40008081882311F484E002C081E1F801878368
:100C5000F801708607C0F601C780D084C114D104A2
:100C600009F0B8CFF80187818823D9F4C184D284F0
:100C70005701882413C08394F50180819181B601C6
:100C80000E94B008882321F0F8018783808609C07C
:100C9000F601C780D084F501A280B380C114D104CD
:100CA00051F7C7010E94781082EAF801828380E040
:100CB00001C08FEF27960FB6F894DEBF0FBECDBFF1
:100CC000CF91DF911F910F91FF90EF90DF90CF9028
:100CD000BF90AF909F908F907F905F904F900895BE
:100CE000FC0180912E0590912F05009759F4F09307
:100CF0002F05E0932E05F0933105E093300517861C
:100D000016860895A0913005B09131051F96FC9389
:100D1000EE931E9717861686F0933105E093300503
:100D20000895AF92BF92CF92DF92EF92FF920F930E
:100D30001F93DF93CF9300D0CDB7DEB76C0159017D
:100D40004A8369830E949B10FC0180E1DF011D92B0
:100D50008A95E9F74A816981309709F444C011877F
:100D60000087F586E486138612866083A114B10499
:100D700091F1403471F0413438F4443051F0463050
:100D8000F9F0423041F511C0443478F0443419F59B
:100D900017C0D5010D900020E9F71197AA19BB09DA
:100DA000B783A683B582A48216C0D5010D911D918B
:100DB0002D913C91139704831583268337830BC0B1
:100DC000D50112968D919C911397978386838D916F
:100DD0009C9195838483D282C1824383CF010E94F8
:100DE000700680E001C08FEF0F900F90CF91DF91E0
:100DF0001F910F91FF90EF90DF90CF90BF90AF9039
:100E00000895CF92DF92EF92FF920F931F93CF93AB
:100E1000DF936C018B01EA01790161157105E1F045
:100E20002097D1F00E949B10FC010097A9F0D2827C
:100E3000C18211870087D387C287E114F10419F0BA
:100E4000F586E48602C080E8808385E08383CF0155
:100E50000E94700680E001C08FEFDF91CF911F915B
:100E60000F91FF90EF90DF90CF90089580912E0525
:100E700090912F0590932D0580932C050895E09176
:100E80002C05F0912D058685978590932D058093EF
:100E90002C0508950F931F93CF93DF93EC010E94CD
:100EA000360751C0818192810E94FF0F8C01E09131
:100EB0002C05F0912D0582859385009751F5888149
:100EC0009981DC0112962D913C911397021713071B
:100ED00031F4618172810E9405100097D9F18881F7
:100EE0009981A80141505040FC01228133812F5F3C
:100EF0003F4F2417350768F0E0912C05F0912D0540
:100F000061817281402F41500E941E10009709F4A8
:100F100040C0E0912C05F0912D05828593850097C6
:100F200081F088819981DC0112962D913C91139773
:100F30000217130730F4618172810E940510009737
:100F400049F00E943F07E0912C05F0912D05309764
:100F500009F0A8CF80912C0590912D05009729F4D8
:100F600080E88A83E0E0F0E024C0DC011896ED918F
:100F7000FC911997309779F0A881B9816D917C9196
:100F80001197600F711F12964C91401B09958F3F6E
:100F900011F481E8E6CFE0912C05F0912D05248134
:100FA0003581468157812B833C834D835E838381CA
:100FB0008A83CF01DF91CF911F910F910895EF9216
:100FC000FF920F931F93CF93DF93EC010E9436079C
:100FD0008AC061817281888199810E9405108C018B
:100FE000E0912C05F0912D05818192810E94FF0FE7
:100FF0007C0180912C0590912D05DC011A96ED91D4
:10100000FC911B973097F1F417FD0CC001151105E9
:1010100009F067C0E881F981228133812E153F05EF
:1010200008F05FC0FC01618172818881998140E094
:101030000E943310E881F98180819181009709F045
:1010400059C084C0101611060CF44BC001151105CF
:1010500061F4A881B9816D917C9111976E0D7F1D0E
:1010600012964C9112974E1903C060E070E040E078
:1010700009958C010097A9F1E0912C05F0912D05BF
:1010800061817281DC0112964C914E0D88819981AB
:101090000E943310E881F9812081318121153105C9
:1010A00009F454C02E0D3F1DF80160817181428109
:1010B0005381C9010E940179E881F981828193817C
:1010C000D80112962D913C911397820F931F938311
:1010D00082838D919C910E94E777C8010E94FA0F4C
:1010E00009C00E943F07E0912C05F0912D05309733
:1010F00009F06FCF80912C0590912D05009719F480
:1011000082E88A8323C0DC011896ED91FC9119973F
:10111000309769F0A881B9816D917C9111976E0D1E
:101120007F1D12964C914E1909958F3F79F0E091F1
:101130002C05F0912D0524813581468157812B8323
:101140003C834D835E8383818A8302C0E0E0F0E0CC
:10115000CF01DF91CF911F910F91FF90EF900895F4
:10116000CF92DF92EF92FF920F931F93DF93CF9373
:1011700000D0CDB7DEB77C018B01FC01C484D584DF
:10118000C114D104D1F0FB01A081B181FC018181A6
:101190009281FC01828193816D917C911197680FFE
:1011A000791F12964C91481BF80103811481258107
:1011B0003681C701F601099549C0FB01828186305D
:1011C00071F0873028F4823091F18430E1F507C066
:1011D000803429F08034B8F18434A8F528C0F701B0
:1011E000808186FF06C084819581009711F00E945E
:1011F000E777F80145815681F70146835783F80167
:101200008581968149835A830E944D77F7019583A2
:10121000848349815A810097C1F0F8016381748108
:101220000E940179F7018081806480830AC0F801FF
:1012300083819481A581B681F70184839583A683F8
:10124000B78380E003C083E001C08FEF0F900F9061
:10125000CF91DF911F910F91FF90EF90DF90CF9092
:101260000895FA01408151814617570700F5840F10
:10127000951FDC018C91853448F4803478F48130FA
:10128000C0F0873058F08033A1F408C0803A88F06D
:10129000843A20F0982F955A933058F4D9018C93C2
:1012A0008081918101969183808380E008958FEF02
:1012B00008958FEF08950F931F93CF93DF93DA0173
:1012C000E9012D913C91119726173707E0F5AC0104
:1012D000420F531FFA01408147FD0AC0488319821B
:1012E0008D919C911197019611969C938E9327C096
:1012F0004F772F5F3F4F11963C932E93433008F565
:10130000198218821AC02D913C91119741502617CD
:101310003707C8F4280F391FF9012081188100E030
:10132000F801E20FF11DF983E8832D913C911197AB
:101330002F5F3F4F11963C932E93442321F780E07B
:1013400003C081E001C08FEFDF91CF911F910F911A
:101350000895CF92DF92EF92FF920F931F93CF9356
:10136000DF93EC017B016A010E9431098F3F41F05C
:10137000CE01B701A60198010E945B0980E001C07F
:101380008FEFDF91CF911F910F91FF90EF90DF9042
:10139000CF900895CF92DF92EF92FF920F931F9319
:1013A000DF93CF9300D00F92CDB7DEB76B017A01F8
:1013B0009E012F5F3F4F8E010E5F1F4F0E94A909B4
:1013C00087FD0DC08981803351F4F70180819181BF
:1013D000C81AD90A8A819B818C159D0511F08FEF5F
:1013E00001C080E00F900F900F90CF91DF911F917F
:1013F0000F91FF90EF90DF90CF9008950F931F9380
:10140000DF93CF930F92CDB7DEB789019E012F5F97
:101410003F4F0E94A90987FD03C08981803311F0E5
:101420008FEF01C080E00F90CF91DF911F910F915E
:1014300008958F929F92AF92BF92CF92DF92EF92D8
:10144000FF920F931F93DF93CF9300D00F92CDB7EE
:10145000DEB76C014B017A0159019E012F5F3F4FAE
:101460008E010E5F1F4F0E94A90987FD58C0898118
:10147000823009F054C08A819B81009709F44FC0E3
:10148000D7012D913C9111970197820F931F8815D9
:10149000990508F044C02C0D3D1DF901808187FF9E
:1014A00003C06FEF70E002C060E070E070E080E0C9
:1014B00090E021E031E0A9010E94F876D5016D931A
:1014C0007D938D939C9313971FC0D701ED91FC9151
:1014D000EC0DFD1D2081F50180819181A281B381F8
:1014E000BA2FA92F982F8827820F911DA11DB11DFA
:1014F00080839183A283B383D7018D919C911197AF
:10150000019611969C938E938A819B819C01215018
:1015100030403B832A830097C1F680E001C08FEF03
:101520000F900F900F90CF91DF911F910F91FF902F
:10153000EF90DF90CF90BF90AF909F908F900895E5
:101540008F929F92AF92BF92CF92DF92EF92FF92D3
:101550000F931F93DF93CF9300D00F92CDB7DEB7D9
:101560004C016B017A0159019E012F5F3F4F8E01A3
:101570000E5F1F4F0E94A90987FD43C089818234F5
:1015800009F03FC06A817B8161157105D1F1CB0102
:101590000197D7012D913C911197820F931F8C15C4
:1015A0009D0578F5F501108211821282138224C004
:1015B000D701ED91FC91E80DF91D808190E0A0E04C
:1015C000B0E0F5012081318142815381542F432FB6
:1015D000322F2227822B932BA42BB52B8083918330
:1015E000A283B383D7018D919C9111970196119697
:1015F0009C938E936150704061157105C9F680E02F
:1016000001C08FEF0F900F900F90CF91DF911F913E
:101610000F91FF90EF90DF90CF90BF90AF909F9091
:101620008F9008956F927F928F929F92AF92BF9208
:10163000CF92DF92EF92FF920F931F93DF93CF939E
:101640000F92CDB7DEB74C015B017A013901680119
:101650009E012F5F3F4F0E94A90987FD22C089810B
:101660008430F9F4F70120813181C9010197F60135
:1016700040815181840F951F8A159B0590F4820E3D
:10168000931EF30191828082F70180819181F6019E
:1016900020813181820F931FF7019183808380E045
:1016A00001C08FEF0F90CF91DF911F910F91FF90AD
:1016B000EF90DF90CF90BF90AF909F908F907F90F2
:1016C0006F900895CF93DF93FA01108211821282F6
:1016D0001382A82FB92F80E01AC0ED01208131813B
:1016E0004281538197E0220F331F441F551F9A9563
:1016F000D1F79D919F77290F311D411D511D2083E9
:101700003183428353838F5F988197FF02C086178E
:1017100020F3DF91CF9108958F929F92AF92BF9265
:10172000CF92DF92EF92FF920F931F93DF93CF93AD
:1017300000D00F92CDB7DEB75C016B017A01490191
:101740009E012F5F3F4F8E010E5F1F4F0E94A90920
:1017500087FD23C08981863001F58A819B810097AE
:10176000E1F0F70120813181280F391FC216D3061D
:10177000A0F0F40193838283F701208131812A0D47
:101780003B1DF40131832083F70120813181280F33
:10179000391F3183208380E001C08FEF0F900F90BD
:1017A0000F90CF91DF911F910F91FF90EF90DF90FD
:1017B000CF90BF90AF909F908F900895CF92DF927F
:1017C000EF92FF920F931F93DF93CF9300D00F926E
:1017D000CDB7DEB76B017A019E012F5F3F4F8E01BF
:1017E0000E5F1F4F0E94A90987FD1BC029818A81B6
:1017F0009B81253019F4009719F013C0009789F0E8
:10180000F701808191812A813B81820F931F9C0186
:10181000215030402C153D0520F49183808380E0D9
:1018200001C08FEF0F900F900F90CF91DF911F911C
:101830000F91FF90EF90DF90CF9008950F931F933B
:10184000CF93DF93F9019801EA01A881B981A61726
:10185000B70790F5A80FB91FAC91A083E881F98173
:10186000E80FF91FE081E63021F1E73038F4E43089
:1018700091F0E530B0F4E230F9F40AC0E43428F431
:10188000E13490F4E034C1F406C0E434A9F411C0AA
:101890000E94190A0BC089010E5F1F4F0E94120B94
:1018A00005C00E94DE0B02C00E94A00A880F880BB0
:1018B00004C00E948C0BFACF8FEFDF91CF911F9164
:1018C0000F9108954F925F926F927F928F929F92A5
:1018D000AF92BF92CF92DF92EF92FF920F931F933E
:1018E000DF93CF9300D000D000D0CDB7DEB74C014E
:1018F0006B017A0139012E010894411C511C8201AF
:101900000E94A90987FD88C0F70180819181960115
:10191000281B390BC90129813A812817390709F099
:101920007BC093012E5F3F4FC401B601A7010E9407
:10193000190A87FD71C08E010D5F1F4FC401B601EA
:10194000A70198010E94190A87FD66C08B81F301E7
:101950008683C401B601A70198010E94190A87FD78
:101960005BC08B81F3018783F70180819181F30153
:1019700093878287C401B601A7010E94CA0987FD27
:101980004BC0F30111861086AA24BB24C201542C3B
:10199000492E38C0C401B601A701252D342D0E945F
:1019A000FE0987FD39C0F30180859185009749F4D0
:1019B00080E090E00E9487105C01F30191878087AE
:1019C00004C0C5010E9487105C01A114B10411F18B
:1019D0000E94EF0F9C01F50191838083C401B60141
:1019E000A7010E948C0B87FD17C095012E5F3F4F0A
:1019F00085010D5F1F4FC401B601A7010E941E0C97
:101A000087FD0AC0F701808191818C159D0510F238
:101A100080E003C082E001C08FEF26960FB6F894F5
:101A2000DEBF0FBECDBFCF91DF911F910F91FF9011
:101A3000EF90DF90CF90BF90AF909F908F907F906E
:101A40006F905F904F900895FB014F3F5105E1F07B
:101A5000D8F020813181235030403183208337FDFD
:101A600037C0280F391F62E8D9016C93A081B1817A
:101A7000A80FB91F11965C9311970190F081E02D8A
:101A8000E80FF91F428322C020813181403851057F
:101A900090F0225030403183208337FD19C0280F49
:101AA000391F61E8D9016C930190F081E02DE80FB6
:101AB000F91F41830BC0215030403183208337FD13
:101AC00009C0820F931F4F77FC01408380E0089587
:101AD0008FEF08958FEF0895FF920F931F93CF9389
:101AE000DF938C01EB01F42EA9010E94240D87FDE8
:101AF0000DC08881998101979983888397FD06C0DD
:101B0000080F191FF801F08280E001C08FEFDF910C
:101B1000CF911F910F91FF900895603020E07207E0
:101B200020E0820720E19207B8F4603020E07207DD
:101B300020E2820720E0920788F4603020E47207F8
:101B400020E0820720E0920758F460387105810593
:101B5000910540F082E0089585E0089584E00895BD
:101B600083E0089581E00895CF92DF92EF92FF9293
:101B70000F931F93CF93DF937C018B01E901FB014E
:101B8000208131812C1B3D0B3183208337FD10C018
:101B9000280F391FC901BA01AE010E940179C7019E
:101BA000B80146E09E010E946C0D880F880B01C0B1
:101BB0008FEFDF91CF911F910F91FF90EF90DF900A
:101BC000CF9008957F928F929F92AF92BF92CF92C3
:101BD000DF92EF92FF920F931F93CF93DF935C01FD
:101BE000FB01F42E80809180C801D9019C01AD01D8
:101BF0002050304040405F4F203060E0360760E0CA
:101C0000460762E05607E8F49C01AD0120503048D9
:101C10004F4F5F4F203060E0360761E0460760E0DD
:101C2000560790F49C01AD0120583F4F4F4F5F4F36
:101C30002F3F31054105510551F048F062E070E059
:101C400008C064E070E005C063E070E002C061E0DD
:101C500070E09401261B370B3183208337FD3DC094
:101C6000E62EEA94CE2CDD24C7FCD0940027112761
:101C70000C191D0953E0CC0CDD1C5A95E1F7762EAA
:101C8000761AC081D181CA0DDB1DC60FD71FC00FC8
:101C9000D11F21979C01AD010C2C04C0569547958E
:101CA000379527950A94D2F72883EA940F5F1F4F40
:101CB00028EF3FEFC20ED31E272D2E0D27FFE1CFB9
:101CC000808191819401281B390BC501BF014F2DE3
:101CD0000E946C0D880F880B01C08FEFDF91CF91B0
:101CE0001F910F91FF90EF90DF90CF90BF90AF903A
:101CF0009F908F907F900895CF92DF92EF92FF9206
:101D00000F931F93CF93DF937C018B01E901FB01BC
:101D1000208131812C1B3D0B3183208337FD10C086
:101D2000280F391FC901BA01AE010E940179C7010C
:101D3000B80144E09E010E946C0D880F880B01C021
:101D40008FEFDF91CF911F910F91FF90EF90DF9078
:101D5000CF900895AF92BF92CF92DF92EF92FF9211
:101D60000F931F93CF93DF937C01EB016A01A8804F
:101D7000B980DA0112964C911297443480F44134C0
:101D800000F54430B1F0453020F4423009F065C030
:101D900018C0453021F1463009F05FC02BC04138F2
:101DA00009F43FC0423809F44BC0403809F055C02F
:101DB0002DC0F60143815481258136810E947C0E1D
:101DC0000BC0D60113960D911D912D913C91169744
:101DD000C701BE010E94E20D87FD59C03EC0C5018A
:101DE00002979983888397FD52C08E0D9F1D25E031
:101DF00030E030C0D60113964D915C911497159642
:101E00002D913C9116970E94B40DE6CFC501029723
:101E10009983888397FD3BC08E0D9F1D20E830E09D
:101E200019C0C50102979983888397FD30C08E0D34
:101E30009F1D21E830E0DC0111963C932E930DC0EC
:101E4000C50102979983888397FD21C08E0D9F1D40
:101E500022E830E0FC0131832083D601ED91FC9132
:101E60004081518122813381C701BE010E94B40D9E
:101E700087FD0DC0888199819501281B390BC70109
:101E8000BE0140E30E946C0D880F880B01C08FEFEC
:101E9000DF91CF911F910F91FF90EF90DF90CF9046
:101EA000BF90AF9008958F929F92AF92BF92CF92C2
:101EB000DF92EF92FF920F931F93CF93DF934C012A
:101EC0006B01BA015801F8018681882391F027C07F
:101ED000E901209729F02F81388528173907C1F7A4
:101EE000C401B601AE010E94AA0E87FD6AC0CE01F0
:101EF00002C080E090E0F501C085D1858C179D0778
:101F000041F7F601808191819701281B390BC401AB
:101F1000B60140E30E946C0D87FD53C01FC0F6015F
:101F200040815181F80182859385480F591F421BDA
:101F3000530BF6015183408357FD43C0F80182855E
:101F40009385480D591DF901E81BF90B9B01280FDA
:101F5000391FCA01B901AF010E940179F50107815A
:101F600010E020E030E0C401B60142E00E94E20D42
:101F700087FD27C0F501068110E020E030E0C401B4
:101F8000B60142E00E94E20D87FD1BC0F50102810F
:101F9000138124813581C401B60142E00E94E20D23
:101FA00087FD0FC0F601808191819701281B390BB5
:101FB000C401B601F50141810E946C0D880F880BA8
:101FC00001C08FEFDF91CF911F910F91FF90EF90A4
:101FD000DF90CF90BF90AF909F908F90089584E056
:101FE00090E00E944D77FC01009711F0138212825D
:101FF000CF010895009711F00E94E7770895FC0142
:10200000329625913491C9010895DC01FB01329685
:1020100025913491FB0185919491BC018D919C9106
:1020200011971296ED91FC911397422F532FE417BD
:10203000F50708F4AF010E94DE780895DC01FB018A
:1020400085919491BC018D919C91119712962D913F
:102050003C911397E0E05E2F2417350708F4A9019F
:102060000E94DE7808950F931F93CF93DF93EC01C6
:102070008B01842FFB013296259134912A833B8377
:10208000442311F4C90101C090E00E944D77888378
:10209000998388819981009751F0F80125913491B5
:1020A0004A815B81B9010E94EB7880E001C08FEF2B
:1020B000DF91CF911F910F9108950F931F93CF93AD
:1020C000DF93EC018B0184E090E00E944D77FC01EE
:1020D000009741F01382128211830083209711F040
:1020E0009B838A83CF01DF91CF911F910F91089538
:1020F0000F931F9307C0FC01028113810E94E777B1
:10210000802F912F0097B9F71F910F910895CF93CA
:10211000DF93EC0189E090E00E944D77FC0100978D
:1021200031F010861782209711F098878F83CF01A6
:10213000DF91CF91089580E190E00E944D77FC01FE
:10214000009711F017861686CF010895CF92DF927F
:10215000EF92FF920F931F93CF93DF938C01FC01BB
:10216000C085D185FF2427C0F394F8018181883A86
:10217000C1F09081913A89F4823A79F4868188237A
:1021800019F08781F81648F48A81823831F0E881A5
:10219000F981808191810E94E777888199810E94ED
:1021A000FA0FDF80E884CE010E94E777CD2CE601AC
:1021B0006E01DE2CE6012097B9F6DF91CF911F91D9
:1021C0000F91FF90EF90DF90CF900895CF93DF9322
:1021D000EC0101960E94A610CE010E94E777DF91E4
:1021E000CF91089522E030E040E050E0FC012483EC
:1021F00035834683578380E0089521E030E040E056
:1022000050E0FC01248335834683578380E00895A2
:10221000FC01148215821682178280E008952DE752
:1022200030E040E050E0FC0124833583468357834F
:1022300080E0089522E030E040E050E0FC0124839B
:1022400035834683578380E008952091520430916E
:102250005304442737FD4095542FFC0124833583D4
:102260004683578380E0089520E031E040E050E06D
:10227000FC01248335834683578380E0089520E062
:1022800037E040E050E0FC012483358346835783E8
:1022900080E0089522E030E040E050E0FC0124833B
:1022A00035834683578380E0089528E030E040E09E
:1022B00050E0FC01248335834683578380E00895F2
:1022C0002CE030E040E050E0FC012483358346837D
:1022D000578380E008952AE030E040E050E0FC01C0
:1022E000248335834683578380E0089520914C0EE4
:1022F00030914D0E40E050E0FC012483358346834D
:10230000578380E008952091520E3091530E40E0A3
:1023100050E0FC01248335834683578380E0089591
:10232000FC01148215821682178280E00895FC0158
:10233000148215821682178280E00895FC011482AF
:1023400015821682178280E00895FC01148215829E
:102350001682178280E00895FC011482158216828D
:10236000178280E0089520910E0830910F08409167
:10237000100850911108FC0124833583468357834C
:1023800080E0089520914E0E30914F0E40E050E0D5
:10239000FC01248335834683578380E00895209190
:1023A000500E3091510E40E050E0FC012483358303
:1023B0004683578380E00895FC01148215821682BB
:1023C000178280E00895FC0114821582168217821C
:1023D00080E008952091FE073091FF0740910008AA
:1023E00050910108FC01248335834683578380E0A4
:1023F00008952091020830910308409104085091FB
:102400000508FC01248335834683578380E00895C3
:10241000209106083091070840910808509109085A
:10242000FC01248335834683578380E008952091FF
:102430000A0830910B0840910C0850910D08FC01DE
:10244000248335834683578380E008952091540E7A
:102450003091550E40E050E0FC01248335834683E3
:10246000578380E00895DF92EF92FF920F931F93BE
:10247000DF93CF93CDB7DEB728970FB6F894DEBFC2
:102480000FBECDBF8C017B01D42E423008F40CC1AD
:10249000CB016D2DAE014F5F5F4F0E94620B6D2D22
:1024A000681B9701280F311DC901AE014B5F5F4FBB
:1024B0000E94620B8D819E81AF81B8858038910525
:1024C000A105B10509F4D9C081389105A105B1056F
:1024D000C0F481309105A105B10509F453C08130E4
:1024E0009105A105B10530F182309105A105B10535
:1024F00009F470C083309105A105B10509F0D4C07D
:1025000095C082389105A105B10509F4B6C082389D
:102510009105A105B10508F4B0C083389105A10566
:10252000B10509F4AAC08A389105A105B10509F0E1
:10253000BBC0A3C089819A81AB81BC8182309105E7
:10254000A105B10539F083309105A105B10509F068
:10255000ABC00CC081E4F80183838091CB079091DC
:10256000CC07A091CD07B091CE074FC081E4F80110
:1025700083838091CF079091D007A091D107B0912C
:10258000D20743C089819A81AB81BC818230910599
:10259000A105B10539F083309105A105B10509F018
:1025A00083C00CC081E4F80183838091D3079091AC
:1025B000D407A091D507B091D60727C081E4F801D0
:1025C00083838091D7079091D807A091D907B091C4
:1025D000DA071BC089819A81AB81BC818230910569
:1025E000A105B10539F083309105A105B10509F0C8
:1025F0005BC010C081E4F80183838091DB07909178
:10260000DC07A091DD07B091DE0784839583A68364
:10261000B78348C081E4F80183838091DF079091FC
:10262000E007A091E107B091E207EFCF89819A819D
:10263000AB81BC8182309105A105B10531F08330B9
:102640009105A105B10581F50CC081E4F8018383F2
:102650008091E3079091E407A091E507B091E60728
:10266000D4CF81E4F80183838091E7079091E80754
:10267000A091E907B091EA07C8CF89819A81AB811F
:10268000BC8182309105A105B10529F08330910507
:10269000A105B10549F481E4F80183831482158210
:1026A0001682178280E001C08FEF28960FB6F8944B
:1026B000DEBF0FBECDBFCF91DF911F910F91FF9075
:1026C000EF90DF900895DF92EF92FF920F931F93A8
:1026D000DF93CF93CDB7DEB728970FB6F894DEBF60
:1026E0000FBECDBF7C018B01D42E4230B1F5CB01A2
:1026F00062E0AE014F5F5F4F0E94620B6D2D681B61
:102700009801280F311DC901AE014B5F5F4F0E9438
:10271000620B89819A81AB81BC8182309105A105D0
:10272000B105D9F48091600490916104A0E0B0E01B
:102730002D813E814F815885281739074A075B074D
:1027400061F4F701D38281E090E0A0E0B0E08483FF
:102750009583A683B78380E001C08FEF28960FB6DC
:10276000F894DEBF0FBECDBFCF91DF911F910F91C7
:10277000FF90EF90DF900895FF920F931F93DF93E8
:10278000CF93CDB7DEB728970FB6F894DEBF0FBE54
:10279000CDBF8B01F42ECB01642FAE014F5F5F4F95
:1027A0000E94620B6F2D681B9801280F311DC90113
:1027B000AE014B5F5F4F0E94620B29813A814B81D2
:1027C0005C818091B70390E0A0E0B0E02817390762
:1027D0004A075B07A0F0281739074A075B0771F51E
:1027E0008091600490916104A0E0B0E02D813E8171
:1027F0004F815885281739074A075B07F8F40E946C
:10280000EF0F8C010097E1F082E090E0D801139681
:102810009C938E9312970E944D77FC01D8011196DC
:102820009C938E93009751F08091B7038083ED9134
:10283000FC91119780916004818302C000E010E058
:10284000C80128960FB6F894DEBF0FBECDBFCF915A
:10285000DF911F910F91FF900895DF92EF92FF9209
:102860000F931F93DF93CF93CDB7DEB728970FB6A3
:10287000F894DEBF0FBECDBF8C017B01D42E423059
:1028800009F05EC0CB0162E0AE014F5F5F4F0E9476
:10289000620B6D2D681B9701280F311DC901AE0118
:1028A0004B5F5F4F0E94620B8D810E942832009720
:1028B00009F446C029813A814B815C81233031057E
:1028C00041055105E9F0243031054105510530F449
:1028D000223031054105510599F50BC024303105F1
:1028E00041055105A9F0253031054105510541F556
:1028F00017C0F801D38224833583468357831EC0D3
:1029000082E4F801838381E090E0A0E0B0E012C0AF
:1029100082E4F801838314821582168217820EC026
:10292000F801D38282589F4FFC01808190E0A0E0A3
:10293000B0E0F80184839583A683B78380E001C06B
:102940008FEF28960FB6F894DEBF0FBECDBFCF91A4
:10295000DF911F910F91FF90EF90DF9008954F92BC
:102960005F926F927F928F929F92AF92BF92CF921F
:10297000DF92EF92FF920F931F93DF93CF93CDB728
:10298000DEB7A0970FB6F894DEBF0FBECDBF2C0107
:102990007B01942E81EF92E00E945C79892D833136
:1029A00008F4AEC0C701692DAE014F5F5F4F0E94B2
:1029B000620B082F692D681BC701800F911DAE01A6
:1029C0004B5F5F4F0E94620BA82E8D810E942832C0
:1029D0006C01009709F494C00A0D692D601BC701B2
:1029E000800F911DAE01475F5F4F0E94620B882EE2
:1029F00029853A854B855C85CA01B90161507040D3
:102A000080409040A7E3B0E06A9FF0016B9FF00D1B
:102A10007A9FF00D1124EC0DFD1D80A1882309F48F
:102A20006FC0233031054105510508F069C0800EA3
:102A300082A593A50E94E144082F192F00D081E2BE
:102A400093E0EDB7FEB7928381830E942A790F90BD
:102A50000F90C8010B960E94184886E393E00E94ED
:102A60005C7921E1C22ED12CCC0EDD1E91E2A92E83
:102A7000B12CAC0EBD1E8DE0682E712C6C0E7D1E2F
:102A8000692D6819C701880D911DA3010E94620B71
:102A9000880E8D85F60181936F01EA15FB0581F79C
:102AA00040E09E012F5E3F4F842F90E0F901E80F38
:102AB000F91F800F911F5081FC018385581739F051
:102AC000F8010081118101151105D1F040E04F5F3F
:102AD000403150F389819A81AB81BC81823091056C
:102AE000A105B10569F482E0F201838381E090E001
:102AF000A0E0B0E084839583A683B78380E001C023
:102B00008FEFA0960FB6F894DEBF0FBECDBFCF916A
:102B1000DF911F910F91FF90EF90DF90CF90BF90CA
:102B2000AF909F908F907F906F905F904F9008959F
:102B3000CF92DF92EF92FF920F931F93DF93CF9389
:102B4000CDB7DEB72C970FB6F894DEBF0FBECDBF62
:102B50008C017B01D42E433009F052C1CB0163E0DC
:102B6000AE014F5F5F4F0E94620BC82E6D2D681B38
:102B7000C7018C0D911DAE014B5F5F4F0E94620B30
:102B80008C0D6D2D681B9701280F311DC901AE01F9
:102B9000475F5F4F0E94620B8D810E942832FC01CB
:102BA000009709F42DC169857A858B859C856150D4
:102BB000704080409040623071058105910508F0B9
:102BC0001FC147E3E42EF12C6E9DD0016F9DB00D27
:102BD0007E9DB00D1124AE0FBF1F90962C91909743
:102BE000222309F40DC129813A814B815C8128306F
:102BF00031054105510509F4B4C0293031054105BD
:102C0000510528F5243031054105510509F478C0F6
:102C1000253031054105510568F422303105410563
:102C2000510509F43FC0233031054105510509F034
:102C3000E7C053C0263031054105510509F47DC078
:102C4000273031054105510508F081C063C02C30A3
:102C500031054105510509F4A8C02D303105410564
:102C6000510568F42A3031054105510509F4B7C012
:102C70002B3031054105510508F08FC07BC02E3047
:102C800031054105510509F4A0C02E30310541053B
:102C9000510508F492C02F3031054105510509F066
:102CA000AFC09DC024E0D80113962C9313976E9D5E
:102CB00090016F9D300D7E9D300D1124255F3F4F9B
:102CC0002E0F3F1F15963C932E93149780E190E0B2
:102CD00017969C938E93169791C022E4D801139671
:102CE0002C9387E390E0689FD001699FB00D789F97
:102CF000B00D1124AE0FBF1F5D968C915D976DC016
:102D000082E4F801838394968D919C919597A0E03D
:102D1000B0E070C022E0D80113962C9387E390E0D6
:102D2000689FD001699FB00D789FB00D1124AE0F40
:102D3000BF1F5E968C915E9750C082E4D8011396B7
:102D40008C931397809160049091610450C082E449
:102D5000D80113968C93CF0188559F4F0E948446CB
:102D600046C082E0D80113968C9382E090E0A0E008
:102D7000B0E03FC022E4D80113962C9387E390E0A3
:102D8000689FD001699FB00D789FB00D1124AE0FE0
:102D9000BF1F5F968C915F9720C082E4D801139685
:102DA0008C931397EA57FF4F20C082E4D801139603
:102DB0008C931397E158FF4F0FC082E4D80113960C
:102DC0008C931397E058FF4F07C082E4D801139605
:102DD0008C931397EF57FF4F808190E008C082E4F7
:102DE000D80113968C93E857FF4F80819181A0E022
:102DF000B0E0F80184839583A683B78380E001C0A7
:102E00008FEF2C960FB6F894DEBF0FBECDBFCF91DB
:102E1000DF911F910F91FF90EF90DF90CF90089579
:102E2000CF93DF93EC010E941932009789F0DC0107
:102E30005B96ED91FC915C97E358FF4F808190E0A9
:102E4000A0E0B0E08C839D83AE83BF8380E001C0AF
:102E50008FEFDF91CF910895CF93DF93EC010E9424
:102E60001932009731F1DC015B96ED91FC915C9792
:102E700080A1882349F4DF01A95ABF4F8C91882390
:102E8000D1F021E030E002C020E030E047E350E044
:102E9000249FC001259F900D349F900D11240B9607
:102EA0008E0F9F1F9D838C8380E190E09F838E8394
:102EB00002C08FEF01C080E0DF91CF910895EF92C3
:102EC000FF920F931F93DF93CF93CDB7DEB7A897F1
:102ED0000FB6F894DEBF0FBECDBF7C010E94193241
:102EE000009719F1FC018789908D0B968E010F5F79
:102EF0001F4FB8010E945A1800D000D084E493E01C
:102F0000EDB7FEB792838183148303830E942A79ED
:102F1000F7011583048380E290E0978386830F9006
:102F20000F900F900F9080E001C08FEFA8960FB622
:102F3000F894DEBF0FBECDBFCF91DF911F910F91EF
:102F4000FF90EF9008950F931F93CF93DF938C0121
:102F50000E941932EC01009719F1EB8DFC8DE558B8
:102F6000FF4F808190E0A0E0B0E0F801848395837A
:102F7000A683B78300D08AE593E0EDB7FEB79283CE
:102F800081830E942A790F900F908F89988D0B96DC
:102F90000E94184886E393E00E945C7980E001C0BB
:102FA0008FEFDF91CF911F910F910895DF92EF92F4
:102FB000FF920F931F93DF93CF93CDB7DEB7289780
:102FC0000FB6F894DEBF0FBECDBF8C017B01D42EAF
:102FD000CB01642FAE014F5F5F4F0E94620B6D2DDE
:102FE000681B9701280F311DC901AE014B5F5F4F70
:102FF0000E94620B3D2D323009F04DC089819A81CB
:10300000AB81BC8183309105A105B105E9F0843025
:103010009105A105B10569F182309105A105B105C0
:10302000D1F586E0F80183838D819E81AF81B885DB
:1030300081309105A105B10571F58DEC93E0958383
:10304000848386E090E012C084E0F80183838D8160
:103050009E81AF81B88581309105A105B105D9F474
:1030600080E793E09583848381E190E09783868372
:1030700010C083E4F80183838D819E81AF81B88580
:1030800081309105A105B10531F4148215821682B3
:10309000178280E001C08FEF28960FB6F894DEBF4C
:1030A0000FBECDBFCF91DF911F910F91FF90EF9099
:1030B000DF9008954F925F926F927F928F929F92CE
:1030C000AF92BF92CF92DF92EF92FF920F931F9336
:1030D000CF93DF93EB01E82EF92E00E010E0CC2433
:1030E000DD2457E8652E53E0752E01C08501D70118
:1030F0009C90882411968C9111975401A80EB11CB4
:10310000A114B104E1F417FD1DC058010894A11CDD
:10311000B11C0115110509F051C02E01EC2FF52D40
:10312000DF010D900020E9F7CD0101978E1B9F0B69
:103130008C0F9D1F62E873E00E9423793FC0101638
:103140001106ACF0C114D104A1F02E01EC2FF52D25
:10315000DF010D900020E9F7CD0101978E1B9F0B39
:103160008C0F9D1F65E873E00E94237902C00FEF6A
:103170001FEFFE0101900020E9F73197EC1BFD0BDA
:1031800000D000D000D08DB79EB70196EC0FFD1F88
:10319000ADB7BEB71296FC93EE931197FC01738204
:1031A0006282B582A4820E9493798DB79EB70696FB
:1031B0000FB6F8949EBF0FBE8DBF5801A2E0B0E0DD
:1031C000CA0EDB1EEA0EFB1EB0E1CB16D10409F0DD
:1031D0008DCF00D000D08AE893E0EDB7FEB79283A0
:1031E0008183D483C3830E942A790F900F900F901C
:1031F0000F90DF91CF911F910F91FF90EF90DF9093
:10320000CF90BF90AF909F908F907F906F905F9086
:103210004F900895CF93DF93EC010E940024A0E02B
:10322000B0E08C839D83AE83BF8380E0DF91CF913C
:1032300008958F929F92AF92BF92CF92DF92EF92BA
:10324000FF920F931F93CF93DF93EC016A017B01F1
:1032500048015901C901B8010E948D0D8330A1F1C7
:10326000843038F4813009F455C0823009F05DC0F3
:103270003EC08430B1F0853009F057C0FE01EC0D3E
:10328000FD1DD501C4010CE1B695A79597958795CD
:103290000A95D1F7806880830894C11CD11CE11C79
:1032A000F11CFE01EC0DFD1DD501C40115E1B69523
:1032B000A795979587951A95D1F78068808308948C
:1032C000C11CD11CE11CF11CFE01EC0DFD1DD50142
:1032D000C4017EE0B695A795979587957A95D1F725
:1032E000806880830894C11CD11CE11CF11CFE0184
:1032F000EC0DFD1DD501C40167E0B695A795979526
:1033000087956A95D1F7806880830894C11CD11C89
:10331000E11CF11CCC0DDD1D882D8F77888308946E
:10332000C11CD11CE11CF11C04C0CC24CA94DC2CAF
:103330007601B601C701DF91CF911F910F91FF90E8
:10334000EF90DF90CF90BF90AF909F908F900895B7
:10335000CF92DF92EF92FF920F931F93DF93CF9361
:10336000CDB7DEB728970FB6F894DEBF0FBECDBF3E
:103370008B01E42ECB01642FAE014F5F5F4F0E94A3
:10338000620B6E2D681B9801280F311DC901AE011B
:103390004B5F5F4F0E94620B89819A81AB81BC8138
:1033A0002091CB0330E040E050E082179307A40760
:1033B000B50748F182179307A407B50749F42D8193
:1033C0003E814F8158852A38310541055105D8F095
:1033D0002091CC0330E040E050E082179307A4072F
:1033E000B50798F082179307A407B50709F0E3C162
:1033F0002D813E814F8158852A383105410551057F
:1034000008F0D9C102C020E001C021E0C22EDD24B5
:10341000860105531C4FF801208130E040E050E068
:1034200082179307A407B50700F50E94EF0F7C01F0
:10343000009709F4C2C182E090E0D70113969C93F3
:103440008E9312970E944D77FC01D70111969C93A1
:103450008E93009709F4AFC1D8018C918083D70176
:10346000ED91FC9111971182A8C18D819E81AF8150
:10347000B8850097A105B105F1F40E94EF0F7C011A
:10348000009709F49AC182E090E0F7019383828368
:103490000E944D77FC01D70111969C938E93009763
:1034A00009F489C1D8018C918083D701ED91FC91F9
:1034B000119781E045C081309105A105B105F1F476
:1034C0000E94EF0F7C01009709F477C182E090E041
:1034D000F701938382830E944D77FC01D7011196F7
:1034E0009C938E93009709F466C1D8018C918083D8
:1034F000D701ED91FC91119782E022C082309105B5
:10350000A105B105F9F40E94EF0F7C01009709F4C1
:1035100054C182E090E0F701938382830E944D774B
:10352000FC01D70111969C938E93009709F443C137
:10353000D8018C918083D701ED91FC91119783E0A4
:1035400081833BC19C01AD0123503040404050403D
:103550002D37310541055105B8F50E94EF0F7C016B
:10356000009709F42AC160E870E080E090E00E94D2
:103570008D0D90E00196F7019383828360E870E0FF
:1035800080E090E00E948D0D90E001960E944D77C2
:10359000D70111969C938E93009709F40CC1F80102
:1035A000008110E020E030E040E050E0BA010E94ED
:1035B0001919AB01BC01D7018D919C91119700E8BD
:1035C00010E020E030E0F4C080389105A105B1059D
:1035D000B9F50E94EF0F7C01009709F4EEC061E895
:1035E00070E080E090E00E948D0D90E00196F70180
:1035F0009383828361E870E080E090E00E948D0D0B
:1036000090E001960E944D77D70111969C938E937E
:10361000009709F4D0C0F801008110E020E030E00C
:1036200040E050E0BA010E941919AB01BC01D7017A
:103630008D919C91119701E810E020E030E0B8C036
:1036400081389105A105B105B9F50E94EF0F7C0104
:10365000009709F4B2C062E870E080E090E00E9458
:103660008D0D90E00196F7019383828362E870E00C
:1036700080E090E00E948D0D90E001960E944D77D1
:10368000D70111969C938E93009709F494C0F8018A
:10369000008110E020E030E040E050E0BA010E94FC
:1036A0001919AB01BC01D7018D919C91119702E8CA
:1036B00010E020E030E07CC082389105A105B10522
:1036C000C1F50E94EF0F7C01009709F476C063E812
:1036D00070E080E090E00E948D0D90E00196F7018F
:1036E0009383828363E870E080E090E00E948D0D18
:1036F00090E001960E944D77D70111969C938E938E
:10370000009709F458C0F601E553FC4F008110E022
:1037100020E030E040E050E0BA010E941919AB010E
:10372000BC01F7018081918103E810E020E030E0E6
:103730003FC083589040A040B04087309105A1051C
:10374000B105C8F50E94EF0F7C010097B1F16AE85E
:1037500070E080E090E00E948D0D90E00196D7012E
:1037600013969C938E9312976AE870E080E090E045
:103770000E948D0D90E001960E944D77F701918394
:1037800080830097C1F0F601E553FC4F008110E003
:1037900020E030E040E050E0BA010E941919AB018E
:1037A000BC01D7018D919C910AE810E020E030E047
:1037B0000E94191902C0EE24FF24C70128960FB6F3
:1037C000F894DEBF0FBECDBFCF91DF911F910F9157
:1037D000FF90EF90DF90CF9008956F927F928F923D
:1037E0009F92AF92BF92CF92DF92EF92FF920F9390
:1037F0001F93DF93CF93CDB7DEB728970FB6F8941A
:10380000DEBF0FBECDBF7C01662EB42EC52EA22E0C
:10381000AE014F5F5F4F0E94620B662D681B9701E0
:10382000280F311DC901AE014B5F5F4F0E94620B33
:1038300089819A81AB81BC816D807E808F809884E4
:10384000EB2DFC2DE02EFF2400E010E047C06F01BF
:10385000219130E040E050E082179307A407B507BC
:1038600050F082179307A407B507C1F56E147F04C3
:103870008006910698F50E94EF0F8C010097A9F140
:1038800082E090E0D80113969C938E9312970E9449
:103890004D77FC01D80111969C938E93009719F1F6
:1038A000D6018C9180838C9190E0A0E0B0E02981DA
:1038B0003A814B815C81F801608171812817390759
:1038C0004A075B0730F481E0DB0111968C93119776
:1038D0000CC08D818F5FFB01818307C02E2F2B19B8
:1038E0002A1508F4B4CF00E010E0C80128960FB6FE
:1038F000F894DEBF0FBECDBFCF91DF911F910F9126
:10390000FF90EF90DF90CF90BF90AF909F908F90FF
:103910007F906F9008950F93CB01642F44EB53E099
:1039200023E001E00E94ED1B0F9108952091D50E38
:1039300030E040E050E0261737074807590711F0FC
:103940008FEF089581E008952F923F924F925F92FA
:103950006F927F929F92AF92BF92CF92DF92EF923F
:10396000FF920F931F93DF93CF93CDB7DEB7A4974A
:103970000FB6F894DEBF0FBECDBF5B01942ECB0116
:10398000642FAE014F5F5F4F0E94620B082F692DBD
:10399000681BC501800F911DAE014B5F5F4F0E94F8
:1039A000620B800F692D681B9501280F311DC9011D
:1039B000AE01475F5F4F0E94620B8091840E909131
:1039C000850E009709F4CBC10E94E1442C019AA313
:1039D00089A389819A81AB81BC810097A105B1053A
:1039E000B1F0ED80FE800F811885C801B7010E94FB
:1039F000961C8F3F09F0ABC08091D50E90E0A0E0FF
:103A0000B0E0E816F9060A071B0708F0A0C06091AD
:103A1000CA0370E080E090E00E948D0DE82EFF2444
:103A200000E010E06091D50E70E080E090E00E9430
:103A30008D0DE80EF11C011D111D61E070E080E0AC
:103A400090E00E948D0DE80EF11C011D111D8BE010
:103A500090E0480E591E6201F0E1AF2EF60161912F
:103A60006F0170E080E090E00E948D0DE80EF11C87
:103A7000011D111DAA9491F70E94EF0F6C01009790
:103A800009F46FC1FC01F382E282C7010E944D7705
:103A9000F60191838083009709F461C10091CA0304
:103AA00010E020E030E040E050E0BA010E94191937
:103AB000AB01BC014F3FFFEF5F07FFEF6F07FFEF69
:103AC0007F0709F44CC10091D50E10E020E030E0F2
:103AD000F601808191810E941919AB01BC014F3F11
:103AE000FFEF5F07FFEF6F07FFEF7F0709F437C1B5
:103AF000F6018081918101E010E020E030E00E9439
:103B00001919AB01BC014F3FFFEF5F07FFEF6F07D4
:103B1000FFEF7F0709F423C1E0E1EE2EF2010191EE
:103B20002F0110E020E030E0F601808191810E94B9
:103B30001919AB01BC014F3FFFEF5F07FFEF6F07A4
:103B4000FFEF7F0709F40BC1EA9441F70AC16091C6
:103B5000CA0370E080E090E00E948D0DE82EFF2403
:103B600000E010E06091D50E70E080E090E00E94EF
:103B70008D0DE80EF11C011D111D61E070E080E06B
:103B800090E00E948D0DE80EF11C011D111D51E108
:103B9000252E312C2C0E3D1E9E012F5D3F4F6101C5
:103BA0004DE0642E712C6C0E7D1EC501692DA301A4
:103BB0002BA33CA30E94620BF3018081F601819349
:103BC0006F012BA13CA1E217F30779F78091D50E85
:103BD00090E0A0E0B0E02D813E814F81588528170C
:103BE00039074A075B07C8F589859A85AB85BC8587
:103BF0000097A105B10589F53BE0C32ED12CC40C7B
:103C0000D51C20E1A22EF60161916F0170E080E0E9
:103C100090E00E948D0DE80EF11C011D111DAA946B
:103C200091F728C06D9151916517A9F44F5F40310C
:103C3000C9F76C0190E1A92EF60161916F0170E066
:103C400080E090E00E948D0DE80EF11C011D111D19
:103C5000AA9491F70FC03AA329A3E9A1FAA1208160
:103C600031812115310531F0CF010B96DC01F101D5
:103C700040E0D8CFF3E1EF16F1040105110508F497
:103C80006EC00E94EF0F6C01009709F46AC0FC013E
:103C9000F382E282C7010E944D77F601918380830F
:103CA000009709F45CC00091CA0310E020E030E006
:103CB00040E050E0BA010E941919AB01BC014F3F2E
:103CC000FFEF5F07FFEF6F07FFEF7F0709F447C0C4
:103CD0000091D50E10E020E030E0F6018081918166
:103CE0000E941919AB01BC014F3FFFEF5F07FFEFC7
:103CF0006F07FFEF7F0799F1F6018081918101E065
:103D000010E020E030E00E941919AB01BC014F3FE8
:103D1000FFEF5F07FFEF6F07FFEF7F0701F1A9A03C
:103D2000BAA02BE030E0A20EB31E80E1E82EF50130
:103D300001915F0110E020E030E0F6018081918187
:103D40000E941919AB01BC014F3FFFEF5F07FFEF66
:103D50006F07FFEF7F0719F0EA9449F702C0CC2400
:103D6000DD24C601A4960FB6F894DEBF0FBECDBF0A
:103D7000CF91DF911F910F91FF90EF90DF90CF9047
:103D8000BF90AF909F907F906F905F904F903F90CB
:103D90002F9008954F925F926F927F929F92AF9271
:103DA000BF92CF92DF92EF92FF920F931F93DF9318
:103DB000CF93CDB7DEB72C970FB6F894DEBF0FBE0A
:103DC000CDBF8B01E42ECB01642FAE014F5F5F4F5F
:103DD0000E94620BA82E6E2D681BC8018A0D911DD2
:103DE000AE014B5F5F4F0E94620B8A0D6E2D681B08
:103DF0009801280F311DC901AE01475F5F4F0E9436
:103E0000620B0CEB13E0AA24BB2429813A814B817D
:103E10005C81D8018D918D0190E0A0E0B0E0281781
:103E200039074A075B07C0F0281739074A075B07BD
:103E300009F0B8C06D817E818F8198850E94961CA3
:103E4000181654F489859A85AB85BC858230910516
:103E5000A105B10508F0A6C00E94EF0F8C010097E4
:103E600009F4AAC083E090E0F801938382830E9462
:103E70004D777C01D80111969C938E93009709F49D
:103E800099C049805A806B807C80F501E454FC4FD6
:103E90009080892D90E0A0E0B0E0481659066A06AF
:103EA0007B0650F4F7019082D801ED91FC911197B7
:103EB0008091D50E818345C0AD80BE80CF80D884EF
:103EC000C601B5010E94961C8F3F99F49091D50EC2
:103ED000292F30E040E050E0A216B306C406D50614
:103EE00050F4F7019082D801ED91FC9111979183E4
:103EF00028C018165CF129853A854B855C852230EF
:103F000031054105510568F1223031054105510562
:103F100009F050C0992787FD9095019626EB30E077
:103F2000829FF001839FF00D929FF00D1124EB52C0
:103F3000F14F8081F7018183D801ED91FC911197B8
:103F40004082ED91FC91119781E02AC0813091F57A
:103F500089859A85AB85BC8582309105A105B1051F
:103F600048F5F7014082C601B5010E94961CD801B0
:103F7000ED91FC91992787FD909526EB30E0829F8B
:103F8000D001839FB00D929FB00D1124AB52B14F61
:103F90008C918183D801ED91FC91119789858F5F78
:103FA00082830AC00894A11CB11CBEE0AB16B10408
:103FB00009F02BCF00E010E0C8012C960FB6F89462
:103FC000DEBF0FBECDBFCF91DF911F910F91FF904C
:103FD000EF90DF90CF90BF90AF909F907F906F90C9
:103FE0005F904F900895EF92FF920F931F93DF938E
:103FF000CF93CDB7DEB728970FB6F894DEBF0FBECC
:10400000CDBF8B01E42ECB01642FAE014F5F5F4F1C
:104010000E94620B6E2D681B9801280F311DC9018B
:10402000AE014B5F5F4F0E94620B08EB13E0EE2482
:10403000FF2429813A814B815C81D8018D918D01CA
:1040400090E0A0E0B0E0281739074A075B0778F056
:10405000281739074A075B0709F057C06D817E8131
:104060008F8198850E94961C18160CF44EC00E94F1
:10407000EF0F8C01009709F452C082E090E0F80144
:10408000938382830E944D77FC01D80111969C9303
:104090008E93009709F441C0D701A854BC4F8C916E
:1040A000808390E0A0E0B0E029813A814B815C817F
:1040B000281739074A075B0740F06D817E818F81A1
:1040C00098850E94961C8F3F41F4D801ED91FC9198
:1040D00011978091D50E818322C01816F4F0F80153
:1040E000A081B181992787FD909526EB30E0829FD2
:1040F000F001839FF00D929FF00D1124EB52F14FD0
:10410000808111968C9311970AC00894E11CF11CD0
:10411000F4E0EF16F10409F08CCF00E010E0C801E4
:1041200028960FB6F894DEBF0FBECDBFCF91DF91BA
:104130001F910F91FF90EF900895EF92FF920F93D0
:104140001F938CEC90E060E844E02EE933E000E05F
:1041500010E0EE24FF240E9491068F3F09F410C264
:1041600080ED90E060E843E420E030E00AE019E10F
:104170000E9491068F3F09F403C284ED90E060E84D
:1041800043E420E030E000E010E00E9491068F3F21
:1041900009F4F6C188ED90E066ED77E14BE85CE16B
:1041A00020E030E00E9401078F3F09F4E9C18CED67
:1041B00090E060E842E020E030E002EF10E10E9491
:1041C00091068F3F09F4DCC180EE90E060E842E4A4
:1041D00020E030E00DEF10E10E9491068F3F09F4DE
:1041E000CFC184EE90E060E842E420E030E008E0F7
:1041F00011E10E9491068F3F09F4C2C188EE90E060
:1042000060E842E420E030E00FE011E10E94910616
:104210008F3F09F4B5C18CEE90E060E842E020E009
:1042200030E00AE111E10E9491068F3F09F4A8C134
:1042300080EF90E060E842E420E030E005E211E148
:104240000E9491068F3F09F49BC184EF90E060E8E3
:1042500042E420E030E004E311E10E9491068F3F48
:1042600009F48EC188EF90E060E842E420E030E09D
:104270000FE311E10E9491068F3F09F481C18CEF99
:1042800090E060E842E020E030E00AE411E10E94C2
:1042900091068F3F09F474C180E091E060E842E448
:1042A00020E030E005E511E10E9491068F3F09F41E
:1042B00067C184E091E060E842E420E030E000E69D
:1042C00011E10E9491068F3F09F45AC188E091E004
:1042D00060E842E420E030E00BE611E10E94910644
:1042E0008F3F09F44DC18CE091E060E842E420E0AA
:1042F00030E003EA17E10E9491068F3F09F440C1C4
:1043000080E191E060E844E020E030E00CE217E179
:104310000E9491068F3F09F433C184E191E060E887
:1043200042E420E030E000E117E10E9491068F3F77
:1043300009F426C188E191E060E844E020E030E043
:104340000FE517E10E9491068F3F09F419C18CE136
:1043500091E063E673E14CEB53E120E030E00E9432
:1043600001078F3F09F40CC180E291E06DE274E136
:1043700043EF5FE120E030E00E9401078F3F09F446
:10438000FFC084E291E068E975E14AEC5EE120E07B
:1043900030E00E9401078F3F09F4F2C088E291E00B
:1043A0006FEA74E144EA5CE120E030E00E9401073A
:1043B0008F3F09F4E5C08CE291E060E841E420E041
:1043C00030E006E711E10E9491068F3F09F4D8C062
:1043D00080E391E060E841E420E030E003E811E1AF
:1043E0000E9491068F3F09F4CBC084E391E060E81E
:1043F00041E420E030E000E911E10E9491068F3FA6
:1044000009F4BEC088E391E060E841E420E030E0D8
:1044100007E911E10E9491068F3F09F4B1C08CE3D6
:1044200091E060E841E420E030E00EE911E10E9413
:1044300091068F3F09F4A4C080E491E060E841E474
:1044400020E030E005EA11E10E9491068F3F09F477
:1044500097C084E491E060E841E420E030E00CEAB9
:1044600011E10E9491068F3F09F48AC088E491E02F
:1044700060E841E420E030E003EB11E10E949106A6
:104480008F3F09F47DC08CE491E060E841E420E0D6
:1044900030E002EC11E10E9491068F3F09F470C0F8
:1044A00080E591E060E841E420E030E00FEC11E1CC
:1044B0000E9491068F3F09F463C084E591E060E8B3
:1044C00041E420E030E00CED11E10E9491068F3FC5
:1044D00009F456C088E591E060E841E420E030E06E
:1044E00003EE11E10E9491068F3F09F449C08CE56B
:1044F00091E060E841E420E030E00AEE11E10E9442
:1045000091068F3FE9F180E691E060E841E420E028
:1045100030E009EF11E10E9491068F3F89F184E6B6
:1045200091E060E841E420E030E008E012E10E9420
:1045300091068F3F29F188E691E060E841E420E0B0
:1045400030E007E112E10E9491068F3FC9F08CE64E
:1045500091E060E841E420E030E006E212E10E94F0
:1045600091068F3F69F080E791E063E372E148EAEA
:1045700059E120E030E00E9401078F3F19F403C0A9
:104580008FEF01C080E01F910F91FF90EF90089591
:10459000EF92FF920F931F93DF93CF93CDB7DEB7C8
:1045A00028970FB6F894DEBF0FBECDBF81E068E05C
:1045B00046E00E94A77281E00E94EE720E94F02302
:1045C0000E94B6470E9464438EE694E060E070E08B
:1045D0000E940F440E943447E091EA03F091EB03FC
:1045E00009958E010F5F1F4F88E0D8011D928A95B3
:1045F000E9F7C80160E070E048E050E00E94D37B3A
:10460000A8E6BFE0F80188E001900D928150E1F743
:104610008DEC9BEA60E070E08E010F5F1F4FA801F8
:104620000E944B268AE190E00E94F724C8010E9474
:10463000822AEDB7FEB772970FB6F894FEBF0FBE91
:10464000EDBF31968EE094E0ADB7BEB712969C9365
:104650008E9311978981828313828A818483158244
:104660008B81868317828C81808711868D818287DA
:1046700013868E81848715868F8186871786888525
:10468000808B118A0E943C79EDB7FEB772960FB607
:10469000F894FEBF0FBEEDBF0E94224AE0913C0499
:1046A000F0913D040995E0912304F09124040995CB
:1046B000E091DF04F091E0040995E0902104F0908E
:1046C000220400913A0410913B040E9448262DB721
:1046D0003EB7285030400FB6F8943EBF0FBE2DBFF6
:1046E000EDB7FEB731962CEF33E0ADB7BEB71296FB
:1046F0003C932E931197F382E28215830483868381
:1047000017820E943C79E0914804F09149042DB74A
:104710003EB7285F3F4F0FB6F8943EBF0FBE2DBF88
:104720003097D1F00995BC0100D000D089EE93E01C
:10473000ADB7BEB712969C938E9311978DE790E01C
:104740000E941777EDB7FEB7748363830E943C79AC
:104750000F900F900F900F9000D087EE93E0ADB7C1
:10476000BEB712969C938E9311970E943C7986ED6A
:1047700093E0EDB7FEB7928381830E943C790F905E
:104780000F9086EB94E060E070E00E940F44289662
:104790000FB6F894DEBF0FBECDBFCF91DF911F9152
:1047A0000F91FF90EF9008950E94C82280E092E060
:1047B0000E943E4400D083EB93E0EDB7FEB79283B6
:1047C00081830E943C7983EA93E0EDB7FEB7928340
:1047D00081830E943C790F900F900E947443FDCF1B
:1047E000F8941092B60016BC89EF87BD82E084BDB4
:1047F00094E095BD95B395BB80936E007894089531
:104800002091320530913305809132059091330526
:1048100028173907A9F7C90108952091690D30912A
:104820006A0D40916B0D50916C0D8091690D9091C6
:104830006A0DA0916B0DB0916C0D281739074A07CE
:104840005B0759F7B901CA0108951F920F920FB67D
:104850000F920BB60F9211242F933F934F935F93B8
:104860006F937F938F939F93AF93BF93EF93FF9338
:104870008091320590913305019690933305809392
:104880003205809134058F5F809334058091340523
:104890008D37A8F0109234058091690D90916A0DC2
:1048A000A0916B0DB0916C0D0196A11DB11D80936F
:1048B000690D90936A0DA0936B0DB0936C0D0E94DF
:1048C0008D46009711F00E949B45FF91EF91BF919B
:1048D000AF919F918F917F916F915F914F913F9198
:1048E0002F910F900BBE0F900FBE0F901F90189539
:1048F0008091780D90E0FC01EE0FFF1F9695982FA8
:10490000882797958795E80FF91FE758F24F10828F
:1049100008958091720D90E008951C990BC081E07C
:104920006FE140E00E942229813039F021E030E03F
:10493000813129F020E030E002C021E030E0C901FF
:1049400008951C9911C081E06FE140E00E94222986
:10495000982F8151823050F09F3141F0913041F0D9
:1049600081E0923031F402C081E0089580E0089542
:1049700080E00895CF93DF93C0E1D7E20E94A124A5
:10498000882311F42197D1F7DF91CF91089583B156
:104990002C988DE090E00197F1F782E06FE140E024
:1049A00023E00E94392983E090E00197F1F7089510
:1049B0000E94BA240E94C7242C9A1092FB0D0895DD
:1049C0008091FB0D882321F00E94A1240E94D8240D
:1049D00080E090E008951C9909C0282F803108F0EC
:1049E0002FE085E06FE040E00E9439290895DF93D1
:1049F000CF930F92CDB7DEB789830E94BA24298165
:104A00002093B60588E06FE140E00E9439290F90BD
:104A1000CF91DF910895B82FA92FF62FE72F20917E
:104A2000040E3091050E4091060E5091070E2F5F37
:104A30003F4F4F4F5F4F2093040E3093050E40932E
:104A4000060E5093070E862F8E5F87FD0CC025E360
:104A500035E0C9016B2F7A2F4F2F5E2F0E9401790D
:104A600020E030E002C02FEF3FEFC901089581E060
:104A70006FE140E00E94222908950F931F93182FA1
:104A8000883049F0863039F0893029F0863119F0C4
:104A9000893109F03BC01C993CC00E94BA240E9495
:104AA0003725082F1817C1F1183019F40E94C724B0
:104AB00026C0193139F4863199F482E06FE140E083
:104AC00029E008C0163161F4893151F482E06FE1C8
:104AD00040E026E00E943929E3E0F0E03197F1F769
:104AE00082E06FE140E0212F0E943929083019F45B
:104AF000E9E6F1E002C0E3E0F0E03197F1F70E946F
:104B00003725811749F023E430E008C022E430E083
:104B100005C024E430E002C020E430E0C9011F9168
:104B20000F91089581E08093FB0D1C9B05C02C988C
:104B300081EC9DE00197F1F786E10E943D250E94FE
:104B4000BA2408958091FB0D882311F40E949225C8
:104B500081E090E008950F931F93DF93CF930F921E
:104B6000CDB7DEB78091FB0D882341F01C992AC098
:104B70000E94A124882331F110E003C00E94A225E5
:104B800011E08FB78983F8940E94BA2488E060E826
:104B900047E021E00E94392989E191E00197F1F78E
:104BA00000E004C081E00E94EC28082F07FFFACF44
:104BB00089818FBF112311F00E94E02421E030E0B1
:104BC00006FD02C020E030E0C9010F90CF91DF91D7
:104BD0001F910F9108958EE06CE00E9407298CE2EE
:104BE00060EF44E022E00E9439298CE26EE041E06F
:104BF00025E00E9439298FE260E80E94072986E0BB
:104C00000E94EC28682F8DE20E94072984E00E9410
:104C1000EC28682F606884E00E94072985E060E83E
:104C200047E021E00E9439290895CF93DF93CDEF2B
:104C3000D3E0CE010197F1F70E94C9281092790DB7
:104C40001092780D1092770D17982C9881EC9DE0BA
:104C50000197F1F7179A82E06FE140E023E00E94AC
:104C600039292197F1F78DE10E94EC288EE10E940D
:104C7000EC280E94EB2580EE93E060E070E00E945B
:104C80000F440E94922581E090E0DF91CF9108953A
:104C90008091B6050895AF92BF92CF92DF92EF92C6
:104CA000FF920F931F93DF93CF9300D0CDB7DEB762
:104CB000282F062F6A0182E2622F7A8399830E944D
:104CC000072983E29981692F0E94072980E2602FDA
:104CD0000E94072981E27A81672F0E940729C11467
:104CE000D104F1F186010F5F1F4F8BE2F601608165
:104CF0000E94072978010894E11CF11C8AE2F60160
:104D000061810E94072957010894A11CB11C89E206
:104D1000F80161810E94072965010894C11CD11C1A
:104D200088E2F70161810E94072986010F5F1F4F0A
:104D300087E2F50161810E94072978010894E11C4E
:104D4000F11C86E2F60161810E94072985E2F801E3
:104D500061810E94072984E2F70161810E9407298D
:104D60000F900F90CF91DF911F910F91FF90EF90D7
:104D7000DF90CF90BF90AF90089580EE93E00E94B7
:104D8000324481E08093720D8091480E9091490EDB
:104D9000A0914A0EB0914B0E0196A11DB11D8093BA
:104DA000480E9093490EA0934A0EB0934B0E81E0AB
:104DB00090E00895EF92FF92CF93DF935091780D9A
:104DC000252F30E0F901EE0FFF1F3695322F2227F5
:104DD00037952795E20FF31FE758F24F40814423A0
:104DE00009F4C8C01C99C6C02091FB0D222309F408
:104DF000C1C047FF16C00E9478248091340E909164
:104E0000350EA091360EB091370E0196A11DB11D41
:104E10008093340E9093350EA093360EB093370ED8
:104E2000A9C04330B0F40E9478248091300E909154
:104E3000310EA091320EB091330E0196A11DB11D1D
:104E40008093300E9093310EA093320EB093330EB8
:104E500091C0C42FD0E022976C177D07B0F40E9458
:104E6000782480912C0E90912D0EA0912E0EB09151
:104E70002F0E0196A11DB11D80932C0E90932D0E27
:104E8000A0932E0EB0932F0E75C0652F70E09B017E
:104E9000220F331F7695762F662777956795260F15
:104EA000371F2658324FB90150E00E9401792091F6
:104EB000780D822F90E0FC01EE0FFF1F9695982F42
:104EC000882797958795E80FF91FE750F24F808163
:104ED00080936D0D822F90E0FC01EE0FFF1F9695E1
:104EE000982F882797958795E80FF91FE758F24F75
:104EF00010821092780D80E090E0FC01EE0FFF1F11
:104F00009695982F882797958795E80FF91FE7586A
:104F1000F24F8081882311F00E94BD2687E00E9415
:104F2000EC28682F80936E0D8091710D882311F00D
:104F3000681710F46093710D84E070E00E94F649E8
:104F400060916D0D83E070E00E94F6498091080E3B
:104F50009091090EA0910A0EB0910B0E0196A11D21
:104F6000B11D8093080E9093090EA0930A0EB09382
:104F70000B0E02C0C0E0D0E0CE01DF91CF91FF90D8
:104F8000EF9008950F931F93DF93CF930F92CDB7B8
:104F9000DEB78C01FC0180819181009729F0F5E05A
:104FA00080329F0719F506C080E295E0F8019183F1
:104FB000808321C06238F9F41092720D0E948549F5
:104FC0008FB78983F8940E94144960E870E00E94CA
:104FD000DA2629812FBF1816190634F70E940F49C7
:104FE000E0914204F09143040995DECFF80111826B
:104FF000108283E001C081E00F90CF91DF911F917B
:105000000F9108951C9906C085E06FE040E00E9472
:105010002229089580E108951F93CF93DF93182FDD
:105020001C9B05C02C98E1ECFDE03197F1F70E9444
:10503000BA2489E10E943D2586E00E94014A00973A
:1050400051F00E940228C82F86E00E94014A815038
:105050000E94EB2402C0C0E0D0E02C9A2C98612F73
:105060006E5F85E395E00E94A4290E94BA2482E045
:1050700060EE45E00E942229182F86E00E94014A36
:10508000009719F08C2F0E94EB248091FB0D882350
:1050900019F00E94922502C00E94D824113011F00C
:1050A000112369F58091440E9091450EA091460E12
:1050B000B091470E0196A11DB11D8093440E9093AF
:1050C000450EA093460EB093470E8CE00E94014A15
:1050D000009709F445C08091200E9091210EA09177
:1050E000220EB091230E0196A11DB11D8093200EBA
:1050F0009093210EA093220EB093230E31C0133053
:10510000A9F480913C0E90913D0EA0913E0EB0917D
:105110003F0E0196A11DB11D80933C0E90933D0E54
:10512000A0933E0EB0933F0E12E01DC01530A9F4BF
:105130008091280E9091290EA0912A0EB0912B0EED
:105140000196A11DB11D8093280E9093290EA09366
:105150002A0EB0932B0E13E006C0173021F402C0C4
:1051600010E001C011E0812F90E0DF91CF911F91FD
:105170000895CF93DF93EB010E940B259C010097CC
:1051800021F4CE010E940C289C01C901DF91CF912E
:1051900008951092B9051092B805249A0F9A85B116
:1051A000836085B984B1876084B9239880E58CBD1C
:1051B00081E08DBD83E480938100B59AEFE6F0E055
:1051C000808181608083ED9AEAE6F0E080818C60E6
:1051D000808375986D980895DF93CF930F92CDB724
:1051E000DEB780689FB79983F89428988EBD0DB478
:1051F00007FEFDCF8EB51EBC0DB407FEFDCF8EB5EC
:10520000289A99819FBF0F90CF91DF910895DF93E6
:10521000CF930F92CDB7DEB7806C9FB79983F89488
:1052200028988EBD0DB407FEFDCF8EB56EBD0DB4B2
:1052300007FEFDCF8EB5289A89818FBF0F90CF9141
:10524000DF910895DF93CF9300D0CDB7DEB74A83C7
:1052500069830E94EC286981862390E04A8102C01C
:10526000959587954A95E2F70F900F90CF91DF9132
:1052700008951F93DF93CF9300D000D0CDB7DEB752
:10528000182F2C834B836A830E94EC288983998191
:105290006A81862F8095892389832C8130E04B8118
:1052A00002C0220F331F4A95E2F762238981682BDF
:1052B000812F0E9407290F900F900F900F90CF9190
:1052C000DF911F910895DF93CF930F92CDB7DEB793
:1052D000FC018FB78983F894289880E28EBD0DB4C5
:1052E00007FEFDCF8EB51EBC0DB407FEFDCF8EB5FB
:1052F000982F93509D37C8F4DF01119680831EBC10
:105300000DB407FEFDCF9EB59D931EBC0DB407FEE8
:10531000FDCF8150C1F78EB5DF01A058BF4F8C93F0
:10532000EF57FF4F81E0808308C01082DF01A05853
:10533000BF4F1C92EF57FF4F1082289A89818FBF71
:105340000F90CF91DF910895DF93CF930F92CDB758
:10535000DEB7FC018FB78983F894289880E68EBD6C
:105360000DB407FEFDCF8EB56EBD0DB407FEFDCFAB
:105370008EB5CF0101966350860F911D21912EBDF0
:105380000DB407FEFDCF2EB5E817F907B9F7289A37
:1053900089818FBF0F90CF91DF9108951F920F9257
:1053A0000FB60F920BB60F9211242F933F934F938A
:1053B0005F936F937F938F939F93AF93BF93EF937D
:1053C000FF93DF93CF9300D0CDB7DEB78FB78A833B
:1053D000F89428988FE88EBD0DB407FEFDCF1EBC53
:1053E0000DB407FEFDCF2EB5289A8A818FBF822F7C
:1053F00090E022FD39C023FF27C081E00E94EC2805
:105400008F7189838981813149F08981863031F0BA
:105410008981813019F08981863131F52091770DAC
:1054200030E0C901880F991F3695322F2227379512
:105430002795820F931F8758924F0E9463291092DD
:10544000770D0E94BD2610C026FD0EC0837090709F
:10545000009751F427FF08C08EE00E94EC28682FC7
:105460006F778EE00E9407290F900F90CF91DF9108
:10547000FF91EF91BF91AF919F918F917F916F912C
:105480005F914F913F912F910F900BBE0F900FBEE8
:105490000F901F9018951F920F920FB60F92112424
:1054A0008F939F938091B8059091B9050196909341
:1054B000B9058093B8059F918F910F900FBE0F9003
:1054C0001F901895262F372FF901282F392FD90132
:1054D00088E091919D938150E1F70895282F392F0D
:1054E000D901862F972FFC0188E02D9191912917E2
:1054F00029F48150D1F721E030E002C020E030E013
:10550000C9010895282F392FD901ECEFFDE08D91C5
:1055100081938EE0E430F807D1F70895E0913E04DE
:10552000F0913F0409950895E091E104F091E204BF
:1055300009950895E0914404F09145040995089572
:10554000E0914604F09147040995089580E090E0C9
:1055500008950895E091FC03F091FD0309950895E5
:10556000009731F0E091FC03F091FD030995089557
:10557000E091FE03F091FF030995089580E090E02B
:1055800008950F931F93DF93CF93CDB7DEB7E097C6
:105590000FB6F894DEBF0FBECDBF0E9436498C0116
:1055A0000E941449602FAE014F5F5F4F0E94B2749A
:1055B000882309F445C088A99801281B3109C9012D
:1055C0000E94F0480097E1F12E81222371F18A8533
:1055D0009B853BEA8D3C930721F03FEF8F3F93077C
:1055E00079F5223041F088E090E007C001972291E0
:1055F0002F3F41F00BC082E090E0FE01E80FF91F61
:105600003C96F4CF181619068CF30FC089E1BE0141
:10561000645F7F4F0E940A4A89E10E94174A6CEF3B
:105620007DE00E946E2A009759F088E1BE016A5E13
:105630007F4F0E940A4AE0912704F09128040995BF
:10564000E0960FB6F894DEBF0FBECDBFCF91DF91CD
:105650001F910F910895AF92BF92CF92DF92EF9278
:10566000FF920F931F93DF93CF93CDB7DEB7E097F1
:105670000FB6F894DEBF0FBECDBF6C018B01FE01EB
:10568000319680E3DF011D928A95E9F781E08983F5
:105690008CE00E94014A8C831D821F828091BA0592
:1056A00089878F5F8093BA0583E0E82EE8868DECCA
:1056B0009BEA9B878A8789E10E94174A61E174E02F
:1056C0000E946E2A009731F082E08E838FEF8C87E4
:1056D0008D8709C089E10E94174ABC01CE010C9652
:1056E0000E94622AEE828DEC9BEA9D8B8C8BCE0110
:1056F00046966CEF7DE00E94622A0E9414499FA7A3
:105700008EA70E94364988AB7E010894E11CF11CEB
:10571000C7010E94A973A82E90E00E9447490097F4
:1057200041F10E941C49BC01C7014A2D0E94C77368
:10573000A090F003B090F1030E941C497C010E94EC
:105740003B49BC01C701F5010995C114D10489F099
:10575000009721F08130910561F404C0C80160E038
:1057600070E003C0C80164E070E041E050E0F60181
:105770000995E0960FB6F894DEBF0FBECDBFCF916E
:10578000DF911F910F91FF90EF90DF90CF90BF902E
:10579000AF9008950E9415488093BA05E091FC03EC
:1057A000F091FD03099508950F931F93CF93DF9315
:1057B0008C01EB014115510549F0FA018281938179
:1057C0000E94A04AC801BE010E942B2BDF91CF91FD
:1057D0001F910F910895DF92EF92FF920F931F9305
:1057E000DF93CF93CDB7DEB762970FB6F894DEBFE5
:1057F0000FBECDBF9C017B018EEF90E89A83898319
:105800001C821B821E821D8218861F821A861986A0
:105810001C861B861E861D86188A1F868E010F5FBA
:105820001F4FC801B901498B5A8B0E948D70D090CF
:10583000D60E8D2D813011F58AE59EE0B8010E94CB
:10584000582F8C0149895A890097C1F0FC01D78EE5
:10585000458FE091610EF091620E0280F381E02DA0
:10586000309749F4E114F10481F48FEF9FEFF801D0
:10587000948F838F06C0B7010995F4CFE114F1042A
:1058800021F4CE0101960E94627062960FB6F894E0
:10589000DEBF0FBECDBFCF91DF911F910F91FF9063
:1058A000EF90DF900895EF92FF920F931F93CF93A5
:1058B000DF93C3EBD3E100E010E08EE2E82EF12CA1
:1058C000FE01B39780818823E1F088819981AA81C4
:1058D000BB8182309105A105B10560F40E9DC00128
:1058E0000F9D900D1E9D900D112480579C4E0E947F
:1058F0005F7007C00197A109B10988839983AA83C2
:10590000BB830F5F1F4FAE9604301105C9F6DF91C0
:10591000CF911F910F91FF90EF900895CF92DF925A
:10592000EF92FF920F931F93CF93DF937C010BEBCA
:1059300013E1C0E0D0E09EE2C92ED12CF8018081B5
:1059400091818E159F0559F4CC9DC001CD9D900D80
:10595000DC9D900D112480579C4E0E945F70219613
:10596000025D1F4FC430D10549F7DF91CF911F91E0
:105970000F91FF90EF90DF90CF900895EF92FF92FC
:105980000F931F93CF93DF938C017B01C0E9D3E189
:105990008881882379F0CE014396B80140E150E038
:1059A0000E94F478009731F48BA59CA58E159F0575
:1059B00009F41882AE9684E1C834D80749F7DF911C
:1059C000CF911F910F91FF90EF900895CF92DF92AA
:1059D000EF92FF920F931F93DF93CF9300D00F921C
:1059E000CDB7DEB77C018B01CB012A833B83498392
:1059F0000E94C66F6C012A813B814981009751F456
:105A0000C801642FA90120E00E9405706C01009775
:105A100059F426C0DC015396822F932FFC0180E1BC
:105A200001900D928150E1F7F601F4A6E3A6F7018B
:105A3000238D348DF901EE57FF4F608170E080E0D7
:105A400090E026573F4FF9012081318140E050E03E
:105A50000E94F876F60163A374A385A396A315A606
:105A6000C6010F900F900F90CF91DF911F910F9172
:105A7000FF90EF90DF90CF9008951F93FC0120815D
:105A8000222399F41091D60E113079F4BC016F5F86
:105A90007F4F8AE59EE00E94582FFC01009729F075
:105AA0008FEF9FEF948F838F178F1F910895DF9350
:105AB000CF93CDB7DEB760970FB6F894DEBF0FBEB9
:105AC000CDBF1092590E1092580E0E94A43F8BEE3B
:105AD0009BE20E94C36A8FEF92E09A8389831C82C3
